{
  "_format": "hh-sol-artifact-1",
  "contractName": "PricesLibrary",
  "sourceName": "contracts/Pricing/PricesLibrary.sol",
  "abi": [
    {
      "inputs": [
        {
          "internalType": "address",
          "name": "tokenAddress",
          "type": "address"
        }
      ],
      "name": "getTokenDecimal",
      "outputs": [
        {
          "internalType": "uint256",
          "name": "decimals",
          "type": "uint256"
        }
      ],
      "stateMutability": "view",
      "type": "function"
    },
    {
      "inputs": [
        {
          "internalType": "address",
          "name": "ProsperoWalletAddress",
          "type": "address"
        },
        {
          "internalType": "address",
          "name": "prosperoPricesAddress",
          "type": "address"
        }
      ],
      "name": "getTotalValueOfPortfolio",
      "outputs": [
        {
          "internalType": "uint256",
          "name": "",
          "type": "uint256"
        }
      ],
      "stateMutability": "view",
      "type": "function"
    },
    {
      "inputs": [
        {
          "internalType": "address",
          "name": "tokenAddress",
          "type": "address"
        },
        {
          "internalType": "uint256",
          "name": "amount",
          "type": "uint256"
        },
        {
          "internalType": "address",
          "name": "prosperoPricesAddress",
          "type": "address"
        }
      ],
      "name": "getUSDValueOfToken",
      "outputs": [
        {
          "internalType": "uint256",
          "name": "",
          "type": "uint256"
        }
      ],
      "stateMutability": "view",
      "type": "function"
    }
  ],
  "bytecode": "0x6109b061003a600b82828239805160001a60731461002d57634e487b7160e01b600052600060045260246000fd5b30600052607381538281f3fe73000000000000000000000000000000000000000030146080604052600436106100565760003560e01c806309687f0d1461005b57806358e86625146100815780637349fae514610094578063cbd1cf471461013e575b600080fd5b61006e61006936600461062a565b610151565b6040519081526020015b60405180910390f35b61006e61008f3660046105f0565b6102fc565b8180156100a057600080fd5b506100b46100af3660046106a5565b6103eb565b604051610078919081516001600160a01b0316815261016081016020830151602083015260408301516040830152606083015160608301526080830151608083015260a083015160a083015260c083015160c083015260e083015160e083015261010080840151818401525061012080840151818401525061014080840151818401525092915050565b61006e61014c366004610663565b610507565b600080805b846001600160a01b03166369d1c1016040518163ffffffff1660e01b815260040160206040518083038186803b15801561018f57600080fd5b505afa1580156101a3573d6000803e3d6000fd5b505050506040513d601f19601f820116820180604052508101906101c79190610762565b8110156102f25760405163cdb77de560e01b8152600481018290526000906001600160a01b0387169063cdb77de59060240160206040518083038186803b15801561021157600080fd5b505afa158015610225573d6000803e3d6000fd5b505050506040513d601f19601f82011682018060405250810190610249919061060d565b60405163c51077c360e01b81526001600160a01b0380831660048301529192506102d29183919089169063c51077c39060240160206040518083038186803b15801561029457600080fd5b505afa1580156102a8573d6000803e3d6000fd5b505050506040513d601f19601f820116820180604052508101906102cc9190610762565b87610507565b6102dc90846107d6565b92505080806102ea90610931565b915050610156565b5090505b92915050565b600080826001600160a01b031663313ce5676040518163ffffffff1660e01b815260040160206040518083038186803b15801561033857600080fd5b505afa15801561034c573d6000803e3d6000fd5b505050506040513d601f19601f82011682018060405250810190610370919061077b565b60ff166001610386670de0b6b3a76400006105b7565b610390919061091a565b61039a919061091a565b9050806103b15750670de0b6b3a764000092915050565b8060016103c5670de0b6b3a76400006105b7565b6103cf919061091a565b6103d9919061091a565b6103e490600a610853565b9392505050565b61045160405180610160016040528060006001600160a01b03168152602001600081526020016000815260200160008152602001600081526020016000815260200160008152602001600081526020016000815260200160008152602001600081525090565b82516040516341976e0960e01b81526001600160a01b039182166004820152908316906341976e099060240160206040518083038186803b15801561049557600080fd5b505afa1580156104a9573d6000803e3d6000fd5b505050506040513d601f19601f820116820180604052508101906104cd9190610762565b60a084015282516104dd906102fc565b83602001518460a001516104f191906108fb565b6104fb91906107ee565b60808401525090919050565b600082610516575060006103e4565b61051f846102fc565b6040516341976e0960e01b81526001600160a01b0386811660048301528591908516906341976e099060240160206040518083038186803b15801561056357600080fd5b505afa158015610577573d6000803e3d6000fd5b505050506040513d601f19601f8201168201806040525081019061059b9190610762565b6105a591906108fb565b6105af91906107ee565b949350505050565b6000805b82156102f6576105cc600a846107ee565b9250806105d881610931565b9150506105bb565b80356105eb81610962565b919050565b60006020828403121561060257600080fd5b81356103e481610962565b60006020828403121561061f57600080fd5b81516103e481610962565b6000806040838503121561063d57600080fd5b823561064881610962565b9150602083013561065881610962565b809150509250929050565b60008060006060848603121561067857600080fd5b833561068381610962565b925060208401359150604084013561069a81610962565b809150509250925092565b6000808284036101808112156106ba57600080fd5b610160808212156106ca57600080fd5b6106d261079e565b91506106dd856105e0565b82526020850135602083015260408501356040830152606085013560608301526080850135608083015260a085013560a083015260c085013560c083015260e085013560e08301526101008086013581840152506101208086013581840152506101408086013581840152508193506107578186016105e0565b925050509250929050565b60006020828403121561077457600080fd5b5051919050565b60006020828403121561078d57600080fd5b815160ff811681146103e457600080fd5b604051610160810167ffffffffffffffff811182821017156107d057634e487b7160e01b600052604160045260246000fd5b60405290565b600082198211156107e9576107e961094c565b500190565b60008261080b57634e487b7160e01b600052601260045260246000fd5b500490565b600181815b8085111561084b5781600019048211156108315761083161094c565b8085161561083e57918102915b93841c9390800290610815565b509250929050565b60006103e48383600082610869575060016102f6565b81610876575060006102f6565b816001811461088c5760028114610896576108b2565b60019150506102f6565b60ff8411156108a7576108a761094c565b50506001821b6102f6565b5060208310610133831016604e8410600b84101617156108d5575081810a6102f6565b6108df8383610810565b80600019048211156108f3576108f361094c565b029392505050565b60008160001904831182151516156109155761091561094c565b500290565b60008282101561092c5761092c61094c565b500390565b60006000198214156109455761094561094c565b5060010190565b634e487b7160e01b600052601160045260246000fd5b6001600160a01b038116811461097757600080fd5b5056fea26469706673582212203ddd5c9da78c8ed7da1f7c7068213c06d0268f105469791ed75c0e8fac6c798b64736f6c63430008070033",
  "linkReferences": {},
  "deployedLinkReferences": {}
}