{
  "_format": "hh-sol-artifact-1",
  "contractName": "ProsperoWallet",
  "sourceName": "contracts/ProsperoWallet.sol",
  "abi": [
    {
      "anonymous": false,
      "inputs": [
        {
          "indexed": false,
          "internalType": "uint256",
          "name": "methodType",
          "type": "uint256"
        },
        {
          "indexed": false,
          "internalType": "address",
          "name": "eoaAddressLeaderTrailer",
          "type": "address"
        }
      ],
      "name": "FinishedMethod",
      "type": "event"
    },
    {
      "inputs": [
        {
          "internalType": "address payable",
          "name": "_trailerAddress",
          "type": "address"
        }
      ],
      "name": "addTrailer",
      "outputs": [],
      "stateMutability": "nonpayable",
      "type": "function"
    },
    {
      "inputs": [
        {
          "internalType": "address[]",
          "name": "_tokensDepositing",
          "type": "address[]"
        },
        {
          "internalType": "uint256[]",
          "name": "_amountsDepositing",
          "type": "uint256[]"
        },
        {
          "internalType": "uint256",
          "name": "_methodType",
          "type": "uint256"
        }
      ],
      "name": "deposit",
      "outputs": [],
      "stateMutability": "payable",
      "type": "function"
    },
    {
      "inputs": [
        {
          "internalType": "address",
          "name": "token",
          "type": "address"
        }
      ],
      "name": "getBalanceOfTokenInPortfolio",
      "outputs": [
        {
          "internalType": "uint256",
          "name": "",
          "type": "uint256"
        }
      ],
      "stateMutability": "view",
      "type": "function"
    },
    {
      "inputs": [
        {
          "internalType": "address",
          "name": "user",
          "type": "address"
        },
        {
          "internalType": "address",
          "name": "token",
          "type": "address"
        }
      ],
      "name": "getBalanceOfTokenInPortfolioForUser",
      "outputs": [
        {
          "internalType": "uint256",
          "name": "",
          "type": "uint256"
        }
      ],
      "stateMutability": "view",
      "type": "function"
    },
    {
      "inputs": [
        {
          "internalType": "uint256",
          "name": "index",
          "type": "uint256"
        }
      ],
      "name": "getLastRemixGoalPercentages",
      "outputs": [
        {
          "internalType": "uint256",
          "name": "",
          "type": "uint256"
        }
      ],
      "stateMutability": "view",
      "type": "function"
    },
    {
      "inputs": [
        {
          "internalType": "uint256",
          "name": "index",
          "type": "uint256"
        }
      ],
      "name": "getLastRemixGoalTokens",
      "outputs": [
        {
          "internalType": "address",
          "name": "",
          "type": "address"
        }
      ],
      "stateMutability": "view",
      "type": "function"
    },
    {
      "inputs": [
        {
          "internalType": "address",
          "name": "user",
          "type": "address"
        }
      ],
      "name": "getPercentageOwnership",
      "outputs": [
        {
          "internalType": "uint256",
          "name": "",
          "type": "uint256"
        }
      ],
      "stateMutability": "view",
      "type": "function"
    },
    {
      "inputs": [],
      "name": "getPortfolioTokensSize",
      "outputs": [
        {
          "internalType": "uint256",
          "name": "",
          "type": "uint256"
        }
      ],
      "stateMutability": "view",
      "type": "function"
    },
    {
      "inputs": [
        {
          "internalType": "address",
          "name": "user",
          "type": "address"
        }
      ],
      "name": "getTotalUsdInvestedPerUser",
      "outputs": [
        {
          "internalType": "uint256",
          "name": "",
          "type": "uint256"
        }
      ],
      "stateMutability": "view",
      "type": "function"
    },
    {
      "inputs": [
        {
          "internalType": "address",
          "name": "user",
          "type": "address"
        },
        {
          "internalType": "uint256",
          "name": "totalValueOfPortfolio",
          "type": "uint256"
        }
      ],
      "name": "getUsersValue",
      "outputs": [
        {
          "internalType": "uint256",
          "name": "",
          "type": "uint256"
        }
      ],
      "stateMutability": "view",
      "type": "function"
    },
    {
      "inputs": [
        {
          "internalType": "address",
          "name": "user",
          "type": "address"
        }
      ],
      "name": "getUsersValueNew",
      "outputs": [
        {
          "internalType": "uint256",
          "name": "",
          "type": "uint256"
        }
      ],
      "stateMutability": "view",
      "type": "function"
    },
    {
      "inputs": [],
      "name": "getWalletValues",
      "outputs": [
        {
          "components": [
            {
              "internalType": "address",
              "name": "ProsperoBeaconFactoryAddress",
              "type": "address"
            },
            {
              "internalType": "address",
              "name": "leader",
              "type": "address"
            },
            {
              "internalType": "address",
              "name": "prosperoPricesAddress",
              "type": "address"
            },
            {
              "internalType": "address",
              "name": "prosperoDataAddress",
              "type": "address"
            },
            {
              "internalType": "address",
              "name": "ProsperoWalletAddress",
              "type": "address"
            },
            {
              "internalType": "string",
              "name": "walletName",
              "type": "string"
            },
            {
              "internalType": "string",
              "name": "profilePictureUrl",
              "type": "string"
            },
            {
              "internalType": "uint256",
              "name": "totalSupply_percentageOwnership",
              "type": "uint256"
            },
            {
              "internalType": "uint256",
              "name": "leaderPercentageFee",
              "type": "uint256"
            },
            {
              "internalType": "uint256",
              "name": "prosperoPercentageFeeOfLeader",
              "type": "uint256"
            }
          ],
          "internalType": "struct ProsperoWalletStructs.WalletValuesStruct",
          "name": "",
          "type": "tuple"
        }
      ],
      "stateMutability": "view",
      "type": "function"
    },
    {
      "inputs": [
        {
          "internalType": "address",
          "name": "",
          "type": "address"
        }
      ],
      "name": "indexOfAddressInPortfolioTokens",
      "outputs": [
        {
          "internalType": "uint256",
          "name": "",
          "type": "uint256"
        }
      ],
      "stateMutability": "view",
      "type": "function"
    },
    {
      "inputs": [
        {
          "internalType": "address",
          "name": "_leader",
          "type": "address"
        },
        {
          "internalType": "string",
          "name": "walletName",
          "type": "string"
        },
        {
          "internalType": "string",
          "name": "_profilePictureUrl",
          "type": "string"
        },
        {
          "internalType": "address",
          "name": "_prosperoDataAddress",
          "type": "address"
        },
        {
          "internalType": "address",
          "name": "_prosperoPricesAddress",
          "type": "address"
        }
      ],
      "name": "initialize",
      "outputs": [],
      "stateMutability": "nonpayable",
      "type": "function"
    },
    {
      "inputs": [
        {
          "internalType": "uint256",
          "name": "",
          "type": "uint256"
        }
      ],
      "name": "last_remixGoalPercentages",
      "outputs": [
        {
          "internalType": "uint256",
          "name": "",
          "type": "uint256"
        }
      ],
      "stateMutability": "view",
      "type": "function"
    },
    {
      "inputs": [
        {
          "internalType": "uint256",
          "name": "",
          "type": "uint256"
        }
      ],
      "name": "last_remixGoalTokens",
      "outputs": [
        {
          "internalType": "address",
          "name": "",
          "type": "address"
        }
      ],
      "stateMutability": "view",
      "type": "function"
    },
    {
      "inputs": [
        {
          "internalType": "address",
          "name": "",
          "type": "address"
        }
      ],
      "name": "percentageOwnership",
      "outputs": [
        {
          "internalType": "uint256",
          "name": "",
          "type": "uint256"
        }
      ],
      "stateMutability": "view",
      "type": "function"
    },
    {
      "inputs": [
        {
          "internalType": "uint256",
          "name": "",
          "type": "uint256"
        }
      ],
      "name": "portfolioTokens",
      "outputs": [
        {
          "internalType": "address",
          "name": "",
          "type": "address"
        }
      ],
      "stateMutability": "view",
      "type": "function"
    },
    {
      "inputs": [
        {
          "internalType": "address[]",
          "name": "_remixGoalTokens",
          "type": "address[]"
        },
        {
          "internalType": "uint256[]",
          "name": "_remixGoalPercentages",
          "type": "uint256[]"
        }
      ],
      "name": "rebalancePortfolio",
      "outputs": [],
      "stateMutability": "nonpayable",
      "type": "function"
    },
    {
      "inputs": [
        {
          "internalType": "address",
          "name": "anAd",
          "type": "address"
        }
      ],
      "name": "testPrice",
      "outputs": [
        {
          "internalType": "uint256",
          "name": "",
          "type": "uint256"
        }
      ],
      "stateMutability": "view",
      "type": "function"
    },
    {
      "inputs": [
        {
          "internalType": "address",
          "name": "",
          "type": "address"
        }
      ],
      "name": "tokenBalances",
      "outputs": [
        {
          "internalType": "uint256",
          "name": "",
          "type": "uint256"
        }
      ],
      "stateMutability": "view",
      "type": "function"
    },
    {
      "inputs": [
        {
          "internalType": "address",
          "name": "",
          "type": "address"
        }
      ],
      "name": "totalUsdInvestedPerUser",
      "outputs": [
        {
          "internalType": "uint256",
          "name": "",
          "type": "uint256"
        }
      ],
      "stateMutability": "view",
      "type": "function"
    },
    {
      "inputs": [
        {
          "internalType": "address",
          "name": "",
          "type": "address"
        }
      ],
      "name": "trailers",
      "outputs": [
        {
          "internalType": "bool",
          "name": "",
          "type": "bool"
        }
      ],
      "stateMutability": "view",
      "type": "function"
    },
    {
      "inputs": [
        {
          "internalType": "uint256",
          "name": "_usdWithdrawing",
          "type": "uint256"
        },
        {
          "internalType": "address[]",
          "name": "_tokensSwappingInto",
          "type": "address[]"
        }
      ],
      "name": "withdraw",
      "outputs": [],
      "stateMutability": "nonpayable",
      "type": "function"
    }
  ],
  "bytecode": "0x608060405234801561001057600080fd5b50615389806100206000396000f3fe60806040526004361061014b5760003560e01c806382233c99116100b6578063b544d75e1161006f578063b544d75e1461040f578063c51077c314610431578063cdb77de514610467578063d2ce52d214610487578063e8f5c00a1461049a578063ee14c87b146104c757600080fd5b806382233c991461032a5780638a121a451461034a5780638c228eb01461038257806399eca69f146103a2578063b048be0e146103c2578063b11fa9ee146103e257600080fd5b806353f5aa331161010857806353f5aa33146102525780635d3f38211461027257806369d1c1011461029f5780636cf1dbed146102b457806370756083146102d45780637c7dc2521461030a57600080fd5b806308e3f5b7146101505780630a140609146101835780630efc3d08146101a55780631908b2e5146101e55780633b61608114610205578063523fba7f14610225575b600080fd5b34801561015c57600080fd5b5061017061016b366004613e60565b6104e7565b6040519081526020015b60405180910390f35b34801561018f57600080fd5b506101a361019e366004613f9c565b61056f565b005b3480156101b157600080fd5b506101d56101c0366004613e60565b600b6020526000908152604090205460ff1681565b604051901515815260200161017a565b3480156101f157600080fd5b50610170610200366004613f70565b610717565b34801561021157600080fd5b50610170610220366004614447565b6107ab565b34801561023157600080fd5b50610170610240366004613e60565b60106020526000908152604090205481565b34801561025e57600080fd5b5061017061026d366004613e9a565b6107d2565b34801561027e57600080fd5b5061017061028d366004613e60565b600c6020526000908152604090205481565b3480156102ab57600080fd5b50600e54610170565b3480156102c057600080fd5b506101a36102cf366004613ed3565b610884565b3480156102e057600080fd5b506101706102ef366004613e60565b6001600160a01b03166000908152600d602052604090205490565b34801561031657600080fd5b506101a3610325366004613e60565b610aec565b34801561033657600080fd5b50610170610345366004614447565b610b74565b34801561035657600080fd5b5061036a610365366004614447565b610b95565b6040516001600160a01b03909116815260200161017a565b34801561038e57600080fd5b5061017061039d366004613e60565b610bc5565b3480156103ae57600080fd5b506101a36103bd366004614479565b610cee565b3480156103ce57600080fd5b5061036a6103dd366004614447565b6111ed565b3480156103ee57600080fd5b506101706103fd366004613e60565b600d6020526000908152604090205481565b34801561041b57600080fd5b50610424611217565b60405161017a9190614f85565b34801561043d57600080fd5b5061017061044c366004613e60565b6001600160a01b031660009081526010602052604090205490565b34801561047357600080fd5b5061036a610482366004614447565b6113fb565b6101a3610495366004614058565b61140b565b3480156104a657600080fd5b506101706104b5366004613e60565b600f6020526000908152604090205481565b3480156104d357600080fd5b506101706104e2366004613e60565b611a93565b6003546040516341976e0960e01b81526001600160a01b03838116600483015260009283929116906341976e099060240160206040518083038186803b15801561053057600080fd5b505afa158015610544573d6000803e3d6000fd5b505050506040513d601f19601f820116820180604052508101906105689190614460565b9392505050565b6002546001600160a01b0316331480156105975750336000908152600c602052604090205415155b61061c5760405162461bcd60e51b8152602060048201526044602482018190527f4f6e6c7920706f7274666c696f206d616e616765722f6c65616465722063616e908201527f2063616c6c20616e64206d757374206861766520736f6d65202420696e7665736064820152633a32b21760e11b608482015260a4015b60405180910390fd5b6106246130a4565b6003546001600160a01b03168152604051600162230f8160e21b0319815260009073__$7f589f9ba993b48eab17aec71d81b78e51$__9063ff73c1fc906106769087908790600e908890600401614cf5565b60206040518083038186803b15801561068e57600080fd5b505af41580156106a2573d6000803e3d6000fd5b505050506040513d601f19601f820116820180604052508101906106c69190614100565b9050806107045760405162461bcd60e51b815260206004820152600c60248201526b12901e9031bab93932b73a1760a11b6044820152606401610613565b610711848460035b611ade565b50505050565b6001600160a01b0382166000908152600c6020526040812054158061073a575081155b806107455750600854155b15610752575060006107a5565b6008546001600160a01b0384166000908152600c6020526040902054670de0b6b3a7640000919061078490839061525a565b61078e9190615238565b610798908461525a565b6107a29190615238565b90505b92915050565b6000601182815481106107c0576107c0615312565b90600052602060002001549050919050565b6001600160a01b0382166000908152600c6020526040812054158061080d57506001600160a01b038216600090815260106020526040902054155b806108185750600854155b15610825575060006107a5565b6008546001600160a01b0384166000908152600c6020526040902054670de0b6b3a7640000919061085790839061525a565b6108619190615238565b6001600160a01b038416600090815260106020526040902054610798919061525a565b600054610100900460ff1661089f5760005460ff16156108a3565b303b155b6109065760405162461bcd60e51b815260206004820152602e60248201527f496e697469616c697a61626c653a20636f6e747261637420697320616c72656160448201526d191e481a5b9a5d1a585b1a5e995960921b6064820152608401610613565b600054610100900460ff16158015610928576000805461ffff19166101011790555b601480546001600160a01b03199081167360ae616a2155ee3d9a68541ba4544862310933d4179091556013805490911673e54ca86531e17ef3616d22ca28b0d458b6c89106179055604051806101400160405280336001600160a01b03168152602001876001600160a01b03168152602001836001600160a01b03168152602001846001600160a01b03168152602001306001600160a01b03168152602001868152602001858152602001600081526020016005670de0b6b3a76400006109ef9190615238565b8152602001610a076005670de0b6b3a7640000615238565b90528051600180546001600160a01b03199081166001600160a01b0393841617825560208085015160028054841691861691909117905560408501516003805484169186169190911790556060850151600480548416918616919091179055608085015160058054909316941693909317905560a083015180519192610a93926006929091019061321c565b5060c08201518051610aaf91600684019160209091019061321c565b5060e082015160078201556101008201516008820155610120909101516009909101558015610ae4576000805461ff00191690555b505050505050565b60405163decebabf60e01b81523060048201523360248201526001600160a01b0382166044820152600c6064820152600b608482015273__$d86b9c30bfd55b3165d64d5ecc75b04e1d$__9063decebabf9060a40160006040518083038186803b158015610b5957600080fd5b505af4158015610b6d573d6000803e3d6000fd5b5050505050565b60118181548110610b8457600080fd5b600091825260209091200154905081565b600060128281548110610baa57610baa615312565b6000918252602090912001546001600160a01b031692915050565b6003546040516309687f0d60e01b81523060048201526001600160a01b039091166024820152600090819073__$275b760113b12808065d8bf3b162eb679a$__906309687f0d9060440160206040518083038186803b158015610c2757600080fd5b505af4158015610c3b573d6000803e3d6000fd5b505050506040513d601f19601f82011682018060405250810190610c5f9190614460565b6001600160a01b0384166000908152600c60205260409020549091501580610c85575080155b80610c905750600854155b15610c9e5750600092915050565b6008546001600160a01b0384166000908152600c6020526040902054670de0b6b3a76400009190610cd090839061525a565b610cda9190615238565b610ce4908361525a565b6105689190615238565b336000908152600c6020526040902054610d705760405162461bcd60e51b815260206004820152603b60248201527f596f752068617665206e6f206f7765726e7368697020696e207468697320776160448201527f6c6c65742c20796f752063616e206e6f742077697468647261772e00000000006064820152608401610613565b610d786132a0565b6003546040516309687f0d60e01b81523060048201526001600160a01b03909116602482015273__$275b760113b12808065d8bf3b162eb679a$__906309687f0d9060440160206040518083038186803b158015610dd557600080fd5b505af4158015610de9573d6000803e3d6000fd5b505050506040513d601f19601f82011682018060405250810190610e0d9190614460565b60208201819052610e1f903390610717565b6060820152815160011015610e765760405162461bcd60e51b815260206004820152601d60248201527f43616e206f6e6c79207377617020696e746f206f6e6520746f6b656e2e0000006044820152606401610613565b80606001518310610e8d5760608101518152610e91565b8281525b815115610ea5576002610100820152610eae565b60016101008201525b3361012082015260006101a08201523061014082015260405163422d2ce360e01b815273__$07eedf1b0a4d4a77e2aaa4d95c5dabe8ce$__9063422d2ce390610f04908490600c90600d90600190600401614eb1565b60006040518083038186803b158015610f1c57600080fd5b505af4158015610f30573d6000803e3d6000fd5b505050506040513d6000823e601f3d908101601f19168201604052610f58919081019061411b565b9050600073__$ed2462eab3ff9c975c68b79aa37f92f25b$__63702c530d30846040518363ffffffff1660e01b8152600401610f95929190614c12565b60006040518083038186803b158015610fad57600080fd5b505af4158015610fc1573d6000803e3d6000fd5b505050506040513d6000823e601f3d908101601f19168201604052610fe99190810190614413565b3360e082015290506001826101000151141561100d5761100881611d92565b611090565b6000601060008560008151811061102657611026615312565b60200260200101516001600160a01b03166001600160a01b031681526020019081526020016000205411801561105e5750600e546001145b1561106c5761100881611d92565b6110908360008151811061108257611082615312565b602002602001015182612202565b6003546040516309687f0d60e01b815230600482018190526001600160a01b03909216602482015273__$9135b0e836906f7830df806ed7f5f5e8eb$__9163a98762039173__$275b760113b12808065d8bf3b162eb679a$__906309687f0d9060440160206040518083038186803b15801561110b57600080fd5b505af415801561111f573d6000803e3d6000fd5b505050506040513d601f19601f820116820180604052508101906111439190614460565b6101008601516101c08701516011546040516001600160e01b031960e088901b1681526111799594939233929091600401614c36565b60006040518083038186803b15801561119157600080fd5b505af41580156111a5573d6000803e3d6000fd5b505050610100830151604080519182523360208301527f6629a3f1a10fbe8759a14f0ed4803cbf066386b20ce4a24fe56c5de03c12aac592500160405180910390a150505050565b601281815481106111fd57600080fd5b6000918252602090912001546001600160a01b0316905081565b604080516101408101825260008082526020820181905291810182905260608082018390526080820183905260a0820181905260c082015260e0810182905261010081018290526101208101919091526040805161014081018252600180546001600160a01b039081168352600254811660208401526003548116938301939093526004548316606083015260055490921660808201526006805491929160a0840191906112c490615290565b80601f01602080910402602001604051908101604052809291908181526020018280546112f090615290565b801561133d5780601f106113125761010080835404028352916020019161133d565b820191906000526020600020905b81548152906001019060200180831161132057829003601f168201915b5050505050815260200160068201805461135690615290565b80601f016020809104026020016040519081016040528092919081815260200182805461138290615290565b80156113cf5780601f106113a4576101008083540402835291602001916113cf565b820191906000526020600020905b8154815290600101906020018083116113b257829003601f168201915b505050505081526020016007820154815260200160088201548152602001600982015481525050905090565b600e81815481106111fd57600080fd5b6114136132a0565b61141b6130a4565b6003546001600160a01b0316815260603415611543576001546040805163cc093ec160e01b8152905173__$b2694b95fc2cf7d26c605f103d8fd6a536$__92637e665113928a928a926001600160a01b03169163cc093ec1916004808301926020929190829003018186803b15801561149357600080fd5b505afa1580156114a7573d6000803e3d6000fd5b505050506040513d601f19601f820116820180604052508101906114cb9190613e7d565b6040518463ffffffff1660e01b81526004016114e993929190614cb7565b60006040518083038186803b15801561150157600080fd5b505af4158015611515573d6000803e3d6000fd5b505050506040513d6000823e601f3d908101601f1916820160405261153d9190810190613fff565b90965094505b60408051610120810182526060808252602082018190528183018190528082015260006080820181905260a0820181905260c082018190526101008201523360e0820152905163288e09b760e01b815273__$07eedf1b0a4d4a77e2aaa4d95c5dabe8ce$__9063288e09b7906115ca908a908a908a90600c90600d90600190600401614db3565b60006040518083038186803b1580156115e257600080fd5b505af41580156115f6573d6000803e3d6000fd5b505050506040513d6000823e601f3d908101601f1916820160405261161e919081019061414f565b61010084015198509296509094509250905061163981611d92565b60008561179857604051600162230f8160e21b0319815273__$7f589f9ba993b48eab17aec71d81b78e51$__9063ff73c1fc9061168390601290601190600e908a90600401614dfe565b60206040518083038186803b15801561169b57600080fd5b505af41580156116af573d6000803e3d6000fd5b505050506040513d601f19601f820116820180604052508101906116d39190614100565b9050801561179357611793601280548060200260200160405190810160405280929190818152602001828054801561173457602002820191906000526020600020905b81546001600160a01b03168152600190910190602001808311611716575b5050505050601180548060200260200160405190810160405280929190818152602001828054801561178557602002820191906000526020600020905b815481526020019060010190808311611771575b506000935061070c92505050565b611a89565b6040516303c7ffab60e61b815273__$b2694b95fc2cf7d26c605f103d8fd6a536$__9063f1ffeac0906117d19087908790600401614ef3565b60006040518083038186803b1580156117e957600080fd5b505af41580156117fd573d6000803e3d6000fd5b505050506040513d6000823e601f3d908101601f1916820160405261182591908101906143ba565b600e5460405163c4bacdbd60e01b815292965090945073__$b2694b95fc2cf7d26c605f103d8fd6a536$__9163c4bacdbd91611868918891908890600401614f5a565b60006040518083038186803b15801561188057600080fd5b505af4158015611894573d6000803e3d6000fd5b505050506040513d6000823e601f3d908101601f191682016040526118bc91908101906141fb565b610380810151610420820151604051636c135ae760e11b815292965073__$b2694b95fc2cf7d26c605f103d8fd6a536$__9263d826b5ce92611908929091601190601290600401614e78565b60006040518083038186803b15801561192057600080fd5b505af4158015611934573d6000803e3d6000fd5b50505050611940613349565b6003546040516309687f0d60e01b815230600482018190526001600160a01b03909216602482015273__$9135b0e836906f7830df806ed7f5f5e8eb$__9163a98762039173__$275b760113b12808065d8bf3b162eb679a$__906309687f0d9060440160206040518083038186803b1580156119bb57600080fd5b505af41580156119cf573d6000803e3d6000fd5b505050506040513d601f19601f820116820180604052508101906119f39190614460565b6011546040516001600160e01b031960e086901b168152611a1e9392918d9133918991600401614c36565b60006040518083038186803b158015611a3657600080fd5b505af4158015611a4a573d6000803e3d6000fd5b5050604080518a81523360208201527f6629a3f1a10fbe8759a14f0ed4803cbf066386b20ce4a24fe56c5de03c12aac5935001905060405180910390a1505b5050505050505050565b600854600090611aa557506000919050565b6008546001600160a01b0383166000908152600c6020526040902054611ad490670de0b6b3a76400009061525a565b6107a59190615238565b611ae66130a4565b306104c08201526003546001600160a01b03168152604051632671818960e21b815273__$7f589f9ba993b48eab17aec71d81b78e51$__906399c6062490611b3e90879087908790600e906010908990600401614d4d565b60006040518083038186803b158015611b5657600080fd5b505af4158015611b6a573d6000803e3d6000fd5b505050506040513d6000823e601f3d908101601f19168201604052611b9291908101906141fb565b9050606073__$034600238d76b39751b6ccefa2eaeee90c$__633be0b2ec836040518263ffffffff1660e01b8152600401611bcd9190614ee0565b60006040518083038186803b158015611be557600080fd5b505af4158015611bf9573d6000803e3d6000fd5b505050506040513d6000823e601f3d908101601f19168201604052611c21919081019061422f565b9092509050611c3082826128dc565b611c3b828587612dfa565b611c43613349565b6003546040516309687f0d60e01b815230600482018190526001600160a01b03909216602482015273__$9135b0e836906f7830df806ed7f5f5e8eb$__9163a98762039173__$275b760113b12808065d8bf3b162eb679a$__906309687f0d9060440160206040518083038186803b158015611cbe57600080fd5b505af4158015611cd2573d6000803e3d6000fd5b505050506040513d601f19601f82011682018060405250810190611cf69190614460565b6011546040516001600160e01b031960e086901b168152611d219392918a9133918991600401614c36565b60006040518083038186803b158015611d3957600080fd5b505af4158015611d4d573d6000803e3d6000fd5b5050604080518781523360208201527f6629a3f1a10fbe8759a14f0ed4803cbf066386b20ce4a24fe56c5de03c12aac5935001905060405180910390a1505050505050565b3360e082015260038160800151146121ff5760005b8151518110156120e957600082600001518281518110611dc957611dc9615312565b6020026020010151905060006006811115611de657611de66152fc565b83608001511480611dfb575060048360800151145b15611f225773__$d86b9c30bfd55b3165d64d5ecc75b04e1d$__634626f70f84600001518481518110611e3057611e30615312565b602002602001015185604001518581518110611e4e57611e4e615312565b602090810291909101015160e0878101516040519185901b6001600160e01b03191682526001600160a01b03938416600483015260248201929092529082166044820152306064820152908416608482015260a40160006040518083038186803b158015611ebb57600080fd5b505af4158015611ecf573d6000803e3d6000fd5b50505050611f1d83600001518381518110611eec57611eec615312565b602002602001015184604001518481518110611f0a57611f0a615312565b60200260200101516010600f600e613003565b6120d6565b6001836080015114156120d657806001600160a01b031663a9059cbb8460e0015185604001518581518110611f5957611f59615312565b60200260200101516040518363ffffffff1660e01b8152600401611f929291906001600160a01b03929092168252602082015260400190565b602060405180830381600087803b158015611fac57600080fd5b505af1158015611fc0573d6000803e3d6000fd5b505050506040513d601f19601f82011682018060405250810190611fe49190614100565b5073__$9ab69f829bb734b874240665e4eacfd1ab$__634bfcdacc600f60008660000151868151811061201957612019615312565b60200260200101516001600160a01b03166001600160a01b03168152602001908152602001600020548560000151858151811061205857612058615312565b60200260200101518660400151868151811061207657612076615312565b60200260200101516010600f600e6040518763ffffffff1660e01b81526004016120a596959493929190615061565b60006040518083038186803b1580156120bd57600080fd5b505af41580156120d1573d6000803e3d6000fd5b505050505b50806120e1816152cb565b915050611da7565b5060005b8160200151518110156121fd5773__$9ab69f829bb734b874240665e4eacfd1ab$__634bfcdacc600f60008560200151858151811061212e5761212e615312565b60200260200101516001600160a01b03166001600160a01b03168152602001908152602001600020548460200151848151811061216d5761216d615312565b60200260200101518560600151858151811061218b5761218b615312565b60200260200101516010600f600e6040518763ffffffff1660e01b81526004016121ba96959493929190615061565b60006040518083038186803b1580156121d257600080fd5b505af41580156121e6573d6000803e3d6000fd5b5050505080806121f5906152cb565b9150506120ed565b505b50565b61220a6130a4565b6003546001600160a01b0316815260405163fe11a73960e01b8152606090819073__$ed2462eab3ff9c975c68b79aa37f92f25b$__9063fe11a7399061225a908890309033908a90600401614c83565b60006040518083038186803b15801561227257600080fd5b505af4158015612286573d6000803e3d6000fd5b505050506040513d6000823e601f3d908101601f191682016040526122ae919081019061422f565b6101808201519194509150156123fd576104a083015161048084015161018085015160405163a9059cbb60e01b81526001600160a01b0384169263a9059cbb9261230e926004016001600160a01b03929092168252602082015260400190565b602060405180830381600087803b15801561232857600080fd5b505af115801561233c573d6000803e3d6000fd5b505050506040513d601f19601f820116820180604052508101906123609190614100565b506104a0840180516001600160a01b03166000908152600f602081905260409182902054925161018088015192516312ff36b360e21b815273__$9ab69f829bb734b874240665e4eacfd1ab$__94634bfcdacc946123cb949193929091601091600e90600401615061565b60006040518083038186803b1580156123e357600080fd5b505af41580156123f7573d6000803e3d6000fd5b50505050505b8360c00151156125205760005b8361046001515181101561251e5773__$9ab69f829bb734b874240665e4eacfd1ab$__634bfcdacc600f6000876104600151858151811061244d5761244d615312565b60200260200101516001600160a01b03166001600160a01b0316815260200190815260200160002054866104600151848151811061248d5761248d615312565b602002602001015187610360015185815181106124ac576124ac615312565b60200260200101516010600f600e6040518763ffffffff1660e01b81526004016124db96959493929190615061565b60006040518083038186803b1580156124f357600080fd5b505af4158015612507573d6000803e3d6000fd5b505050508080612516906152cb565b91505061240a565b505b60008060005b8560400151821015611a8957600084838151811061254657612546615312565b6020026020010151905073__$d86b9c30bfd55b3165d64d5ecc75b04e1d$__6340b4e2ce826080015160008151811061258157612581615312565b602002602001015173__$d86b9c30bfd55b3165d64d5ecc75b04e1d$__6312e366aa85606001516040518263ffffffff1660e01b81526004016125c691815260200190565b60206040518083038186803b1580156125de57600080fd5b505af41580156125f2573d6000803e3d6000fd5b505050506040513d601f19601f820116820180604052508101906126169190613e7d565b308b6102e00151898151811061262e5761262e615312565b60209081029190910101516040516001600160e01b031960e087901b1681526001600160a01b039485166004820152928416602484015292166044820152606481019190915260840160006040518083038186803b15801561268f57600080fd5b505af41580156126a3573d6000803e3d6000fd5b50505050600073__$034600238d76b39751b6ccefa2eaeee90c$__63113eb64b83606001518a6102e0015188815181106126df576126df615312565b60200260200101518b6102e001518960016126fa9190615220565b8151811061270a5761270a615312565b60209081029190910181015160808801516104808f01516040805180820182526013546001600160a01b0390811682526014541695810195909552516001600160e01b031960e089901b1681526127679695943091600401615092565b60006040518083038186803b15801561277f57600080fd5b505af4158015612793573d6000803e3d6000fd5b505050506040513d6000823e601f3d908101601f191682016040526127bb91908101906140c4565b905073__$9ab69f829bb734b874240665e4eacfd1ab$__634bfcdacc600f600085608001516000815181106127f2576127f2615312565b60200260200101516001600160a01b03166001600160a01b0316815260200190815260200160002054846080015160008151811061283257612832615312565b60200260200101518460008151811061284d5761284d615312565b60200260200101516010600f600e6040518763ffffffff1660e01b815260040161287c96959493929190615061565b60006040518083038186803b15801561289457600080fd5b505af41580156128a8573d6000803e3d6000fd5b505050508460026128b99190615220565b94506128c6836001615220565b92506128d3846001615220565b93505050612526565b6000806000805b8560400151831015610ae457600085848151811061290357612903615312565b6020026020010151905060003090506000886103600151511115612a245773__$9ab69f829bb734b874240665e4eacfd1ab$__634bfcdacc600f6000856080015160008151811061295657612956615312565b60200260200101516001600160a01b03166001600160a01b0316815260200190815260200160002054846080015160008151811061299657612996615312565b60200260200101518b610360015187815181106129b5576129b5615312565b60200260200101516010600f600e6040518763ffffffff1660e01b81526004016129e496959493929190615061565b60006040518083038186803b1580156129fc57600080fd5b505af4158015612a10573d6000803e3d6000fd5b50505050826001612a219190615220565b92505b73__$d86b9c30bfd55b3165d64d5ecc75b04e1d$__6340b4e2ce8360800151600081518110612a5557612a55615312565b602002602001015173__$d86b9c30bfd55b3165d64d5ecc75b04e1d$__6312e366aa86606001516040518263ffffffff1660e01b8152600401612a9a91815260200190565b60206040518083038186803b158015612ab257600080fd5b505af4158015612ac6573d6000803e3d6000fd5b505050506040513d601f19601f82011682018060405250810190612aea9190613e7d565b308c6102e001518b81518110612b0257612b02615312565b60209081029190910101516040516001600160e01b031960e087901b1681526001600160a01b039485166004820152928416602484015292166044820152606481019190915260840160006040518083038186803b158015612b6357600080fd5b505af4158015612b77573d6000803e3d6000fd5b50505050600073__$034600238d76b39751b6ccefa2eaeee90c$__63113eb64b84606001518b6102e001518a81518110612bb357612bb3615312565b60200260200101518c6102e001518b6001612bce9190615220565b81518110612bde57612bde615312565b60209081029190910181015160808901516040805180820182526013546001600160a01b0390811682526014541694810194909452516001600160e01b031960e088901b168152612c389594938a91309190600401615092565b60006040518083038186803b158015612c5057600080fd5b505af4158015612c64573d6000803e3d6000fd5b505050506040513d6000823e601f3d908101601f19168201604052612c8c91908101906140c4565b905073__$9ab69f829bb734b874240665e4eacfd1ab$__634bfcdacc600f60008660800151600081518110612cc357612cc3615312565b60200260200101516001600160a01b03166001600160a01b03168152602001908152602001600020548560800151600081518110612d0357612d03615312565b602002602001015184600081518110612d1e57612d1e615312565b60200260200101516010600f600e6040518763ffffffff1660e01b8152600401612d4d96959493929190615061565b60006040518083038186803b158015612d6557600080fd5b505af4158015612d79573d6000803e3d6000fd5b50505060808401518051612dcb9250612d9490600190615279565b81518110612da457612da4615312565b60200260200101518260018451612dbb9190615279565b81518110611f0a57611f0a615312565b612dd6866001615220565b9550612de3876002615220565b9650612df0856001615220565b94505050506128e3565b604051632d2acfc960e01b815273__$7f589f9ba993b48eab17aec71d81b78e51$__90632d2acfc990612e3590869086908690600401614f21565b60006040518083038186803b158015612e4d57600080fd5b505af4158015612e61573d6000803e3d6000fd5b505050506040513d6000823e601f3d908101601f19168201604052612e8991908101906141fb565b9250826103800151516001600160401b03811115612ea957612ea9615328565b604051908082528060200260200182016040528015612ed2578160200160208202803683370190505b508051612ee7916011916020909101906133ae565b50826104200151516001600160401b03811115612f0657612f06615328565b604051908082528060200260200182016040528015612f2f578160200160208202803683370190505b508051612f44916012916020909101906133e8565b5060005b83610380015151811015610711578361038001518181518110612f6d57612f6d615312565b602002602001015160118281548110612f8857612f88615312565b90600052602060002001819055508361042001518181518110612fad57612fad615312565b602002602001015160128281548110612fc857612fc8615312565b600091825260209091200180546001600160a01b0319166001600160a01b039290921691909117905580612ffb816152cb565b915050612f48565b6001600160a01b03851660009081526020849052604090205461305d5780546001600160a01b0386166000818152602085815260408220849055600184018555848252902090910180546001600160a01b03191690911790555b6001600160a01b038516600090815260208490526040902054613081908590615220565b6001600160a01b0390951660009081526020939093525050604090209190915550565b60405180610580016040528060006001600160a01b03168152602001600081526020016000815260200160001515815260200160001515815260200160001515815260200160008152602001600081526020016000815260200160008152602001600081526020016000815260200160008152602001600081526020016000815260200160008152602001600081526020016000815260200160008152602001600081526020016000815260200160008152602001600081526020016060815260200160608152602001606081526020016060815260200160608152602001606081526020016060815260200160608152602001606081526020016060815260200160608152602001606081526020016060815260200160006001600160a01b0316815260200160006001600160a01b0316815260200160006001600160a01b03168152602001606081526020016000151581526020016060815260200160006001600160a01b031681526020016000151581525090565b82805461322890615290565b90600052602060002090601f01602090048101928261324a5760008555613290565b82601f1061326357805160ff1916838001178555613290565b82800160010185558215613290579182015b82811115613290578251825591602001919060010190613275565b5061329c92915061343d565b5090565b60405180610200016040528060008152602001600081526020016000815260200160008152602001600081526020016000815260200160008152602001600081526020016000815260200160006001600160a01b0316815260200160006001600160a01b0316815260200160006001600160a01b0316815260200160006001600160a01b0316815260200160001515815260200161333c613349565b8152602001606081525090565b604051806101800160405280600081526020016000815260200160008152602001600081526020016000815260200160008152602001600081526020016000815260200160008152602001600015158152602001600015158152602001606081525090565b8280548282559060005260206000209081019282156132905791602002820182811115613290578251825591602001919060010190613275565b828054828255906000526020600020908101928215613290579160200282015b8281111561329057825182546001600160a01b0319166001600160a01b03909116178255602090920191600190910190613408565b5b8082111561329c576000815560010161343e565b805161345d8161533e565b919050565b600082601f83011261347357600080fd5b81356020613488613483836151fd565b6151cd565b80838252828201915082860187848660051b89010111156134a857600080fd5b60005b858110156134d05781356134be8161533e565b845292840192908401906001016134ab565b5090979650505050505050565b600082601f8301126134ee57600080fd5b815160206134fe613483836151fd565b80838252828201915082860187848660051b890101111561351e57600080fd5b60005b858110156134d05781516135348161533e565b84529284019290840190600101613521565b600082601f83011261355757600080fd5b81516020613567613483836151fd565b828152818101908583016101608086028801850189101561358757600080fd5b6000805b8781101561362b5782848c0312156135a1578182fd5b6135a96150f5565b6135b285613452565b8152848801518882015260408086015190820152606080860151908201526080808601519082015260a0808601519082015260c0808601519082015260e080860151908201526101008086015190820152610120808601519082015261014080860151908201528652948601949282019260010161358b565b50929998505050505050505050565b600082601f83011261364b57600080fd5b8135602061365b613483836151fd565b80838252828201915082860187848660051b890101111561367b57600080fd5b60005b858110156134d05781358452928401929084019060010161367e565b600082601f8301126136ab57600080fd5b815160206136bb613483836151fd565b80838252828201915082860187848660051b89010111156136db57600080fd5b60005b858110156134d0578151845292840192908401906001016136de565b8051801515811461345d57600080fd5b600082601f83011261371b57600080fd5b81356001600160401b0381111561373457613734615328565b613747601f8201601f19166020016151cd565b81815284602083860101111561375c57600080fd5b816020850160208301376000918101602001919091529392505050565b6000610180828403121561378c57600080fd5b61379461511e565b9050815181526020820151602082015260408201516040820152606082015160608201526080820151608082015260a082015160a082015260c082015160c082015260e082015160e08201526101008083015181830152506101206137fa8184016136fa565b9082015261014061380c8382016136fa565b90820152610160828101516001600160401b0381111561382b57600080fd5b6138378582860161369a565b82840152505092915050565b6000610200828403121561385657600080fd5b61385e615141565b9050815181526020820151602082015260408201516040820152606082015160608201526080820151608082015260a082015160a082015260c082015160c082015260e082015160e08201526101008083015181830152506101206138c4818401613452565b908201526101406138d6838201613452565b908201526101606138e8838201613452565b908201526101806138fa838201613452565b908201526101a061390c8382016136fa565b908201526101c0828101516001600160401b038082111561392c57600080fd5b61393886838701613779565b838501526101e092508285015191508082111561395457600080fd5b50613837858286016134dd565b6000610580828403121561397457600080fd5b61397c615164565b905061398782613452565b815260208201516020820152604082015160408201526139a9606083016136fa565b60608201526139ba608083016136fa565b60808201526139cb60a083016136fa565b60a082015260c0828101519082015260e08083015190820152610100808301519082015261012080830151908201526101408083015190820152610160808301519082015261018080830151908201526101a080830151908201526101c080830151908201526101e08083015190820152610200808301519082015261022080830151908201526102408083015190820152610260808301519082015261028080830151908201526102a080830151908201526102c080830151908201526102e0808301516001600160401b0380821115613aa557600080fd5b613ab18683870161369a565b83850152610300925082850151915080821115613acd57600080fd5b613ad98683870161369a565b83850152610320925082850151915080821115613af557600080fd5b613b018683870161369a565b83850152610340925082850151915080821115613b1d57600080fd5b613b298683870161369a565b83850152610360925082850151915080821115613b4557600080fd5b613b518683870161369a565b83850152610380925082850151915080821115613b6d57600080fd5b613b798683870161369a565b838501526103a0925082850151915080821115613b9557600080fd5b613ba1868387016134dd565b838501526103c0925082850151915080821115613bbd57600080fd5b613bc9868387016134dd565b838501526103e0925082850151915080821115613be557600080fd5b613bf1868387016134dd565b83850152610400925082850151915080821115613c0d57600080fd5b613c19868387016134dd565b83850152610420925082850151915080821115613c3557600080fd5b613c41868387016134dd565b83850152610440925082850151915080821115613c5d57600080fd5b613c69868387016134dd565b83850152610460925082850151915080821115613c8557600080fd5b613c91868387016134dd565b838501526104809250613ca5838601613452565b838501526104a09250613cb9838601613452565b838501526104c09250613ccd838601613452565b838501526104e0925082850151915080821115613ce957600080fd5b613cf58683870161369a565b838501526105009250613d098386016136fa565b83850152610520925082850151915080821115613d2557600080fd5b50613d32858286016134dd565b828401525050610540613d46818401613452565b90820152610560613d588382016136fa565b9082015292915050565b60006101208284031215613d7557600080fd5b613d7d615187565b905081516001600160401b0380821115613d9657600080fd5b613da2858386016134dd565b83526020840151915080821115613db857600080fd5b613dc4858386016134dd565b60208401526040840151915080821115613ddd57600080fd5b613de98583860161369a565b60408401526060840151915080821115613e0257600080fd5b50613e0f8482850161369a565b60608301525060808201516080820152613e2b60a08301613452565b60a0820152613e3c60c083016136fa565b60c0820152613e4d60e08301613452565b60e0820152610100613d58818401613452565b600060208284031215613e7257600080fd5b81356105688161533e565b600060208284031215613e8f57600080fd5b81516105688161533e565b60008060408385031215613ead57600080fd5b8235613eb88161533e565b91506020830135613ec88161533e565b809150509250929050565b600080600080600060a08688031215613eeb57600080fd5b8535613ef68161533e565b945060208601356001600160401b0380821115613f1257600080fd5b613f1e89838a0161370a565b95506040880135915080821115613f3457600080fd5b50613f418882890161370a565b9350506060860135613f528161533e565b91506080860135613f628161533e565b809150509295509295909350565b60008060408385031215613f8357600080fd5b8235613f8e8161533e565b946020939093013593505050565b60008060408385031215613faf57600080fd5b82356001600160401b0380821115613fc657600080fd5b613fd286838701613462565b93506020850135915080821115613fe857600080fd5b50613ff58582860161363a565b9150509250929050565b6000806040838503121561401257600080fd5b82516001600160401b038082111561402957600080fd5b614035868387016134dd565b9350602085015191508082111561404b57600080fd5b50613ff58582860161369a565b60008060006060848603121561406d57600080fd5b83356001600160401b038082111561408457600080fd5b61409087838801613462565b945060208601359150808211156140a657600080fd5b506140b38682870161363a565b925050604084013590509250925092565b6000602082840312156140d657600080fd5b81516001600160401b038111156140ec57600080fd5b6140f88482850161369a565b949350505050565b60006020828403121561411257600080fd5b6107a2826136fa565b60006020828403121561412d57600080fd5b81516001600160401b0381111561414357600080fd5b6140f884828501613843565b6000806000806080858703121561416557600080fd5b84516001600160401b038082111561417c57600080fd5b61418888838901613843565b9550602087015191508082111561419e57600080fd5b6141aa88838901613961565b945060408701519150808211156141c057600080fd5b6141cc88838901613546565b935060608701519150808211156141e257600080fd5b506141ef87828801613d62565b91505092959194509250565b60006020828403121561420d57600080fd5b81516001600160401b0381111561422357600080fd5b6140f884828501613961565b6000806040838503121561424257600080fd5b82516001600160401b038082111561425957600080fd5b61426586838701613961565b935060209150818501518181111561427c57600080fd5b8501601f8101871361428d57600080fd5b805161429b613483826151fd565b8082825285820191508584018a878560051b87010111156142bb57600080fd5b60005b848110156143a9578151878111156142d557600080fd5b8601610140818e03601f190112156142ec57600080fd5b6142f46151aa565b89820151815260408201518a820152606082015160408201526080820151606082015260a08201518981111561432957600080fd5b6143378f8c838601016134dd565b60808301525061434960c083016136fa565b60a082015261435a60e083016136fa565b60c082015261010061436d8184016136fa565b60e0830152610120614380818501613452565b828401526143916101408501613452565b908301525085525092870192908701906001016142be565b50979a909950975050505050505050565b600080604083850312156143cd57600080fd5b82516001600160401b03808211156143e457600080fd5b6143f086838701613961565b9350602085015191508082111561440657600080fd5b50613ff585828601613546565b60006020828403121561442557600080fd5b81516001600160401b0381111561443b57600080fd5b6140f884828501613d62565b60006020828403121561445957600080fd5b5035919050565b60006020828403121561447257600080fd5b5051919050565b6000806040838503121561448c57600080fd5b8235915060208301356001600160401b038111156144a957600080fd5b613ff585828601613462565b600081518084526020808501945080840160005b838110156144ee5781516001600160a01b0316875295820195908201906001016144c9565b509495945050505050565b6000815480845260208085019450836000528060002060005b838110156144ee5781546001600160a01b031687529582019560019182019101614512565b600081518084526020808501945080840160005b838110156144ee57815180516001600160a01b03168852808401518885015260408082015190890152606080820151908901526080808201519089015260a0808201519089015260c0808201519089015260e08082015190890152610100808201519089015261012080820151908901526101409081015190880152610160909601959082019060010161454b565b600081518084526020808501945080840160005b838110156144ee578151875295820195908201906001016145ee565b6000815180845260005b8181101561463057602081850181015186830182015201614614565b81811115614642576000602083870101525b50601f01601f19169290920160200192915050565b6000610180825184526020830151602085015260408301516040850152606083015160608501526080830151608085015260a083015160a085015260c083015160c085015260e083015160e0850152610100808401518186015250610120808401516146c68287018215159052565b505061014083810151151590850152610160808401518186018390526146ee838701826145da565b9695505050505050565b6000610200825184526020830151602085015260408301516040850152606083015160608501526080830151608085015260a083015160a085015260c083015160c085015260e083015160e08501526101008084015181860152506101208084015161476e828701826001600160a01b03169052565b5050610140838101516001600160a01b03908116918601919091526101608085015182169086015261018080850151909116908501526101a0808401511515908501526101c0808401518186018390526147ca83870182614657565b925050506101e080840151858303828701526146ee83826144b5565b80516001600160a01b0316825260006105806020830151602085015260408301516040850152606083015161481f606086018215159052565b506080830151614833608086018215159052565b5060a083015161484760a086018215159052565b5060c0838101519085015260e08084015190850152610100808401519085015261012080840151908501526101408084015190850152610160808401519085015261018080840151908501526101a080840151908501526101c080840151908501526101e08084015190850152610200808401519085015261022080840151908501526102408084015190850152610260808401519085015261028080840151908501526102a080840151908501526102c080840151908501526102e08084015181860183905261491a838701826145da565b92505050610300808401518583038287015261493683826145da565b92505050610320808401518583038287015261495283826145da565b92505050610340808401518583038287015261496e83826145da565b92505050610360808401518583038287015261498a83826145da565b9250505061038080840151858303828701526149a683826145da565b925050506103a080840151858303828701526149c283826144b5565b925050506103c080840151858303828701526149de83826144b5565b925050506103e080840151858303828701526149fa83826144b5565b925050506104008084015185830382870152614a1683826144b5565b925050506104208084015185830382870152614a3283826144b5565b925050506104408084015185830382870152614a4e83826144b5565b925050506104608084015185830382870152614a6a83826144b5565b9250505061048080840151614a89828701826001600160a01b03169052565b50506104a0838101516001600160a01b0381168683015250506104c0838101516001600160a01b0381168683015250506104e08084015185830382870152614ad183826145da565b9250505061050080840151614ae98287018215159052565b50506105208084015185830382870152614b0383826144b5565b9250505061054080840151614b22828701826001600160a01b03169052565b505061056083810151801515868301525b5090949350505050565b60006101208251818552614b53828601826144b5565b91505060208301518482036020860152614b6d82826144b5565b91505060408301518482036040860152614b8782826145da565b91505060608301518482036060860152614ba182826145da565b9150506080830151608085015260a0830151614bc860a08601826001600160a01b03169052565b5060c0830151614bdc60c086018215159052565b5060e0830151614bf760e08601826001600160a01b03169052565b50610100838101516001600160a01b03811686830152614b33565b6001600160a01b03831681526040602082018190526000906140f8908301846146f8565b6001600160a01b03878116825260208201879052604082018690528416606082015260c060808201819052600090614c7090830185614657565b90508260a0830152979650505050505050565b6001600160a01b0385811682528481166020830152831660408201526080606082018190526000906146ee90830184614b3d565b606081526000614cca60608301866144b5565b8281036020840152614cdc81866145da565b91505060018060a01b0383166040830152949350505050565b608081526000614d0860808301876144b5565b8281036020840152614d1a81876145da565b90508281036040840152614d2e81866144f9565b90508281036060840152614d4281856147e6565b979650505050505050565b60c081526000614d6060c08301896144b5565b8281036020840152614d7281896145da565b90508660408401528281036060840152614d8c81876144f9565b905084608084015282810360a0840152614da681856147e6565b9998505050505050505050565b60c081526000614dc660c08301896144b5565b8281036020840152614dd881896145da565b9150508560408301528460608301528360808301528260a0830152979650505050505050565b608081526000614e1160808301876144f9565b60208382038185015281875480845282840191508860005282600020935060005b81811015614e4e57845483526001948501949284019201614e32565b50508481036040860152614e6281886144f9565b925050508281036060840152614d4281856147e6565b608081526000614e8b60808301876145da565b8281036020840152614e9d81876144b5565b604084019590955250506060015292915050565b608081526000614ec460808301876146f8565b6020830195909552506040810192909252606090910152919050565b6020815260006107a260208301846147e6565b604081526000614f0660408301856147e6565b8281036020840152614f188185614537565b95945050505050565b606081526000614f3460608301866147e6565b8281036020840152614f4681866145da565b905082810360408401526146ee81856144b5565b606081526000614f6d60608301866147e6565b84602084015282810360408401526146ee8185614537565b60208152614f9f6020820183516001600160a01b03169052565b60006020830151614fbb60408401826001600160a01b03169052565b5060408301516001600160a01b03811660608401525060608301516001600160a01b03811660808401525060808301516001600160a01b03811660a08401525060a08301516101408060c085015261501761016085018361460a565b915060c0850151601f198584030160e0860152615034838261460a565b60e08701516101008781019190915287015161012080880191909152909601519190940152509192915050565b9586526001600160a01b0394909416602086015260408501929092526060840152608083015260a082015260c00190565b60006101008983528860208401528760408401528060608401526150b8818401886144b5565b6001600160a01b03968716608085015294861660a084015250508151841660c082015260209091015190921660e090920191909152949350505050565b60405161016081016001600160401b038111828210171561511857615118615328565b60405290565b60405161018081016001600160401b038111828210171561511857615118615328565b60405161020081016001600160401b038111828210171561511857615118615328565b60405161058081016001600160401b038111828210171561511857615118615328565b60405161012081016001600160401b038111828210171561511857615118615328565b60405161014081016001600160401b038111828210171561511857615118615328565b604051601f8201601f191681016001600160401b03811182821017156151f5576151f5615328565b604052919050565b60006001600160401b0382111561521657615216615328565b5060051b60200190565b60008219821115615233576152336152e6565b500190565b60008261525557634e487b7160e01b600052601260045260246000fd5b500490565b6000816000190483118215151615615274576152746152e6565b500290565b60008282101561528b5761528b6152e6565b500390565b600181811c908216806152a457607f821691505b602082108114156152c557634e487b7160e01b600052602260045260246000fd5b50919050565b60006000198214156152df576152df6152e6565b5060010190565b634e487b7160e01b600052601160045260246000fd5b634e487b7160e01b600052602160045260246000fd5b634e487b7160e01b600052603260045260246000fd5b634e487b7160e01b600052604160045260246000fd5b6001600160a01b03811681146121ff57600080fdfea2646970667358221220e92a90aebab6bbde57e2421990884e445897f3903b57eb29cfa578c9f0f6978764736f6c63430008070033",
  "linkReferences": {
    "contracts/DepositWithdrawLibraries/DepositLibrary.sol": {
      "DepositLibrary": [
        {
          "length": 20,
          "start": 5222
        },
        {
          "length": 20,
          "start": 6087
        },
        {
          "length": 20,
          "start": 6237
        },
        {
          "length": 20,
          "start": 6394
        }
      ]
    },
    "contracts/DepositWithdrawLibraries/WithdrawLibrary.sol": {
      "WithdrawLibrary": [
        {
          "length": 20,
          "start": 3966
        },
        {
          "length": 20,
          "start": 8780
        }
      ]
    },
    "contracts/Pricing/PricesLibrary.sol": {
      "PricesLibrary": [
        {
          "length": 20,
          "start": 3090
        },
        {
          "length": 20,
          "start": 3520
        },
        {
          "length": 20,
          "start": 4342
        },
        {
          "length": 20,
          "start": 6566
        },
        {
          "length": 20,
          "start": 7337
        }
      ]
    },
    "contracts/ProsperoWalletLibraries/EventsLibrary.sol": {
      "EventsLibrary": [
        {
          "length": 20,
          "start": 4314
        },
        {
          "length": 20,
          "start": 6538
        },
        {
          "length": 20,
          "start": 7309
        }
      ]
    },
    "contracts/ProsperoWalletLibraries/PercentageOwnershipLibrary.sol": {
      "PercentageOwnershipLibrary": [
        {
          "length": 20,
          "start": 3827
        },
        {
          "length": 20,
          "start": 5557
        }
      ]
    },
    "contracts/ProsperoWalletLibraries/ProsperoWalletLibrary.sol": {
      "ProsperoWalletLibrary": [
        {
          "length": 20,
          "start": 2884
        },
        {
          "length": 20,
          "start": 7714
        },
        {
          "length": 20,
          "start": 9586
        },
        {
          "length": 20,
          "start": 9643
        },
        {
          "length": 20,
          "start": 10822
        },
        {
          "length": 20,
          "start": 10879
        }
      ]
    },
    "contracts/ProsperoWalletLibraries/TokenBalancesLibrary.sol": {
      "TokenBalancesLibrary": [
        {
          "length": 20,
          "start": 8199
        },
        {
          "length": 20,
          "start": 8476
        },
        {
          "length": 20,
          "start": 9146
        },
        {
          "length": 20,
          "start": 9274
        },
        {
          "length": 20,
          "start": 10207
        },
        {
          "length": 20,
          "start": 10563
        },
        {
          "length": 20,
          "start": 11440
        }
      ]
    },
    "contracts/RebalanceLibraries/RebalanceHelperLibrary.sol": {
      "RebalanceHelperLibrary": [
        {
          "length": 20,
          "start": 1639
        },
        {
          "length": 20,
          "start": 5746
        },
        {
          "length": 20,
          "start": 6954
        },
        {
          "length": 20,
          "start": 11817
        }
      ]
    },
    "contracts/RebalanceLibraries/RouteOptimizerLibrary.sol": {
      "RouteOptimizerLibrary": [
        {
          "length": 20,
          "start": 7096
        },
        {
          "length": 20,
          "start": 9931
        },
        {
          "length": 20,
          "start": 11167
        }
      ]
    }
  },
  "deployedLinkReferences": {
    "contracts/DepositWithdrawLibraries/DepositLibrary.sol": {
      "DepositLibrary": [
        {
          "length": 20,
          "start": 5190
        },
        {
          "length": 20,
          "start": 6055
        },
        {
          "length": 20,
          "start": 6205
        },
        {
          "length": 20,
          "start": 6362
        }
      ]
    },
    "contracts/DepositWithdrawLibraries/WithdrawLibrary.sol": {
      "WithdrawLibrary": [
        {
          "length": 20,
          "start": 3934
        },
        {
          "length": 20,
          "start": 8748
        }
      ]
    },
    "contracts/Pricing/PricesLibrary.sol": {
      "PricesLibrary": [
        {
          "length": 20,
          "start": 3058
        },
        {
          "length": 20,
          "start": 3488
        },
        {
          "length": 20,
          "start": 4310
        },
        {
          "length": 20,
          "start": 6534
        },
        {
          "length": 20,
          "start": 7305
        }
      ]
    },
    "contracts/ProsperoWalletLibraries/EventsLibrary.sol": {
      "EventsLibrary": [
        {
          "length": 20,
          "start": 4282
        },
        {
          "length": 20,
          "start": 6506
        },
        {
          "length": 20,
          "start": 7277
        }
      ]
    },
    "contracts/ProsperoWalletLibraries/PercentageOwnershipLibrary.sol": {
      "PercentageOwnershipLibrary": [
        {
          "length": 20,
          "start": 3795
        },
        {
          "length": 20,
          "start": 5525
        }
      ]
    },
    "contracts/ProsperoWalletLibraries/ProsperoWalletLibrary.sol": {
      "ProsperoWalletLibrary": [
        {
          "length": 20,
          "start": 2852
        },
        {
          "length": 20,
          "start": 7682
        },
        {
          "length": 20,
          "start": 9554
        },
        {
          "length": 20,
          "start": 9611
        },
        {
          "length": 20,
          "start": 10790
        },
        {
          "length": 20,
          "start": 10847
        }
      ]
    },
    "contracts/ProsperoWalletLibraries/TokenBalancesLibrary.sol": {
      "TokenBalancesLibrary": [
        {
          "length": 20,
          "start": 8167
        },
        {
          "length": 20,
          "start": 8444
        },
        {
          "length": 20,
          "start": 9114
        },
        {
          "length": 20,
          "start": 9242
        },
        {
          "length": 20,
          "start": 10175
        },
        {
          "length": 20,
          "start": 10531
        },
        {
          "length": 20,
          "start": 11408
        }
      ]
    },
    "contracts/RebalanceLibraries/RebalanceHelperLibrary.sol": {
      "RebalanceHelperLibrary": [
        {
          "length": 20,
          "start": 1607
        },
        {
          "length": 20,
          "start": 5714
        },
        {
          "length": 20,
          "start": 6922
        },
        {
          "length": 20,
          "start": 11785
        }
      ]
    },
    "contracts/RebalanceLibraries/RouteOptimizerLibrary.sol": {
      "RouteOptimizerLibrary": [
        {
          "length": 20,
          "start": 7064
        },
        {
          "length": 20,
          "start": 9899
        },
        {
          "length": 20,
          "start": 11135
        }
      ]
    }
  }
}