{
  "_format": "hh-sol-artifact-1",
  "contractName": "ProsperoBeaconFactory",
  "sourceName": "contracts/ProsperoBeaconFactory.sol",
  "abi": [
    {
      "inputs": [
        {
          "internalType": "address",
          "name": "implementation_",
          "type": "address"
        },
        {
          "internalType": "address",
          "name": "_prosperoAdminAddress",
          "type": "address"
        },
        {
          "internalType": "address",
          "name": "_miniChefAddress",
          "type": "address"
        },
        {
          "internalType": "address",
          "name": "_prosperoTokenAddress",
          "type": "address"
        },
        {
          "internalType": "address",
          "name": "_prosperoFeeToLiquidityAddress",
          "type": "address"
        },
        {
          "internalType": "address",
          "name": "_prosperoDataAddress",
          "type": "address"
        },
        {
          "internalType": "address",
          "name": "_SUBNET_HELPER_CONTRACT_ADDRESS",
          "type": "address"
        },
        {
          "internalType": "address",
          "name": "_wrappedProsperoSubnetAddress",
          "type": "address"
        },
        {
          "internalType": "address",
          "name": "_prosperoPricesAddress",
          "type": "address"
        }
      ],
      "stateMutability": "nonpayable",
      "type": "constructor"
    },
    {
      "anonymous": false,
      "inputs": [
        {
          "indexed": false,
          "internalType": "uint256",
          "name": "methodType",
          "type": "uint256"
        },
        {
          "indexed": false,
          "internalType": "address",
          "name": "eoaAddressLeaderTrailer",
          "type": "address"
        },
        {
          "indexed": false,
          "internalType": "address payable",
          "name": "prosperoWalletAddress",
          "type": "address"
        }
      ],
      "name": "FinishedMethodFactory",
      "type": "event"
    },
    {
      "anonymous": false,
      "inputs": [
        {
          "indexed": false,
          "internalType": "address[]",
          "name": "tokens",
          "type": "address[]"
        },
        {
          "indexed": false,
          "internalType": "address[]",
          "name": "users",
          "type": "address[]"
        },
        {
          "indexed": false,
          "internalType": "uint256[]",
          "name": "balances",
          "type": "uint256[]"
        },
        {
          "indexed": false,
          "internalType": "uint256[]",
          "name": "percentageOwnerships",
          "type": "uint256[]"
        },
        {
          "indexed": false,
          "internalType": "uint256[]",
          "name": "usdInvested",
          "type": "uint256[]"
        },
        {
          "indexed": false,
          "internalType": "uint256[]",
          "name": "usersValues",
          "type": "uint256[]"
        },
        {
          "indexed": false,
          "internalType": "address[]",
          "name": "addressVars",
          "type": "address[]"
        },
        {
          "indexed": false,
          "internalType": "uint256[]",
          "name": "intVars",
          "type": "uint256[]"
        },
        {
          "indexed": false,
          "internalType": "string",
          "name": "walletName",
          "type": "string"
        }
      ],
      "name": "LatestBalancesFactory",
      "type": "event"
    },
    {
      "inputs": [],
      "name": "MINICHEF_ADDRESS",
      "outputs": [
        {
          "internalType": "address",
          "name": "",
          "type": "address"
        }
      ],
      "stateMutability": "view",
      "type": "function"
    },
    {
      "inputs": [
        {
          "internalType": "uint256",
          "name": "",
          "type": "uint256"
        }
      ],
      "name": "POSSIBLE_ROUTING_TOKENS",
      "outputs": [
        {
          "internalType": "address",
          "name": "",
          "type": "address"
        }
      ],
      "stateMutability": "view",
      "type": "function"
    },
    {
      "inputs": [],
      "name": "PROSPERO_PRICES_ADDRESS",
      "outputs": [
        {
          "internalType": "address",
          "name": "",
          "type": "address"
        }
      ],
      "stateMutability": "view",
      "type": "function"
    },
    {
      "inputs": [],
      "name": "PROSPERO_TOKEN_ADDRESS",
      "outputs": [
        {
          "internalType": "address",
          "name": "",
          "type": "address"
        }
      ],
      "stateMutability": "view",
      "type": "function"
    },
    {
      "inputs": [],
      "name": "ROUTING_TOKEN_ROUTES_ARRAY_LENGTH",
      "outputs": [
        {
          "internalType": "uint256",
          "name": "",
          "type": "uint256"
        }
      ],
      "stateMutability": "view",
      "type": "function"
    },
    {
      "inputs": [],
      "name": "SUBNET_HELPER_CONTRACT_ADDRESS",
      "outputs": [
        {
          "internalType": "address",
          "name": "",
          "type": "address"
        }
      ],
      "stateMutability": "view",
      "type": "function"
    },
    {
      "inputs": [
        {
          "internalType": "uint256",
          "name": "",
          "type": "uint256"
        }
      ],
      "name": "TOKENS_PAIRING_WITH_PROSPERO_FOR_LIQUIDITY",
      "outputs": [
        {
          "internalType": "address",
          "name": "",
          "type": "address"
        }
      ],
      "stateMutability": "view",
      "type": "function"
    },
    {
      "inputs": [],
      "name": "WRAPPED_PROSPERO_SUBNET_ADDRESS",
      "outputs": [
        {
          "internalType": "address",
          "name": "",
          "type": "address"
        }
      ],
      "stateMutability": "view",
      "type": "function"
    },
    {
      "inputs": [
        {
          "internalType": "uint256",
          "name": "",
          "type": "uint256"
        }
      ],
      "name": "allProsperoWallets",
      "outputs": [
        {
          "internalType": "address",
          "name": "",
          "type": "address"
        }
      ],
      "stateMutability": "view",
      "type": "function"
    },
    {
      "inputs": [],
      "name": "call_addDeployerAndFundWithStartingTokens",
      "outputs": [],
      "stateMutability": "nonpayable",
      "type": "function"
    },
    {
      "inputs": [
        {
          "components": [
            {
              "internalType": "address[]",
              "name": "tokens",
              "type": "address[]"
            },
            {
              "internalType": "address[]",
              "name": "users",
              "type": "address[]"
            },
            {
              "internalType": "address[]",
              "name": "addressVars",
              "type": "address[]"
            },
            {
              "internalType": "address",
              "name": "messageSender",
              "type": "address"
            },
            {
              "internalType": "address",
              "name": "leader",
              "type": "address"
            },
            {
              "internalType": "address payable",
              "name": "ProsperoWalletAddress",
              "type": "address"
            },
            {
              "internalType": "uint256[]",
              "name": "percentageOwnerships",
              "type": "uint256[]"
            },
            {
              "internalType": "uint256[]",
              "name": "usdInvested",
              "type": "uint256[]"
            },
            {
              "internalType": "uint256[]",
              "name": "balances",
              "type": "uint256[]"
            },
            {
              "internalType": "uint256[]",
              "name": "usersValues",
              "type": "uint256[]"
            },
            {
              "internalType": "uint256[]",
              "name": "intVars",
              "type": "uint256[]"
            },
            {
              "internalType": "uint256",
              "name": "methodType",
              "type": "uint256"
            },
            {
              "internalType": "uint256",
              "name": "totalValueOfPortfolio",
              "type": "uint256"
            },
            {
              "internalType": "uint256",
              "name": "usdFeeAmountProspero",
              "type": "uint256"
            },
            {
              "internalType": "uint256",
              "name": "usdFeeAmountLeader",
              "type": "uint256"
            },
            {
              "internalType": "string",
              "name": "walletName",
              "type": "string"
            },
            {
              "internalType": "string",
              "name": "profilePictureUrl",
              "type": "string"
            }
          ],
          "internalType": "struct ProsperoWalletStructs.LatestBalancesStruct",
          "name": "latestBalancesStruct",
          "type": "tuple"
        }
      ],
      "name": "emitLatestBalances",
      "outputs": [],
      "stateMutability": "nonpayable",
      "type": "function"
    },
    {
      "inputs": [],
      "name": "getAllProsperoWallets",
      "outputs": [
        {
          "internalType": "address[]",
          "name": "",
          "type": "address[]"
        }
      ],
      "stateMutability": "view",
      "type": "function"
    },
    {
      "inputs": [],
      "name": "getBeacon",
      "outputs": [
        {
          "internalType": "address",
          "name": "",
          "type": "address"
        }
      ],
      "stateMutability": "view",
      "type": "function"
    },
    {
      "inputs": [
        {
          "internalType": "address",
          "name": "_ProsperoWallet",
          "type": "address"
        }
      ],
      "name": "getLeaderAndTrailersForWallet",
      "outputs": [
        {
          "internalType": "address[]",
          "name": "",
          "type": "address[]"
        }
      ],
      "stateMutability": "view",
      "type": "function"
    },
    {
      "inputs": [
        {
          "internalType": "address",
          "name": "_ProsperoWallet",
          "type": "address"
        },
        {
          "internalType": "uint256",
          "name": "_index",
          "type": "uint256"
        }
      ],
      "name": "getLeaderAndTrailersForWalletAtIndex",
      "outputs": [
        {
          "internalType": "address",
          "name": "",
          "type": "address"
        }
      ],
      "stateMutability": "view",
      "type": "function"
    },
    {
      "inputs": [
        {
          "internalType": "address",
          "name": "_ProsperoWallet",
          "type": "address"
        }
      ],
      "name": "getLeaderAndTrailersForWalletLength",
      "outputs": [
        {
          "internalType": "uint256",
          "name": "",
          "type": "uint256"
        }
      ],
      "stateMutability": "view",
      "type": "function"
    },
    {
      "inputs": [],
      "name": "getPOSSIBLE_ROUTING_TOKENS",
      "outputs": [
        {
          "internalType": "address[]",
          "name": "",
          "type": "address[]"
        }
      ],
      "stateMutability": "view",
      "type": "function"
    },
    {
      "inputs": [
        {
          "internalType": "uint256",
          "name": "i",
          "type": "uint256"
        }
      ],
      "name": "getPOSSIBLE_ROUTING_TOKENS_AT",
      "outputs": [
        {
          "internalType": "address",
          "name": "",
          "type": "address"
        }
      ],
      "stateMutability": "view",
      "type": "function"
    },
    {
      "inputs": [],
      "name": "getPOSSIBLE_ROUTING_TOKENS_LENGTH",
      "outputs": [
        {
          "internalType": "uint256",
          "name": "",
          "type": "uint256"
        }
      ],
      "stateMutability": "view",
      "type": "function"
    },
    {
      "inputs": [],
      "name": "getTokensPairingWithProsperoForLiquidityLength",
      "outputs": [
        {
          "internalType": "uint256",
          "name": "",
          "type": "uint256"
        }
      ],
      "stateMutability": "nonpayable",
      "type": "function"
    },
    {
      "inputs": [
        {
          "internalType": "address",
          "name": "_ProsperoWallet",
          "type": "address"
        }
      ],
      "name": "getTrailersFollowingProsperoWallet",
      "outputs": [
        {
          "internalType": "address[]",
          "name": "",
          "type": "address[]"
        }
      ],
      "stateMutability": "view",
      "type": "function"
    },
    {
      "inputs": [
        {
          "internalType": "address",
          "name": "_user",
          "type": "address"
        }
      ],
      "name": "getWalletTypes",
      "outputs": [
        {
          "internalType": "uint256[]",
          "name": "",
          "type": "uint256[]"
        }
      ],
      "stateMutability": "view",
      "type": "function"
    },
    {
      "inputs": [
        {
          "internalType": "address",
          "name": "_user",
          "type": "address"
        }
      ],
      "name": "getWallets",
      "outputs": [
        {
          "internalType": "address[]",
          "name": "",
          "type": "address[]"
        }
      ],
      "stateMutability": "view",
      "type": "function"
    },
    {
      "inputs": [
        {
          "internalType": "address",
          "name": "thisAddress",
          "type": "address"
        }
      ],
      "name": "isATokenPairingWithProsperoForLiquidity_function",
      "outputs": [
        {
          "internalType": "bool",
          "name": "",
          "type": "bool"
        }
      ],
      "stateMutability": "nonpayable",
      "type": "function"
    },
    {
      "inputs": [
        {
          "internalType": "address",
          "name": "_ProsperoWallet",
          "type": "address"
        }
      ],
      "name": "isProsperoWallet",
      "outputs": [
        {
          "internalType": "bool",
          "name": "",
          "type": "bool"
        }
      ],
      "stateMutability": "nonpayable",
      "type": "function"
    },
    {
      "inputs": [
        {
          "internalType": "address",
          "name": "",
          "type": "address"
        },
        {
          "internalType": "uint256",
          "name": "",
          "type": "uint256"
        }
      ],
      "name": "leaderAndTrailersFollowingLeader",
      "outputs": [
        {
          "internalType": "address",
          "name": "",
          "type": "address"
        }
      ],
      "stateMutability": "view",
      "type": "function"
    },
    {
      "inputs": [
        {
          "internalType": "string",
          "name": "_walletName",
          "type": "string"
        },
        {
          "internalType": "uint256",
          "name": "leaderPercentageFee",
          "type": "uint256"
        }
      ],
      "name": "newProsperoWallet",
      "outputs": [],
      "stateMutability": "payable",
      "type": "function"
    },
    {
      "inputs": [
        {
          "internalType": "address payable",
          "name": "_ProsperoWallet",
          "type": "address"
        }
      ],
      "name": "newTrailerWallet",
      "outputs": [],
      "stateMutability": "payable",
      "type": "function"
    },
    {
      "inputs": [
        {
          "internalType": "uint256",
          "name": "",
          "type": "uint256"
        }
      ],
      "name": "pangolinRoutingTokens",
      "outputs": [
        {
          "internalType": "address",
          "name": "",
          "type": "address"
        }
      ],
      "stateMutability": "view",
      "type": "function"
    },
    {
      "inputs": [],
      "name": "prosperoDataAddress",
      "outputs": [
        {
          "internalType": "address",
          "name": "",
          "type": "address"
        }
      ],
      "stateMutability": "view",
      "type": "function"
    },
    {
      "inputs": [],
      "name": "prosperoFeeToLiquidityAddress",
      "outputs": [
        {
          "internalType": "address",
          "name": "",
          "type": "address"
        }
      ],
      "stateMutability": "view",
      "type": "function"
    },
    {
      "inputs": [
        {
          "components": [
            {
              "internalType": "contract IMiniChefV2",
              "name": "miniChefV2",
              "type": "address"
            },
            {
              "internalType": "contract IPangolinRouter",
              "name": "pangolinRouter",
              "type": "address"
            },
            {
              "internalType": "contract IJoeRouter02",
              "name": "traderJoeRouter",
              "type": "address"
            },
            {
              "internalType": "uint256",
              "name": "otherTokenAdded",
              "type": "uint256"
            },
            {
              "internalType": "uint256",
              "name": "prosperoAdded",
              "type": "uint256"
            },
            {
              "internalType": "uint256",
              "name": "pglReceived",
              "type": "uint256"
            },
            {
              "internalType": "address[]",
              "name": "tokensFeeProspero",
              "type": "address[]"
            },
            {
              "internalType": "uint256[]",
              "name": "feeToLiquidityBalancesBefore",
              "type": "uint256[]"
            },
            {
              "internalType": "uint256[]",
              "name": "balancesFeesBefore",
              "type": "uint256[]"
            },
            {
              "internalType": "uint256[]",
              "name": "balancePortfolioTokensBefore",
              "type": "uint256[]"
            },
            {
              "internalType": "uint256[]",
              "name": "rawBalancesInWalletBeforeFeeToPoolTokens",
              "type": "uint256[]"
            },
            {
              "internalType": "uint256[]",
              "name": "balanceInFeesBeforeSwap",
              "type": "uint256[]"
            },
            {
              "internalType": "uint256[]",
              "name": "amountsToAddAsLiquidity",
              "type": "uint256[]"
            },
            {
              "internalType": "address[]",
              "name": "amountsToAddAsLiquidityTokens",
              "type": "address[]"
            },
            {
              "internalType": "uint256[]",
              "name": "amountsActuallyAddedAsLiquidity",
              "type": "uint256[]"
            },
            {
              "internalType": "uint256[]",
              "name": "remixFeeToPoolGoalPercentages",
              "type": "uint256[]"
            },
            {
              "internalType": "address[]",
              "name": "remixFeeToPoolGoalTokens",
              "type": "address[]"
            },
            {
              "internalType": "address payable",
              "name": "ProsperoWalletAddress",
              "type": "address"
            },
            {
              "internalType": "address",
              "name": "thisEOAAddress",
              "type": "address"
            },
            {
              "internalType": "address",
              "name": "ProsperoBeaconFactoryAddress",
              "type": "address"
            },
            {
              "internalType": "address",
              "name": "prosperoFeeToLiquidityContractAddress",
              "type": "address"
            },
            {
              "internalType": "address",
              "name": "otherToken",
              "type": "address"
            },
            {
              "internalType": "address",
              "name": "prosperoTokenAddress",
              "type": "address"
            },
            {
              "internalType": "address",
              "name": "prosperoPricesAddress",
              "type": "address"
            },
            {
              "internalType": "uint256",
              "name": "pangolinHarvested",
              "type": "uint256"
            },
            {
              "internalType": "uint256",
              "name": "amountToAddLiquidityProspero",
              "type": "uint256"
            },
            {
              "internalType": "uint256",
              "name": "amountToAddLiquidityOtherToken",
              "type": "uint256"
            },
            {
              "internalType": "uint256",
              "name": "sizeOfPortfolioFeeArray",
              "type": "uint256"
            }
          ],
          "internalType": "struct ProsperoWalletStructs.FeePoolStruct",
          "name": "feePoolStruct",
          "type": "tuple"
        }
      ],
      "name": "prosperoFeeToLiquidityDeposit",
      "outputs": [],
      "stateMutability": "nonpayable",
      "type": "function"
    },
    {
      "inputs": [
        {
          "internalType": "address",
          "name": "",
          "type": "address"
        },
        {
          "internalType": "address",
          "name": "",
          "type": "address"
        },
        {
          "internalType": "uint256",
          "name": "",
          "type": "uint256"
        }
      ],
      "name": "routeForPairsThree",
      "outputs": [
        {
          "internalType": "address",
          "name": "",
          "type": "address"
        }
      ],
      "stateMutability": "view",
      "type": "function"
    },
    {
      "inputs": [
        {
          "internalType": "address",
          "name": "",
          "type": "address"
        }
      ],
      "name": "routeForPairsTwo",
      "outputs": [
        {
          "internalType": "uint256",
          "name": "bestAmountOut",
          "type": "uint256"
        },
        {
          "internalType": "uint256",
          "name": "bestRouteLength",
          "type": "uint256"
        },
        {
          "internalType": "uint256",
          "name": "badAmount",
          "type": "uint256"
        },
        {
          "internalType": "uint256",
          "name": "bestDex",
          "type": "uint256"
        },
        {
          "internalType": "bool",
          "name": "foundBetter",
          "type": "bool"
        },
        {
          "internalType": "bool",
          "name": "fromCache",
          "type": "bool"
        },
        {
          "internalType": "bool",
          "name": "cacheOk",
          "type": "bool"
        },
        {
          "internalType": "address",
          "name": "badOut",
          "type": "address"
        },
        {
          "internalType": "address",
          "name": "badIn",
          "type": "address"
        }
      ],
      "stateMutability": "view",
      "type": "function"
    },
    {
      "inputs": [
        {
          "internalType": "uint256",
          "name": "_amountComingIn",
          "type": "uint256"
        },
        {
          "internalType": "address[]",
          "name": "_thisPath",
          "type": "address[]"
        },
        {
          "internalType": "address",
          "name": "_swapToAddress",
          "type": "address"
        }
      ],
      "name": "subnetSwap",
      "outputs": [],
      "stateMutability": "nonpayable",
      "type": "function"
    },
    {
      "inputs": [
        {
          "internalType": "address",
          "name": "",
          "type": "address"
        }
      ],
      "name": "tokenPairingToPid",
      "outputs": [
        {
          "internalType": "uint256",
          "name": "",
          "type": "uint256"
        }
      ],
      "stateMutability": "view",
      "type": "function"
    }
  ],
  "bytecode": "0x60a06040523480156200001157600080fd5b506040516200426a3803806200426a833981016040819052620000349162000628565b88883060405162000045906200057c565b6001600160a01b03938416815291831660208301529091166040820152606001604051809103906000f08015801562000082573d6000803e3d6000fd5b5060601b6001600160601b031916608052601080546001600160a01b03199081166001600160a01b038a811691909117909255601180548216898416179055600e8054909116918a169190911790556040805160078082526101008201909252816020820160e080368337505081516200010492600c9250602001906200058a565b5073b31f66aa3c1e785363f0875a1b74e27b85fd66c7600c60008154811062000131576200013162000709565b9060005260206000200160006101000a8154816001600160a01b0302191690836001600160a01b031602179055507360781c2586d68229fde47564546784ab3faca982600c6001815481106200018b576200018b62000709565b9060005260206000200160006101000a8154816001600160a01b0302191690836001600160a01b031602179055507349d5c2bdffac6ce2bfdb6640f4f80f226bc10bab600c600281548110620001e557620001e562000709565b9060005260206000200160006101000a8154816001600160a01b0302191690836001600160a01b0316021790555073d586e7f844cea2f87f50152665bcbc2c279d8d70600c6003815481106200023f576200023f62000709565b9060005260206000200160006101000a8154816001600160a01b0302191690836001600160a01b0316021790555073c7198437980c041c805a1edcba50c1ce5db95118600c60048154811062000299576200029962000709565b9060005260206000200160006101000a8154816001600160a01b0302191690836001600160a01b0316021790555073a7d7079b0fead91f3e65f86e8915cb59c1a4c664600c600581548110620002f357620002f362000709565b600091825260209091200180546001600160a01b0319166001600160a01b0392909216919091179055736e84a6216ea6dacc71ee8e6b0a5b7322eebc0fdd600c62000340600184620006e3565b8154811062000353576200035362000709565b600091825260209091200180546001600160a01b03929092166001600160a01b0319909216919091179055604080516002808252606082019092529081602001602082028036833750508151620003b292600d9250602001906200058a565b5073b31f66aa3c1e785363f0875a1b74e27b85fd66c7600d600081548110620003df57620003df62000709565b9060005260206000200160006101000a8154816001600160a01b0302191690836001600160a01b031602179055507360781c2586d68229fde47564546784ab3faca982600d60018154811062000439576200043962000709565b600091825260208083209190910180546001600160a01b03199081166001600160a01b03958616179091557f670833db1700ece34e47de666a57878d62979bb6d97861cf6248acfeb642a529805460ff1990811660019081179092557f5f411a83887b79b854ed743137f26131909c77843c00a40f52eb240ea80a1e3a80549091168217905560079092527f9a21b22712a4dd89801df12474a5ba7cc307ed8349f9e5ee62a63dd0e81095c78390557360781c2586d68229fde47564546784ab3faca9829092527f17c412d5a5d311fb5a35c337269e27923fad767330e3e39b1d18aae100257d0f5560128054821697831697909717909655600f80548716978216979097179096555060138054851693861693909317909255601480548416918516919091179055601580549092169216919091179055506200071f92505050565b610bc980620036a183390190565b828054828255906000526020600020908101928215620005e2579160200282015b82811115620005e257825182546001600160a01b0319166001600160a01b03909116178255602090920191600190910190620005ab565b50620005f0929150620005f4565b5090565b5b80821115620005f05760008155600101620005f5565b80516001600160a01b03811681146200062357600080fd5b919050565b60008060008060008060008060006101208a8c0312156200064857600080fd5b620006538a6200060b565b98506200066360208b016200060b565b97506200067360408b016200060b565b96506200068360608b016200060b565b95506200069360808b016200060b565b9450620006a360a08b016200060b565b9350620006b360c08b016200060b565b9250620006c360e08b016200060b565b9150620006d46101008b016200060b565b90509295985092959850929598565b6000828210156200070457634e487b7160e01b600052601160045260246000fd5b500390565b634e487b7160e01b600052603260045260246000fd5b60805160601c612f5c62000745600039600081816109580152610b8b0152612f5c6000f3fe6080604052600436106200023a5760003560e01c80638273905a116200012f578063b67d4fe211620000ad578063cc093ec11162000078578063cc093ec114620007a6578063d7aa077c14620007c8578063d7b7477114620007ed578063e0860fe21462000812578063fd727646146200082957600080fd5b8063b67d4fe21462000672578063b8fbc5be1462000697578063c24ade8914620006af578063cb3f0dcb14620006d157600080fd5b8063936099df11620000fa578063936099df14620005a4578063944b76de14620005c6578063ab2b25d814620005fa578063ad2acf17146200061c578063b114d314146200064157600080fd5b80638273905a14620005215780638351976014620005465780638536cecd14620005685780639007c39b146200058d57600080fd5b806359a01fb411620001bd5780636b8a420611620001885780636b8a420614620004565780636d0e8b31146200047b57806371ff7b0014620004b85780637a3f70a014620004dd5780638052f77914620004ff57600080fd5b806359a01fb414620003b95780635d2135b714620004025780635d56bca3146200041a578063645bb134146200043157600080fd5b80632d274b3e116200020a5780632d274b3e14620002f35780632d6b3a6b14620003405780633882dbda1462000358578063422c29a4146200036f578063457e0943146200039457600080fd5b8062bceaa8146200023f57806309c0f05914620002815780631378f1a9146200029a5780632b41cb1e14620002ce575b600080fd5b3480156200024c57600080fd5b50620002646200025e366004620016e8565b62000841565b6040516001600160a01b0390911681526020015b60405180910390f35b620002986200029236600462001735565b6200088a565b005b348015620002a757600080fd5b50620002bf620002b93660046200167b565b62000aca565b60405162000278919062001ff7565b348015620002db57600080fd5b5062000264620002ed36600462001e29565b62000b42565b3480156200030057600080fd5b506200032f620003123660046200167b565b6001600160a01b0316600090815260036020526040902054151590565b604051901515815260200162000278565b3480156200034d57600080fd5b506200026462000b6d565b62000298620003693660046200167b565b62000bad565b3480156200037c57600080fd5b50620002bf6200038e3660046200167b565b62000e8c565b348015620003a157600080fd5b5062000264620003b336600462001e29565b62000f00565b348015620003c657600080fd5b50620003f3620003d83660046200167b565b6001600160a01b031660009081526003602052604090205490565b60405190815260200162000278565b3480156200040f57600080fd5b50620002bf62000f11565b3480156200042757600080fd5b50600d54620003f3565b3480156200043e57600080fd5b506200026462000450366004620016a2565b62000f75565b3480156200046357600080fd5b50620002646200047536600462001e29565b62000fbb565b3480156200048857600080fd5b506200032f6200049a3660046200167b565b6001600160a01b031660009081526006602052604090205460ff1690565b348015620004c557600080fd5b5062000298620004d736600462001e43565b62000fcc565b348015620004ea57600080fd5b5060155462000264906001600160a01b031681565b3480156200050c57600080fd5b5060115462000264906001600160a01b031681565b3480156200052e57600080fd5b506200026462000540366004620016e8565b620010e4565b3480156200055357600080fd5b5060135462000264906001600160a01b031681565b3480156200057557600080fd5b50620002646200058736600462001e29565b6200111d565b3480156200059a57600080fd5b50600c54620003f3565b348015620005b157600080fd5b5060105462000264906001600160a01b031681565b348015620005d357600080fd5b50620005eb620005e53660046200167b565b6200112e565b604051620002789190620020e3565b3480156200060757600080fd5b50600f5462000264906001600160a01b031681565b3480156200062957600080fd5b50620002bf6200063b3660046200167b565b6200119b565b3480156200064e57600080fd5b50620003f3620006603660046200167b565b60076020526000908152604090205481565b3480156200067f57600080fd5b5062000298620006913660046200177e565b62001211565b348015620006a457600080fd5b5062000298620012d8565b348015620006bc57600080fd5b5060125462000264906001600160a01b031681565b348015620006de57600080fd5b5062000751620006f03660046200167b565b600860205260009081526040902080546001820154600283015460038401546005850154600690950154939492939192909160ff808316926101008104821692620100008204909216916001600160a01b0363010000009092048216911689565b60408051998a5260208a01989098529688019590955260608701939093529015156080860152151560a0850152151560c08401526001600160a01b0390811660e0840152166101008201526101200162000278565b348015620007b357600080fd5b5060145462000264906001600160a01b031681565b348015620007d557600080fd5b5062000298620007e736600462001aad565b62001339565b348015620007fa57600080fd5b50620002646200080c36600462001e29565b62001412565b3480156200081f57600080fd5b50620003f3600181565b3480156200083657600080fd5b50620002bf62001445565b6001600160a01b03821660009081526003602052604081208054839081106200086e576200086e6200252a565b6000918252602090912001546001600160a01b03169392505050565b670de0b6b3a76400008110620008e75760405162461bcd60e51b815260206004820181905260248201527f6c656164657250657263656e7461676546656520697320746f6f20686967682e60448201526064015b60405180910390fd5b601254601554604051600092638d26ce8160e01b926200091f92339288926001600160a01b0391821692911690889060240162001fa8565b604051602081830303815290604052906001600160e01b0319166020820180516001600160e01b038381831617835250505050905060007f0000000000000000000000000000000000000000000000000000000000000000826040516200098690620014a7565b6200099392919062001f82565b604051809103906000f080158015620009b0573d6000803e3d6000fd5b50336000818152602081815260408083208054600180820183559185528385200180546001600160a01b03199081166001600160a01b0389169081179092558686528285528386208054808501825590875285872001839055868652600580865284872080548086018255908852868820018054831684179055600a80548086019091557fc65a7bb8d6351c1cf70c95a316cc6a92839c986682d98bc35f958f4883f9d2a801805483168417905582875260038652848720805494850181558752958590209092018054909216861790915581519384529183019390935281830152905191925082917fe5d328f33d4d4bd370c07dd1ffea41dc43130f6fa8cc4b83f4982e3fc6d04c129181900360600190a15050505050565b6001600160a01b03811660009081526002602090815260409182902080548351818402810184019094528084526060939283018282801562000b3657602002820191906000526020600020905b81546001600160a01b0316815260019091019060200180831162000b17575b50505050509050919050565b600a818154811062000b5357600080fd5b6000918252602090912001546001600160a01b0316905081565b600e546000906001600160a01b0316331462000b8857600080fd5b507f000000000000000000000000000000000000000000000000000000000000000090565b6040516301df87a160e31b81523360048201526001600160a01b03821690630efc3d089060240160206040518083038186803b15801562000bed57600080fd5b505afa15801562000c02573d6000803e3d6000fd5b505050506040513d601f19601f8201168201806040525081019062000c28919062001717565b15801562000cc45750336001600160a01b0316816001600160a01b031663b544d75e6040518163ffffffff1660e01b815260040160006040518083038186803b15801562000c7557600080fd5b505afa15801562000c8a573d6000803e3d6000fd5b505050506040513d6000823e601f3d908101601f1916820160405262000cb4919081019062001cf5565b602001516001600160a01b031614155b62000d235760405162461bcd60e51b815260206004820152602860248201527f416c7265616479206120747261696c6572206f7220616c726561647920746865604482015267103632b0b232b91760c11b6064820152608401620008de565b336000818152602081815260408083208054600180820183559185528385200180546001600160a01b0319166001600160a01b03881690811790915585855281845282852080549283018155855292842001929092559051633e3ee12960e11b8152600481019290925290637c7dc25290602401600060405180830381600087803b15801562000db257600080fd5b505af115801562000dc7573d6000803e3d6000fd5b505050506001600160a01b0381166000818152600260209081526040808320805460018082018355918552838520018054336001600160a01b0319918216811790925586865260038552838620805493840181558652848620909201805483168217905584526004909252909120805490911690911790557fe5d328f33d4d4bd370c07dd1ffea41dc43130f6fa8cc4b83f4982e3fc6d04c126006604080519182523360208301526001600160a01b038416908201526060015b60405180910390a150565b6001600160a01b0381166000908152602081815260409182902080548351818402810184019094528084526060939283018282801562000b36576020028201919060005260206000209081546001600160a01b0316815260019091019060200180831162000b175750505050509050919050565b600b818154811062000b5357600080fd5b6060600a80548060200260200160405190810160405280929190818152602001828054801562000f6b57602002820191906000526020600020905b81546001600160a01b0316815260019091019060200180831162000f4c575b5050505050905090565b6009602052826000526040600020602052816000526040600020818154811062000f9e57600080fd5b6000918252602090912001546001600160a01b0316925083915050565b600d818154811062000b5357600080fd5b336000908152600360205260409020546200102a5760405162461bcd60e51b815260206004820152601c60248201527f4f6e6c79206c65616465722077616c6c65742063616e2063616c6c2e000000006044820152606401620008de565b6013546001600160a01b0316632d717989858386866200104c600182620024d5565b8181106200105e576200105e6200252a565b90506020020160208101906200107591906200167b565b6040516001600160e01b031960e086901b16815260048101939093526001600160a01b039182166024840152166044820152606401600060405180830381600087803b158015620010c557600080fd5b505af1158015620010da573d6000803e3d6000fd5b5050505050505050565b600360205281600052604060002081815481106200110157600080fd5b6000918252602090912001546001600160a01b03169150829050565b600c818154811062000b5357600080fd5b6001600160a01b03811660009081526001602090815260409182902080548351818402810184019094528084526060939283018282801562000b3657602002820191906000526020600020905b8154815260200190600101908083116200117b5750505050509050919050565b6001600160a01b03811660009081526003602090815260409182902080548351818402810184019094528084526060939283018282801562000b36576020028201919060005260206000209081546001600160a01b0316815260019091019060200180831162000b175750505050509050919050565b336000908152600360205260409020546200126f5760405162461bcd60e51b815260206004820152601c60248201527f4f6e6c79206c65616465722077616c6c65742063616e2063616c6c2e000000006044820152606401620008de565b600f54604051633be57d8b60e21b81526001600160a01b039091169063ef95f62c90620012a1908490600401620020f8565b600060405180830381600087803b158015620012bc57600080fd5b505af1158015620012d1573d6000803e3d6000fd5b5050505050565b60135460405163d6f3c6e560e01b81523360048201526001600160a01b039091169063d6f3c6e590602401600060405180830381600087803b1580156200131e57600080fd5b505af115801562001333573d6000803e3d6000fd5b50505050565b33600090815260036020526040902054620013a95760405162461bcd60e51b815260206004820152602960248201527f43616e206f6e6c7920656d697420696620796f75206172652061206c6561646560448201526839103bb0b63632ba1760b91b6064820152608401620008de565b7ff600856c1411761b24afe1743506583b5f0798dcafc598ae6979a6d33696e8ba816000015182602001518361010001518460c001518560e001518661012001518760400151886101400151896101e0015160405162000e81999897969594939291906200200c565b6000600c82815481106200142a576200142a6200252a565b6000918252602090912001546001600160a01b031692915050565b6060600c80548060200260200160405190810160405280929190818152602001828054801562000f6b576020028201919060005260206000209081546001600160a01b0316815260019091019060200180831162000f4c575050505050905090565b6109b7806200257083390190565b8035620014c28162002556565b919050565b8051620014c28162002556565b600082601f830112620014e657600080fd5b81356020620014ff620014f98362002483565b6200244f565b80838252828201915082860187848660051b89010111156200152057600080fd5b60005b858110156200154c578135620015398162002556565b8452928401929084019060010162001523565b5090979650505050505050565b600082601f8301126200156b57600080fd5b813560206200157e620014f98362002483565b80838252828201915082860187848660051b89010111156200159f57600080fd5b60005b858110156200154c57813584529284019290840190600101620015a2565b80518015158114620014c257600080fd5b600082601f830112620015e357600080fd5b8135620015f4620014f982620024aa565b8181528460208386010111156200160a57600080fd5b816020850160208301376000918101602001919091529392505050565b600082601f8301126200163957600080fd5b81516200164a620014f982620024aa565b8181528460208386010111156200166057600080fd5b62001673826020830160208701620024fb565b949350505050565b6000602082840312156200168e57600080fd5b81356200169b8162002556565b9392505050565b600080600060608486031215620016b857600080fd5b8335620016c58162002556565b92506020840135620016d78162002556565b929592945050506040919091013590565b60008060408385031215620016fc57600080fd5b8235620017098162002556565b946020939093013593505050565b6000602082840312156200172a57600080fd5b6200169b82620015c0565b600080604083850312156200174957600080fd5b823567ffffffffffffffff8111156200176157600080fd5b6200176f85828601620015d1565b95602094909401359450505050565b6000602082840312156200179157600080fd5b813567ffffffffffffffff80821115620017aa57600080fd5b908301906103808286031215620017c057600080fd5b620017ca620023d4565b620017d583620014b5565b8152620017e560208401620014b5565b6020820152620017f860408401620014b5565b6040820152606083013560608201526080830135608082015260a083013560a082015260c0830135828111156200182e57600080fd5b6200183c87828601620014d4565b60c08301525060e0830135828111156200185557600080fd5b620018638782860162001559565b60e08301525061010080840135838111156200187e57600080fd5b6200188c8882870162001559565b8284015250506101208084013583811115620018a757600080fd5b620018b58882870162001559565b8284015250506101408084013583811115620018d057600080fd5b620018de8882870162001559565b8284015250506101608084013583811115620018f957600080fd5b620019078882870162001559565b82840152505061018080840135838111156200192257600080fd5b620019308882870162001559565b8284015250506101a080840135838111156200194b57600080fd5b6200195988828701620014d4565b8284015250506101c080840135838111156200197457600080fd5b620019828882870162001559565b8284015250506101e080840135838111156200199d57600080fd5b620019ab8882870162001559565b8284015250506102008084013583811115620019c657600080fd5b620019d488828701620014d4565b8284015250506102209150620019ec828401620014b5565b82820152610240915062001a02828401620014b5565b82820152610260915062001a18828401620014b5565b82820152610280915062001a2e828401620014b5565b828201526102a0915062001a44828401620014b5565b828201526102c0915062001a5a828401620014b5565b828201526102e0915062001a70828401620014b5565b9181019190915261030082810135908201526103208083013590820152610340808301359082015261036091820135918101919091529392505050565b60006020828403121562001ac057600080fd5b813567ffffffffffffffff8082111562001ad957600080fd5b90830190610220828603121562001aef57600080fd5b62001af962002401565b82358281111562001b0957600080fd5b62001b1787828601620014d4565b82525060208301358281111562001b2d57600080fd5b62001b3b87828601620014d4565b60208301525060408301358281111562001b5457600080fd5b62001b6287828601620014d4565b60408301525062001b7660608401620014b5565b606082015262001b8960808401620014b5565b608082015262001b9c60a08401620014b5565b60a082015260c08301358281111562001bb457600080fd5b62001bc28782860162001559565b60c08301525060e08301358281111562001bdb57600080fd5b62001be98782860162001559565b60e083015250610100808401358381111562001c0457600080fd5b62001c128882870162001559565b828401525050610120808401358381111562001c2d57600080fd5b62001c3b8882870162001559565b828401525050610140808401358381111562001c5657600080fd5b62001c648882870162001559565b9183019190915250610160838101359082015261018080840135908201526101a080840135908201526101c080840135908201526101e0808401358381111562001cad57600080fd5b62001cbb88828701620015d1565b828401525050610200808401358381111562001cd657600080fd5b62001ce488828701620015d1565b918301919091525095945050505050565b60006020828403121562001d0857600080fd5b815167ffffffffffffffff8082111562001d2157600080fd5b90830190610160828603121562001d3757600080fd5b62001d4162002428565b62001d4c83620014c7565b815262001d5c60208401620014c7565b602082015262001d6f60408401620014c7565b604082015262001d8260608401620014c7565b606082015262001d9560808401620014c7565b608082015260a08301518281111562001dad57600080fd5b62001dbb8782860162001627565b60a08301525060c08301518281111562001dd457600080fd5b62001de28782860162001627565b60c08301525060e0838101519082015261010080840151908201526101208084015190820152610140915062001e1a828401620015c0565b91810191909152949350505050565b60006020828403121562001e3c57600080fd5b5035919050565b6000806000806060858703121562001e5a57600080fd5b84359350602085013567ffffffffffffffff8082111562001e7a57600080fd5b818701915087601f83011262001e8f57600080fd5b81358181111562001e9f57600080fd5b8860208260051b850101111562001eb557600080fd5b602083019550809450505050604085013562001ed18162002556565b939692955090935050565b600081518084526020808501945080840160005b8381101562001f175781516001600160a01b03168752958201959082019060010162001ef0565b509495945050505050565b600081518084526020808501945080840160005b8381101562001f175781518752958201959082019060010162001f36565b6000815180845262001f6e816020860160208601620024fb565b601f01601f19169290920160200192915050565b6001600160a01b0383168152604060208201819052600090620016739083018462001f54565b600060018060a01b03808816835260c0602084015262001fcc60c084018862001f54565b838103604085015260008152958116606084015293909316608082015260a001525060200192915050565b6020815260006200169b602083018462001edc565b6000610120808352620020228184018d62001edc565b9050828103602084015262002038818c62001edc565b905082810360408401526200204e818b62001f22565b9050828103606084015262002064818a62001f22565b905082810360808401526200207a818962001f22565b905082810360a084015262002090818862001f22565b905082810360c0840152620020a6818762001edc565b905082810360e0840152620020bc818662001f22565b9050828103610100840152620020d3818562001f54565b9c9b505050505050505050505050565b6020815260006200169b602083018462001f22565b60208152620021136020820183516001600160a01b03169052565b600060208301516200213060408401826001600160a01b03169052565b5060408301516001600160a01b03811660608401525060608301516080830152608083015160a083015260a083015160c083015260c08301516103808060e0850152620021826103a085018362001edc565b915060e0850151601f19610100818786030181880152620021a4858462001f22565b945080880151925050610120818786030181880152620021c5858462001f22565b945080880151925050610140818786030181880152620021e6858462001f22565b94508088015192505061016081878603018188015262002207858462001f22565b94508088015192505061018081878603018188015262002228858462001f22565b9450808801519250506101a081878603018188015262002249858462001f22565b9450808801519250506101c08187860301818801526200226a858462001edc565b9450808801519250506101e08187860301818801526200228b858462001f22565b945080880151925050610200818786030181880152620022ac858462001f22565b945080880151925050610220818786030181880152620022cd858462001edc565b94508088015192505050610240620022ef818701836001600160a01b03169052565b86015190506102606200230c868201836001600160a01b03169052565b860151905061028062002329868201836001600160a01b03169052565b86015190506102a062002346868201836001600160a01b03169052565b86015190506102c062002363868201836001600160a01b03169052565b86015190506102e062002380868201836001600160a01b03169052565b86015190506103006200239d868201836001600160a01b03169052565b8601516103208681019190915286015161034080870191909152860151610360808701919091529095015193019290925250919050565b604051610380810167ffffffffffffffff81118282101715620023fb57620023fb62002540565b60405290565b604051610220810167ffffffffffffffff81118282101715620023fb57620023fb62002540565b604051610160810167ffffffffffffffff81118282101715620023fb57620023fb62002540565b604051601f8201601f1916810167ffffffffffffffff811182821017156200247b576200247b62002540565b604052919050565b600067ffffffffffffffff821115620024a057620024a062002540565b5060051b60200190565b600067ffffffffffffffff821115620024c757620024c762002540565b50601f01601f191660200190565b600082821015620024f657634e487b7160e01b600052601160045260246000fd5b500390565b60005b8381101562002518578181015183820152602001620024fe565b83811115620013335750506000910152565b634e487b7160e01b600052603260045260246000fd5b634e487b7160e01b600052604160045260246000fd5b6001600160a01b03811681146200256c57600080fd5b5056fe60806040526040516109b73803806109b783398101604081905261002291610482565b61004d60017fa3f0ad74e5423aebfd80d3ef4346578335a9a72aeaee59ff6cb3582b35133d51610591565b60008051602061097083398151915214610069576100696105e2565b6100758282600061007c565b505061060e565b61008583610156565b6040516001600160a01b038416907f1cf3b03a6cf19fa2baba4df148e9dcabedea7f8a5c07840e207e5c089be95d3e90600090a26000825111806100c65750805b156101515761014f836001600160a01b0316635c60da1b6040518163ffffffff1660e01b815260040160206040518083038186803b15801561010757600080fd5b505afa15801561011b573d6000803e3d6000fd5b505050506040513d601f19601f8201168201806040525081019061013f9190610467565b836102f660201b6100291760201c565b505b505050565b6101698161032260201b6100551760201c565b6101c85760405162461bcd60e51b815260206004820152602560248201527f455243313936373a206e657720626561636f6e206973206e6f74206120636f6e6044820152641d1c9858dd60da1b60648201526084015b60405180910390fd5b61024b816001600160a01b0316635c60da1b6040518163ffffffff1660e01b815260040160206040518083038186803b15801561020457600080fd5b505afa158015610218573d6000803e3d6000fd5b505050506040513d601f19601f8201168201806040525081019061023c9190610467565b61032260201b6100551760201c565b6102b05760405162461bcd60e51b815260206004820152603060248201527f455243313936373a20626561636f6e20696d706c656d656e746174696f6e206960448201526f1cc81b9bdd08184818dbdb9d1c9858dd60821b60648201526084016101bf565b806102d560008051602061097083398151915260001b61033160201b6100641760201c565b80546001600160a01b0319166001600160a01b039290921691909117905550565b606061031b838360405180606001604052806027815260200161099060279139610334565b9392505050565b6001600160a01b03163b151590565b90565b60606001600160a01b0384163b61039c5760405162461bcd60e51b815260206004820152602660248201527f416464726573733a2064656c65676174652063616c6c20746f206e6f6e2d636f6044820152651b9d1c9858dd60d21b60648201526084016101bf565b600080856001600160a01b0316856040516103b79190610542565b600060405180830381855af49150503d80600081146103f2576040519150601f19603f3d011682016040523d82523d6000602084013e6103f7565b606091505b509092509050610408828286610412565b9695505050505050565b6060831561042157508161031b565b8251156104315782518084602001fd5b8160405162461bcd60e51b81526004016101bf919061055e565b80516001600160a01b038116811461046257600080fd5b919050565b60006020828403121561047957600080fd5b61031b8261044b565b6000806040838503121561049557600080fd5b61049e8361044b565b60208401519092506001600160401b03808211156104bb57600080fd5b818501915085601f8301126104cf57600080fd5b8151818111156104e1576104e16105f8565b604051601f8201601f19908116603f01168101908382118183101715610509576105096105f8565b8160405282815288602084870101111561052257600080fd5b6105338360208301602088016105b6565b80955050505050509250929050565b600082516105548184602087016105b6565b9190910192915050565b602081526000825180602084015261057d8160408501602087016105b6565b601f01601f19169190910160400192915050565b6000828210156105b157634e487b7160e01b600052601160045260246000fd5b500390565b60005b838110156105d15781810151838201526020016105b9565b8381111561014f5750506000910152565b634e487b7160e01b600052600160045260246000fd5b634e487b7160e01b600052604160045260246000fd5b6103538061061d6000396000f3fe60806040523661001357610011610017565b005b6100115b610027610022610067565b61010f565b565b606061004e83836040518060600160405280602781526020016102f760279139610133565b9392505050565b6001600160a01b03163b151590565b90565b600061009a7fa3f0ad74e5423aebfd80d3ef4346578335a9a72aeaee59ff6cb3582b35133d50546001600160a01b031690565b6001600160a01b0316635c60da1b6040518163ffffffff1660e01b815260040160206040518083038186803b1580156100d257600080fd5b505afa1580156100e6573d6000803e3d6000fd5b505050506040513d601f19601f8201168201806040525081019061010a919061024e565b905090565b3660008037600080366000845af43d6000803e80801561012e573d6000f35b3d6000fd5b60606001600160a01b0384163b6101a05760405162461bcd60e51b815260206004820152602660248201527f416464726573733a2064656c65676174652063616c6c20746f206e6f6e2d636f6044820152651b9d1c9858dd60d21b60648201526084015b60405180910390fd5b600080856001600160a01b0316856040516101bb9190610277565b600060405180830381855af49150503d80600081146101f6576040519150601f19603f3d011682016040523d82523d6000602084013e6101fb565b606091505b509150915061020b828286610215565b9695505050505050565b6060831561022457508161004e565b8251156102345782518084602001fd5b8160405162461bcd60e51b81526004016101979190610293565b60006020828403121561026057600080fd5b81516001600160a01b038116811461004e57600080fd5b600082516102898184602087016102c6565b9190910192915050565b60208152600082518060208401526102b28160408501602087016102c6565b601f01601f19169190910160400192915050565b60005b838110156102e15781810151838201526020016102c9565b838111156102f0576000848401525b5050505056fe416464726573733a206c6f772d6c6576656c2064656c65676174652063616c6c206661696c6564a2646970667358221220d0dab29d2ca94e7550a57465fdfca0372947e1786ce197c6018bfdae9e2f165164736f6c63430008070033a3f0ad74e5423aebfd80d3ef4346578335a9a72aeaee59ff6cb3582b35133d50416464726573733a206c6f772d6c6576656c2064656c65676174652063616c6c206661696c6564a26469706673582212208a9a8c8e31aee5d72f812fa6ca54001ea0dbab5cc147dd6e5b443f5e21e727e264736f6c6343000807003360a060405234801561001057600080fd5b50604051610bc9380380610bc983398101604081905261002f9161020e565b610038336100c5565b82604051610045906101e5565b6001600160a01b039091168152602001604051809103906000f080158015610071573d6000803e3d6000fd5b5060601b6001600160601b031916608052600180546001600160a01b03199081166001600160a01b0386811691909117909255600380549091169183169190911790556100bd82610115565b505050610251565b600080546001600160a01b038381166001600160a01b0319831681178455604051919092169283917f8be0079c531659141344cd1fd0a4f28419497f9722a3daafe3b4186f6b6457e09190a35050565b6000546001600160a01b031633146101745760405162461bcd60e51b815260206004820181905260248201527f4f776e61626c653a2063616c6c6572206973206e6f7420746865206f776e657260448201526064015b60405180910390fd5b6001600160a01b0381166101d95760405162461bcd60e51b815260206004820152602660248201527f4f776e61626c653a206e6577206f776e657220697320746865207a65726f206160448201526564647265737360d01b606482015260840161016b565b6101e2816100c5565b50565b610529806106a083390190565b80516001600160a01b038116811461020957600080fd5b919050565b60008060006060848603121561022357600080fd5b61022c846101f2565b925061023a602085016101f2565b9150610248604085016101f2565b90509250925092565b60805160601c61042a6102766000396000818161013101526101b4015261042a6000f3fe608060405234801561001057600080fd5b50600436106100625760003560e01c80631c1b8772146100675780635c60da1b1461007c578063715018a6146100a05780637ab04e17146100a85780638da5cb5b146100bb578063f2fde38b146100cc575b600080fd5b61007a610075366004610369565b6100df565b005b6100846101b0565b6040516001600160a01b03909116815260200160405180910390f35b61007a610248565b600154610084906001600160a01b031681565b6000546001600160a01b0316610084565b61007a6100da366004610369565b61027e565b6000546001600160a01b031633146101125760405162461bcd60e51b8152600401610109906103aa565b60405180910390fd5b604051631b2ce7f360e11b81526001600160a01b0382811660048301527f00000000000000000000000000000000000000000000000000000000000000001690633659cfe690602401600060405180830381600087803b15801561017557600080fd5b505af1158015610189573d6000803e3d6000fd5b5050600180546001600160a01b0319166001600160a01b0394909416939093179092555050565b60007f00000000000000000000000000000000000000000000000000000000000000006001600160a01b0316635c60da1b6040518163ffffffff1660e01b815260040160206040518083038186803b15801561020b57600080fd5b505afa15801561021f573d6000803e3d6000fd5b505050506040513d601f19601f82011682018060405250810190610243919061038d565b905090565b6000546001600160a01b031633146102725760405162461bcd60e51b8152600401610109906103aa565b61027c6000610319565b565b6000546001600160a01b031633146102a85760405162461bcd60e51b8152600401610109906103aa565b6001600160a01b03811661030d5760405162461bcd60e51b815260206004820152602660248201527f4f776e61626c653a206e6577206f776e657220697320746865207a65726f206160448201526564647265737360d01b6064820152608401610109565b61031681610319565b50565b600080546001600160a01b038381166001600160a01b0319831681178455604051919092169283917f8be0079c531659141344cd1fd0a4f28419497f9722a3daafe3b4186f6b6457e09190a35050565b60006020828403121561037b57600080fd5b8135610386816103df565b9392505050565b60006020828403121561039f57600080fd5b8151610386816103df565b6020808252818101527f4f776e61626c653a2063616c6c6572206973206e6f7420746865206f776e6572604082015260600190565b6001600160a01b038116811461031657600080fdfea26469706673582212201ec50cf7c6da336ec96697e81d3faeda6d45f78c009dafcac31cd0fde032b7d864736f6c63430008070033608060405234801561001057600080fd5b5060405161052938038061052983398101604081905261002f91610151565b61003833610047565b61004181610097565b50610181565b600080546001600160a01b038381166001600160a01b0319831681178455604051919092169283917f8be0079c531659141344cd1fd0a4f28419497f9722a3daafe3b4186f6b6457e09190a35050565b6100aa8161014260201b61020a1760201c565b6101205760405162461bcd60e51b815260206004820152603360248201527f5570677261646561626c65426561636f6e3a20696d706c656d656e746174696f60448201527f6e206973206e6f74206120636f6e747261637400000000000000000000000000606482015260840160405180910390fd5b600180546001600160a01b0319166001600160a01b0392909216919091179055565b6001600160a01b03163b151590565b60006020828403121561016357600080fd5b81516001600160a01b038116811461017a57600080fd5b9392505050565b610399806101906000396000f3fe608060405234801561001057600080fd5b50600436106100575760003560e01c80633659cfe61461005c5780635c60da1b14610071578063715018a61461009a5780638da5cb5b146100a2578063f2fde38b146100b3575b600080fd5b61006f61006a3660046102fe565b6100c6565b005b6001546001600160a01b03165b6040516001600160a01b03909116815260200160405180910390f35b61006f610139565b6000546001600160a01b031661007e565b61006f6100c13660046102fe565b61016f565b6000546001600160a01b031633146100f95760405162461bcd60e51b81526004016100f09061032e565b60405180910390fd5b61010281610219565b6040516001600160a01b038216907fbc7cd75a20ee27fd9adebab32041f755214dbc6bffa90cc0225b39da2e5c2d3b90600090a250565b6000546001600160a01b031633146101635760405162461bcd60e51b81526004016100f09061032e565b61016d60006102ae565b565b6000546001600160a01b031633146101995760405162461bcd60e51b81526004016100f09061032e565b6001600160a01b0381166101fe5760405162461bcd60e51b815260206004820152602660248201527f4f776e61626c653a206e6577206f776e657220697320746865207a65726f206160448201526564647265737360d01b60648201526084016100f0565b610207816102ae565b50565b6001600160a01b03163b151590565b6001600160a01b0381163b61028c5760405162461bcd60e51b815260206004820152603360248201527f5570677261646561626c65426561636f6e3a20696d706c656d656e746174696f6044820152721b881a5cc81b9bdd08184818dbdb9d1c9858dd606a1b60648201526084016100f0565b600180546001600160a01b0319166001600160a01b0392909216919091179055565b600080546001600160a01b038381166001600160a01b0319831681178455604051919092169283917f8be0079c531659141344cd1fd0a4f28419497f9722a3daafe3b4186f6b6457e09190a35050565b60006020828403121561031057600080fd5b81356001600160a01b038116811461032757600080fd5b9392505050565b6020808252818101527f4f776e61626c653a2063616c6c6572206973206e6f7420746865206f776e657260408201526060019056fea2646970667358221220f906f4d6455c73c39372d666c2e0339f12784c6dc1bbff27c1f2baa8889ddf2464736f6c63430008070033",
  "linkReferences": {},
  "deployedLinkReferences": {}
}