{
  "_format": "hh-sol-artifact-1",
  "contractName": "ProsperoPrices",
  "sourceName": "contracts/Pricing/ProsperoPrices.sol",
  "abi": [
    {
      "inputs": [],
      "stateMutability": "nonpayable",
      "type": "constructor"
    },
    {
      "inputs": [],
      "name": "USD_SCALE",
      "outputs": [
        {
          "internalType": "uint256",
          "name": "",
          "type": "uint256"
        }
      ],
      "stateMutability": "view",
      "type": "function"
    },
    {
      "inputs": [
        {
          "internalType": "address",
          "name": "tokenAddress",
          "type": "address"
        }
      ],
      "name": "getPrice",
      "outputs": [
        {
          "internalType": "uint256",
          "name": "",
          "type": "uint256"
        }
      ],
      "stateMutability": "view",
      "type": "function"
    },
    {
      "inputs": [
        {
          "internalType": "address[]",
          "name": "tokenAddresses",
          "type": "address[]"
        }
      ],
      "name": "getPrices",
      "outputs": [
        {
          "internalType": "uint256[]",
          "name": "prices",
          "type": "uint256[]"
        }
      ],
      "stateMutability": "view",
      "type": "function"
    },
    {
      "inputs": [
        {
          "internalType": "address",
          "name": "tokenA",
          "type": "address"
        },
        {
          "internalType": "address",
          "name": "tokenB",
          "type": "address"
        }
      ],
      "name": "getReservesPangolin",
      "outputs": [
        {
          "internalType": "uint256",
          "name": "reserveA",
          "type": "uint256"
        },
        {
          "internalType": "uint256",
          "name": "reserveB",
          "type": "uint256"
        }
      ],
      "stateMutability": "view",
      "type": "function"
    }
  ],
  "bytecode": "0x608060405234801561001057600080fd5b506112ad806100206000396000f3fe608060405234801561001057600080fd5b506004361061004c5760003560e01c806327473a421461005157806341976e091461007e5780638fb5a4821461009f578063f96d0baa146100bf575b600080fd5b61006461005f366004610d1f565b6100ce565b604080519283526020830191909152015b60405180910390f35b61009161008c366004610cde565b6102b5565b604051908152602001610075565b6100b26100ad366004610d58565b610921565b6040516100759190610f41565b610091670de0b6b3a764000081565b60008060006100dd85856109d4565b5060405163e6a4390560e01b81526001600160a01b0380881660048301528616602482015290915060009073efa94de7a4656d787667c749f7e1223d71e9fd889063e6a439059060440160206040518083038186803b15801561013f57600080fd5b505afa158015610153573d6000803e3d6000fd5b505050506040513d601f19601f820116820180604052508101906101779190610d02565b90506001600160a01b03811661019357600093508392506102ac565b806001600160a01b0316630902f1ac6040518163ffffffff1660e01b815260040160606040518083038186803b1580156101cc57600080fd5b505afa9250505080156101fc575060408051601f3d908101601f191682019092526101f991810190610e7e565b60015b610275576102086111b9565b806308c379a01415610235575061021d6111d5565b806102285750610237565b50600093508392506102ac565b505b3d808015610261576040519150601f19603f3d011682016040523d82523d6000602084013e610266565b606091505b50600094508493506102ac9050565b846001600160a01b0316896001600160a01b031614610295578183610298565b82825b6001600160701b0391821698501695505050505b50509250929050565b6000806102c183610aca565b90506001600160a01b03811615610378576000816001600160a01b031663feaf968c6040518163ffffffff1660e01b815260040160a06040518083038186803b15801561030d57600080fd5b505afa158015610321573d6000803e3d6000fd5b505050506040513d601f19601f820116820180604052508101906103459190610ece565b505050915050600081600a8061035b9190611041565b61036591906110f9565b9050801561037557949350505050565b50505b60005b60038110156108b957600061038f82610bd9565b9050600061039c83610c43565b90506000816001600160a01b031663feaf968c6040518163ffffffff1660e01b815260040160a06040518083038186803b1580156103d957600080fd5b505afa1580156103ed573d6000803e3d6000fd5b505050506040513d601f19601f820116820180604052508101906104119190610ece565b5050509150506000600267ffffffffffffffff811115610433576104336111a3565b60405190808252806020026020018201604052801561045c578160200160208202803683370190505b50905087816000815181106104735761047361118d565b60200260200101906001600160a01b031690816001600160a01b03168152505083816001815181106104a7576104a761118d565b60200260200101906001600160a01b031690816001600160a01b031681525050600080610508836000815181106104e0576104e061118d565b6020026020010151846001815181106104fb576104fb61118d565b60200260200101516100ce565b915091508160001415801561051c57508015155b156108a05760008461052f600a80611041565b61053991906110f9565b90506000846001815181106105505761055061118d565b60200260200101516001600160a01b031663313ce5676040518163ffffffff1660e01b815260040160206040518083038186803b15801561059057600080fd5b505afa1580156105a4573d6000803e3d6000fd5b505050506040513d601f19601f820116820180604052508101906105c89190610f1e565b6105d390600a61104d565b6105dd83856110f9565b6105e79190610fdc565b90506105fd670de0b6b3a76400006103e86110f9565b8110156106095761089d565b73e54ca86531e17ef3616d22ca28b0d458b6c891066001600160a01b031663d06ca61f8d6001600160a01b031663313ce5676040518163ffffffff1660e01b815260040160206040518083038186803b15801561066557600080fd5b505afa158015610679573d6000803e3d6000fd5b505050506040513d601f19601f8201168201806040525081019061069d9190610f1e565b6106a890600a61104d565b876040518363ffffffff1660e01b81526004016106c6929190610f85565b60006040518083038186803b1580156106de57600080fd5b505afa92505050801561071357506040513d6000823e601f3d908101601f191682016040526107109190810190610dcd565b60015b61077d5761071f6111b9565b806308c379a0141561074557506107346111d5565b8061073f5750610747565b5061089d565b505b3d808015610771576040519150601f19603f3d011682016040523d82523d6000602084013e610776565b606091505b505061089d565b6000816001835161078e9190611118565b8151811061079e5761079e61118d565b6020026020010151111561089b576000866001815181106107c1576107c161118d565b60200260200101516001600160a01b031663313ce5676040518163ffffffff1660e01b815260040160206040518083038186803b15801561080157600080fd5b505afa158015610815573d6000803e3d6000fd5b505050506040513d601f19601f820116820180604052508101906108399190610f1e565b61084490600a61104d565b8483600185516108549190611118565b815181106108645761086461118d565b602002602001015161087691906110f9565b6108809190610fdc565b90508015610899579d9c50505050505050505050505050565b505b505b50505b50505050505080806108b19061115c565b91505061037b565b5060405162461bcd60e51b815260206004820152603160248201527f4e6f7420656e6f756768206c697175696469747920666f756e6420666f72207460448201527037b5b2b71034b71033b2ba283934b1b29760791b60648201526084015b60405180910390fd5b60608167ffffffffffffffff81111561093c5761093c6111a3565b604051908082528060200260200182016040528015610965578160200160208202803683370190505b50905060005b828110156109cc5761099d8484838181106109885761098861118d565b905060200201602081019061008c9190610cde565b8282815181106109af576109af61118d565b6020908102919091010152806109c48161115c565b91505061096b565b505b92915050565b600080826001600160a01b0316846001600160a01b03161415610a455760405162461bcd60e51b8152602060048201526024808201527f50616e674f72546a4c6962726172793a204944454e544943414c5f41444452456044820152635353455360e01b6064820152608401610918565b826001600160a01b0316846001600160a01b031610610a65578284610a68565b83835b90925090506001600160a01b038216610ac35760405162461bcd60e51b815260206004820152601d60248201527f50616e674f72546a4c6962726172793a205a45524f5f414444524553530000006044820152606401610918565b9250929050565b60006001600160a01b03821673b31f66aa3c1e785363f0875a1b74e27b85fd66c71415610b0c5750730a77230d17318075983913bc2145db16c7366156919050565b6001600160a01b03821673a7d7079b0fead91f3e65f86e8915cb59c1a4c6641415610b4c575073f096872672f44d6eba71458d74fe67f9a77a23b9919050565b6001600160a01b0382167349d5c2bdffac6ce2bfdb6640f4f80f226bc10bab1415610b8c575073976b3d034e162d8bd72d6b9c989d545b839003b0919050565b6001600160a01b0382167350b7545627a5162f82a992c33b87adc75187b2181415610bcc5750732779d32d5166baaa2b2b658333ba7e6ec0c65743919050565b506000919050565b919050565b600081610bfb575073b31f66aa3c1e785363f0875a1b74e27b85fd66c7919050565b8160011415610c1f575073a7d7079b0fead91f3e65f86e8915cb59c1a4c664919050565b8160021415610bcc57507349d5c2bdffac6ce2bfdb6640f4f80f226bc10bab919050565b600081610c655750730a77230d17318075983913bc2145db16c7366156919050565b8160011415610c89575073f096872672f44d6eba71458d74fe67f9a77a23b9919050565b8160021415610bd4575073976b3d034e162d8bd72d6b9c989d545b839003b0919050565b80516001600160701b0381168114610bd457600080fd5b805169ffffffffffffffffffff81168114610bd457600080fd5b600060208284031215610cf057600080fd5b8135610cfb8161125f565b9392505050565b600060208284031215610d1457600080fd5b8151610cfb8161125f565b60008060408385031215610d3257600080fd5b8235610d3d8161125f565b91506020830135610d4d8161125f565b809150509250929050565b60008060208385031215610d6b57600080fd5b823567ffffffffffffffff80821115610d8357600080fd5b818501915085601f830112610d9757600080fd5b813581811115610da657600080fd5b8660208260051b8501011115610dbb57600080fd5b60209290920196919550909350505050565b60006020808385031215610de057600080fd5b825167ffffffffffffffff80821115610df857600080fd5b818501915085601f830112610e0c57600080fd5b815181811115610e1e57610e1e6111a3565b8060051b9150604051610e338584018261112f565b81815284810184860184860187018a1015610e4d57600080fd5b600095505b83861015610e70578051825260019590950194908601908601610e52565b509098975050505050505050565b600080600060608486031215610e9357600080fd5b610e9c84610cad565b9250610eaa60208501610cad565b9150604084015163ffffffff81168114610ec357600080fd5b809150509250925092565b600080600080600060a08688031215610ee657600080fd5b610eef86610cc4565b9450602086015193506040860151925060608601519150610f1260808701610cc4565b90509295509295909350565b600060208284031215610f3057600080fd5b815160ff81168114610cfb57600080fd5b6020808252825182820181905260009190848201906040850190845b81811015610f7957835183529284019291840191600101610f5d565b50909695505050505050565b6000604082018483526020604081850152818551808452606086019150828701935060005b81811015610fcf5784516001600160a01b031683529383019391830191600101610faa565b5090979650505050505050565b600082610ff957634e487b7160e01b600052601260045260246000fd5b500490565b600181815b8085111561103957816000190482111561101f5761101f611177565b8085161561102c57918102915b93841c9390800290611003565b509250929050565b6000610cfb8383611058565b6000610cfb60ff8416835b600082611067575060016109ce565b81611074575060006109ce565b816001811461108a5760028114611094576110b0565b60019150506109ce565b60ff8411156110a5576110a5611177565b50506001821b6109ce565b5060208310610133831016604e8410600b84101617156110d3575081810a6109ce565b6110dd8383610ffe565b80600019048211156110f1576110f1611177565b029392505050565b600081600019048311821515161561111357611113611177565b500290565b60008282101561112a5761112a611177565b500390565b601f8201601f1916810167ffffffffffffffff81118282101715611155576111556111a3565b6040525050565b600060001982141561117057611170611177565b5060010190565b634e487b7160e01b600052601160045260246000fd5b634e487b7160e01b600052603260045260246000fd5b634e487b7160e01b600052604160045260246000fd5b600060033d11156111d25760046000803e5060005160e01c5b90565b600060443d10156111e35790565b6040516003193d81016004833e81513d67ffffffffffffffff816024840111818411171561121357505050505090565b828501915081518181111561122b5750505050505090565b843d87010160208285010111156112455750505050505090565b6112546020828601018761112f565b509095945050505050565b6001600160a01b038116811461127457600080fd5b5056fea26469706673582212204c019ac8b30c834a799ff6c91a7b2b25d05baa16d8269b85a18c01561867409964736f6c63430008070033",
  "linkReferences": {},
  "deployedLinkReferences": {}
}