{
  "_format": "hh-sol-artifact-1",
  "contractName": "ProsperoBeaconFactory",
  "sourceName": "contracts/ProsperoBeaconFactory.sol",
  "abi": [
    {
      "inputs": [
        {
          "internalType": "address",
          "name": "implementation_",
          "type": "address"
        },
        {
          "internalType": "address",
          "name": "_prosperoAdminAddress",
          "type": "address"
        },
        {
          "internalType": "address",
          "name": "_miniChefAddress",
          "type": "address"
        },
        {
          "internalType": "address",
          "name": "_prosperoTokenAddress",
          "type": "address"
        },
        {
          "internalType": "address",
          "name": "_prosperoFeeToLiquidityAddress",
          "type": "address"
        },
        {
          "internalType": "address",
          "name": "_prosperoDataAddress",
          "type": "address"
        },
        {
          "internalType": "address",
          "name": "_SUBNET_HELPER_CONTRACT_ADDRESS",
          "type": "address"
        }
      ],
      "stateMutability": "nonpayable",
      "type": "constructor"
    },
    {
      "anonymous": false,
      "inputs": [
        {
          "indexed": false,
          "internalType": "uint256",
          "name": "methodType",
          "type": "uint256"
        },
        {
          "indexed": false,
          "internalType": "address",
          "name": "eoaAddressLeaderTrailer",
          "type": "address"
        },
        {
          "indexed": false,
          "internalType": "address",
          "name": "prosperoWalletAddress",
          "type": "address"
        }
      ],
      "name": "FinishedMethodFactory",
      "type": "event"
    },
    {
      "anonymous": false,
      "inputs": [
        {
          "indexed": false,
          "internalType": "address[]",
          "name": "tokens",
          "type": "address[]"
        },
        {
          "indexed": false,
          "internalType": "address[]",
          "name": "users",
          "type": "address[]"
        },
        {
          "indexed": false,
          "internalType": "uint256[]",
          "name": "balances",
          "type": "uint256[]"
        },
        {
          "indexed": false,
          "internalType": "uint256[]",
          "name": "percentageOwnerships",
          "type": "uint256[]"
        },
        {
          "indexed": false,
          "internalType": "uint256[]",
          "name": "usdInvested",
          "type": "uint256[]"
        },
        {
          "indexed": false,
          "internalType": "uint256[]",
          "name": "usersValues",
          "type": "uint256[]"
        },
        {
          "indexed": false,
          "internalType": "address[]",
          "name": "addressVars",
          "type": "address[]"
        },
        {
          "indexed": false,
          "internalType": "uint256[]",
          "name": "intVars",
          "type": "uint256[]"
        },
        {
          "indexed": false,
          "internalType": "string",
          "name": "walletName",
          "type": "string"
        },
        {
          "indexed": false,
          "internalType": "string",
          "name": "profilePictureUrl",
          "type": "string"
        }
      ],
      "name": "LatestBalancesFactory",
      "type": "event"
    },
    {
      "inputs": [],
      "name": "MINICHEF_ADDRESS",
      "outputs": [
        {
          "internalType": "address",
          "name": "",
          "type": "address"
        }
      ],
      "stateMutability": "view",
      "type": "function"
    },
    {
      "inputs": [
        {
          "internalType": "uint256",
          "name": "",
          "type": "uint256"
        }
      ],
      "name": "POSSIBLE_ROUTING_TOKENS",
      "outputs": [
        {
          "internalType": "address",
          "name": "",
          "type": "address"
        }
      ],
      "stateMutability": "view",
      "type": "function"
    },
    {
      "inputs": [],
      "name": "PROSPERO_TOKEN_ADDRESS",
      "outputs": [
        {
          "internalType": "address",
          "name": "",
          "type": "address"
        }
      ],
      "stateMutability": "view",
      "type": "function"
    },
    {
      "inputs": [],
      "name": "ROUTING_TOKEN_ROUTES_ARRAY_LENGTH",
      "outputs": [
        {
          "internalType": "uint256",
          "name": "",
          "type": "uint256"
        }
      ],
      "stateMutability": "view",
      "type": "function"
    },
    {
      "inputs": [],
      "name": "SUBNET_HELPER_CONTRACT_ADDRESS",
      "outputs": [
        {
          "internalType": "address",
          "name": "",
          "type": "address"
        }
      ],
      "stateMutability": "view",
      "type": "function"
    },
    {
      "inputs": [
        {
          "internalType": "uint256",
          "name": "",
          "type": "uint256"
        }
      ],
      "name": "TOKENS_PAIRING_WITH_PROSPERO_FOR_LIQUIDITY",
      "outputs": [
        {
          "internalType": "address",
          "name": "",
          "type": "address"
        }
      ],
      "stateMutability": "view",
      "type": "function"
    },
    {
      "inputs": [
        {
          "internalType": "uint256",
          "name": "",
          "type": "uint256"
        }
      ],
      "name": "allProsperoWallets",
      "outputs": [
        {
          "internalType": "address",
          "name": "",
          "type": "address"
        }
      ],
      "stateMutability": "view",
      "type": "function"
    },
    {
      "inputs": [
        {
          "components": [
            {
              "internalType": "address[]",
              "name": "tokens",
              "type": "address[]"
            },
            {
              "internalType": "address[]",
              "name": "users",
              "type": "address[]"
            },
            {
              "internalType": "address[]",
              "name": "addressVars",
              "type": "address[]"
            },
            {
              "internalType": "address",
              "name": "messageSender",
              "type": "address"
            },
            {
              "internalType": "address",
              "name": "leader",
              "type": "address"
            },
            {
              "internalType": "address",
              "name": "ProsperoWalletAddress",
              "type": "address"
            },
            {
              "internalType": "uint256[]",
              "name": "percentageOwnerships",
              "type": "uint256[]"
            },
            {
              "internalType": "uint256[]",
              "name": "usdInvested",
              "type": "uint256[]"
            },
            {
              "internalType": "uint256[]",
              "name": "balances",
              "type": "uint256[]"
            },
            {
              "internalType": "uint256[]",
              "name": "usersValues",
              "type": "uint256[]"
            },
            {
              "internalType": "uint256[]",
              "name": "intVars",
              "type": "uint256[]"
            },
            {
              "internalType": "uint256",
              "name": "methodType",
              "type": "uint256"
            },
            {
              "internalType": "uint256",
              "name": "totalValueOfPortfolio",
              "type": "uint256"
            },
            {
              "internalType": "uint256",
              "name": "usdFeeAmountProspero",
              "type": "uint256"
            },
            {
              "internalType": "uint256",
              "name": "usdFeeAmountLeader",
              "type": "uint256"
            },
            {
              "internalType": "string",
              "name": "walletName",
              "type": "string"
            },
            {
              "internalType": "string",
              "name": "profilePictureUrl",
              "type": "string"
            }
          ],
          "internalType": "struct ProsperoWalletStructs.LatestBalancesStruct",
          "name": "latestBalancesStruct",
          "type": "tuple"
        }
      ],
      "name": "emitLatestBalances",
      "outputs": [],
      "stateMutability": "nonpayable",
      "type": "function"
    },
    {
      "inputs": [],
      "name": "getAllProsperoWallets",
      "outputs": [
        {
          "internalType": "address[]",
          "name": "",
          "type": "address[]"
        }
      ],
      "stateMutability": "view",
      "type": "function"
    },
    {
      "inputs": [],
      "name": "getBeacon",
      "outputs": [
        {
          "internalType": "address",
          "name": "",
          "type": "address"
        }
      ],
      "stateMutability": "view",
      "type": "function"
    },
    {
      "inputs": [
        {
          "internalType": "address",
          "name": "_ProsperoWallet",
          "type": "address"
        }
      ],
      "name": "getLeaderAndTrailersForWallet",
      "outputs": [
        {
          "internalType": "address[]",
          "name": "",
          "type": "address[]"
        }
      ],
      "stateMutability": "view",
      "type": "function"
    },
    {
      "inputs": [
        {
          "internalType": "address",
          "name": "_ProsperoWallet",
          "type": "address"
        },
        {
          "internalType": "uint256",
          "name": "_index",
          "type": "uint256"
        }
      ],
      "name": "getLeaderAndTrailersForWalletAtIndex",
      "outputs": [
        {
          "internalType": "address",
          "name": "",
          "type": "address"
        }
      ],
      "stateMutability": "view",
      "type": "function"
    },
    {
      "inputs": [
        {
          "internalType": "address",
          "name": "_ProsperoWallet",
          "type": "address"
        }
      ],
      "name": "getLeaderAndTrailersForWalletLength",
      "outputs": [
        {
          "internalType": "uint256",
          "name": "",
          "type": "uint256"
        }
      ],
      "stateMutability": "view",
      "type": "function"
    },
    {
      "inputs": [],
      "name": "getPOSSIBLE_ROUTING_TOKENS",
      "outputs": [
        {
          "internalType": "address[]",
          "name": "",
          "type": "address[]"
        }
      ],
      "stateMutability": "view",
      "type": "function"
    },
    {
      "inputs": [
        {
          "internalType": "uint256",
          "name": "i",
          "type": "uint256"
        }
      ],
      "name": "getPOSSIBLE_ROUTING_TOKENS_AT",
      "outputs": [
        {
          "internalType": "address",
          "name": "",
          "type": "address"
        }
      ],
      "stateMutability": "view",
      "type": "function"
    },
    {
      "inputs": [],
      "name": "getPOSSIBLE_ROUTING_TOKENS_LENGTH",
      "outputs": [
        {
          "internalType": "uint256",
          "name": "",
          "type": "uint256"
        }
      ],
      "stateMutability": "view",
      "type": "function"
    },
    {
      "inputs": [],
      "name": "getTokensPairingWithProsperoForLiquidityLength",
      "outputs": [
        {
          "internalType": "uint256",
          "name": "",
          "type": "uint256"
        }
      ],
      "stateMutability": "nonpayable",
      "type": "function"
    },
    {
      "inputs": [
        {
          "internalType": "address",
          "name": "_ProsperoWallet",
          "type": "address"
        }
      ],
      "name": "getTrailersFollowingProsperoWallet",
      "outputs": [
        {
          "internalType": "address[]",
          "name": "",
          "type": "address[]"
        }
      ],
      "stateMutability": "view",
      "type": "function"
    },
    {
      "inputs": [
        {
          "internalType": "address",
          "name": "_user",
          "type": "address"
        }
      ],
      "name": "getWalletTypes",
      "outputs": [
        {
          "internalType": "uint256[]",
          "name": "",
          "type": "uint256[]"
        }
      ],
      "stateMutability": "view",
      "type": "function"
    },
    {
      "inputs": [
        {
          "internalType": "address",
          "name": "_user",
          "type": "address"
        }
      ],
      "name": "getWallets",
      "outputs": [
        {
          "internalType": "address[]",
          "name": "",
          "type": "address[]"
        }
      ],
      "stateMutability": "view",
      "type": "function"
    },
    {
      "inputs": [
        {
          "internalType": "address",
          "name": "thisAddress",
          "type": "address"
        }
      ],
      "name": "isATokenPairingWithProsperoForLiquidity_function",
      "outputs": [
        {
          "internalType": "bool",
          "name": "",
          "type": "bool"
        }
      ],
      "stateMutability": "nonpayable",
      "type": "function"
    },
    {
      "inputs": [
        {
          "internalType": "address",
          "name": "_ProsperoWallet",
          "type": "address"
        }
      ],
      "name": "isProsperoWallet",
      "outputs": [
        {
          "internalType": "bool",
          "name": "",
          "type": "bool"
        }
      ],
      "stateMutability": "nonpayable",
      "type": "function"
    },
    {
      "inputs": [
        {
          "internalType": "address",
          "name": "",
          "type": "address"
        },
        {
          "internalType": "uint256",
          "name": "",
          "type": "uint256"
        }
      ],
      "name": "leaderAndTrailersFollowingLeader",
      "outputs": [
        {
          "internalType": "address",
          "name": "",
          "type": "address"
        }
      ],
      "stateMutability": "view",
      "type": "function"
    },
    {
      "inputs": [
        {
          "internalType": "string",
          "name": "_walletName",
          "type": "string"
        }
      ],
      "name": "newProsperoWallet",
      "outputs": [],
      "stateMutability": "payable",
      "type": "function"
    },
    {
      "inputs": [
        {
          "internalType": "address payable",
          "name": "_ProsperoWallet",
          "type": "address"
        }
      ],
      "name": "newTrailerWallet",
      "outputs": [],
      "stateMutability": "payable",
      "type": "function"
    },
    {
      "inputs": [
        {
          "internalType": "uint256",
          "name": "",
          "type": "uint256"
        }
      ],
      "name": "pangolinRoutingTokens",
      "outputs": [
        {
          "internalType": "address",
          "name": "",
          "type": "address"
        }
      ],
      "stateMutability": "view",
      "type": "function"
    },
    {
      "inputs": [],
      "name": "prosperoDataAddress",
      "outputs": [
        {
          "internalType": "address",
          "name": "",
          "type": "address"
        }
      ],
      "stateMutability": "view",
      "type": "function"
    },
    {
      "inputs": [],
      "name": "prosperoFeeToLiquidityAddress",
      "outputs": [
        {
          "internalType": "address",
          "name": "",
          "type": "address"
        }
      ],
      "stateMutability": "view",
      "type": "function"
    },
    {
      "inputs": [
        {
          "components": [
            {
              "internalType": "contract IMiniChefV2",
              "name": "miniChefV2",
              "type": "address"
            },
            {
              "internalType": "contract IPangolinRouter",
              "name": "pangolinRouter",
              "type": "address"
            },
            {
              "internalType": "contract IJoeRouter02",
              "name": "traderJoeRouter",
              "type": "address"
            },
            {
              "internalType": "contract IProsperoPrices",
              "name": "prosperoPrices",
              "type": "address"
            },
            {
              "internalType": "uint256",
              "name": "otherTokenAdded",
              "type": "uint256"
            },
            {
              "internalType": "uint256",
              "name": "prosperoAdded",
              "type": "uint256"
            },
            {
              "internalType": "uint256",
              "name": "pglReceived",
              "type": "uint256"
            },
            {
              "internalType": "address[]",
              "name": "tokensFeeProspero",
              "type": "address[]"
            },
            {
              "internalType": "uint256[]",
              "name": "feeToLiquidityBalancesBefore",
              "type": "uint256[]"
            },
            {
              "internalType": "uint256[]",
              "name": "balancesFeesBefore",
              "type": "uint256[]"
            },
            {
              "internalType": "uint256[]",
              "name": "balancePortfolioTokensBefore",
              "type": "uint256[]"
            },
            {
              "internalType": "uint256[]",
              "name": "rawBalancesInWalletBeforeFeeToPoolTokens",
              "type": "uint256[]"
            },
            {
              "internalType": "uint256[]",
              "name": "balanceInFeesBeforeSwap",
              "type": "uint256[]"
            },
            {
              "internalType": "uint256[]",
              "name": "amountsToAddAsLiquidity",
              "type": "uint256[]"
            },
            {
              "internalType": "address[]",
              "name": "amountsToAddAsLiquidityTokens",
              "type": "address[]"
            },
            {
              "internalType": "uint256[]",
              "name": "amountsActuallyAddedAsLiquidity",
              "type": "uint256[]"
            },
            {
              "internalType": "uint256[]",
              "name": "remixFeeToPoolGoalPercentages",
              "type": "uint256[]"
            },
            {
              "internalType": "address[]",
              "name": "remixFeeToPoolGoalTokens",
              "type": "address[]"
            },
            {
              "internalType": "address payable",
              "name": "ProsperoWalletAddress",
              "type": "address"
            },
            {
              "internalType": "address",
              "name": "thisEOAAddress",
              "type": "address"
            },
            {
              "internalType": "address",
              "name": "ProsperoBeaconFactoryAddress",
              "type": "address"
            },
            {
              "internalType": "address",
              "name": "prosperoFeeToLiquidityContractAddress",
              "type": "address"
            },
            {
              "internalType": "address",
              "name": "otherToken",
              "type": "address"
            },
            {
              "internalType": "address",
              "name": "prosperoTokenAddress",
              "type": "address"
            },
            {
              "internalType": "address",
              "name": "prosperoPricesAddress",
              "type": "address"
            },
            {
              "internalType": "uint256",
              "name": "pangolinHarvested",
              "type": "uint256"
            },
            {
              "internalType": "uint256",
              "name": "amountToAddLiquidityProspero",
              "type": "uint256"
            },
            {
              "internalType": "uint256",
              "name": "amountToAddLiquidityOtherToken",
              "type": "uint256"
            },
            {
              "internalType": "uint256",
              "name": "sizeOfPortfolioFeeArray",
              "type": "uint256"
            }
          ],
          "internalType": "struct ProsperoWalletStructs.FeePoolStruct",
          "name": "feePoolStruct",
          "type": "tuple"
        }
      ],
      "name": "prosperoFeeToLiquidityDeposit",
      "outputs": [],
      "stateMutability": "nonpayable",
      "type": "function"
    },
    {
      "inputs": [
        {
          "internalType": "address",
          "name": "",
          "type": "address"
        },
        {
          "internalType": "address",
          "name": "",
          "type": "address"
        },
        {
          "internalType": "uint256",
          "name": "",
          "type": "uint256"
        }
      ],
      "name": "routeForPairsThree",
      "outputs": [
        {
          "internalType": "address",
          "name": "",
          "type": "address"
        }
      ],
      "stateMutability": "view",
      "type": "function"
    },
    {
      "inputs": [
        {
          "internalType": "address",
          "name": "",
          "type": "address"
        }
      ],
      "name": "routeForPairsTwo",
      "outputs": [
        {
          "internalType": "uint256",
          "name": "bestAmountOut",
          "type": "uint256"
        },
        {
          "internalType": "uint256",
          "name": "bestRouteLength",
          "type": "uint256"
        },
        {
          "internalType": "uint256",
          "name": "badAmount",
          "type": "uint256"
        },
        {
          "internalType": "uint256",
          "name": "bestDex",
          "type": "uint256"
        },
        {
          "internalType": "bool",
          "name": "foundBetter",
          "type": "bool"
        },
        {
          "internalType": "bool",
          "name": "fromCache",
          "type": "bool"
        },
        {
          "internalType": "bool",
          "name": "cacheOk",
          "type": "bool"
        },
        {
          "internalType": "address",
          "name": "badOut",
          "type": "address"
        },
        {
          "internalType": "address",
          "name": "badIn",
          "type": "address"
        }
      ],
      "stateMutability": "view",
      "type": "function"
    },
    {
      "inputs": [
        {
          "internalType": "uint256",
          "name": "_amountComingIn",
          "type": "uint256"
        },
        {
          "internalType": "address[]",
          "name": "_thisPath",
          "type": "address[]"
        },
        {
          "internalType": "address",
          "name": "_swapToAddress",
          "type": "address"
        }
      ],
      "name": "subnetSwap",
      "outputs": [],
      "stateMutability": "nonpayable",
      "type": "function"
    },
    {
      "inputs": [
        {
          "internalType": "address",
          "name": "",
          "type": "address"
        }
      ],
      "name": "tokenPairingToPid",
      "outputs": [
        {
          "internalType": "uint256",
          "name": "",
          "type": "uint256"
        }
      ],
      "stateMutability": "view",
      "type": "function"
    }
  ],
  "bytecode": "0x60a06040523480156200001157600080fd5b506040516200419338038062004193833981016040819052620000349162000608565b86863060405162000045906200055c565b6001600160a01b03938416815291831660208301529091166040820152606001604051809103906000f08015801562000082573d6000803e3d6000fd5b5060601b6001600160601b031916608052601080546001600160a01b03199081166001600160a01b0388811691909117909255601180548216878416179055600e80549091169188169190911790556040805160078082526101008201909252816020820160e080368337505081516200010492600c9250602001906200056a565b5073b31f66aa3c1e785363f0875a1b74e27b85fd66c7600c600081548110620001315762000131620006c3565b9060005260206000200160006101000a8154816001600160a01b0302191690836001600160a01b031602179055507360781c2586d68229fde47564546784ab3faca982600c6001815481106200018b576200018b620006c3565b9060005260206000200160006101000a8154816001600160a01b0302191690836001600160a01b031602179055507349d5c2bdffac6ce2bfdb6640f4f80f226bc10bab600c600281548110620001e557620001e5620006c3565b9060005260206000200160006101000a8154816001600160a01b0302191690836001600160a01b0316021790555073d586e7f844cea2f87f50152665bcbc2c279d8d70600c6003815481106200023f576200023f620006c3565b9060005260206000200160006101000a8154816001600160a01b0302191690836001600160a01b0316021790555073c7198437980c041c805a1edcba50c1ce5db95118600c600481548110620002995762000299620006c3565b9060005260206000200160006101000a8154816001600160a01b0302191690836001600160a01b0316021790555073a7d7079b0fead91f3e65f86e8915cb59c1a4c664600c600581548110620002f357620002f3620006c3565b600091825260209091200180546001600160a01b0319166001600160a01b0392909216919091179055736e84a6216ea6dacc71ee8e6b0a5b7322eebc0fdd600c620003406001846200069d565b81548110620003535762000353620006c3565b600091825260209091200180546001600160a01b03929092166001600160a01b0319909216919091179055604080516002808252606082019092529081602001602082028036833750508151620003b292600d9250602001906200056a565b5073b31f66aa3c1e785363f0875a1b74e27b85fd66c7600d600081548110620003df57620003df620006c3565b9060005260206000200160006101000a8154816001600160a01b0302191690836001600160a01b031602179055507360781c2586d68229fde47564546784ab3faca982600d600181548110620004395762000439620006c3565b6000918252602080832090910180546001600160a01b039485166001600160a01b0319918216179091557f670833db1700ece34e47de666a57878d62979bb6d97861cf6248acfeb642a529805460ff1990811660019081179092557f5f411a83887b79b854ed743137f26131909c77843c00a40f52eb240ea80a1e3a80549091168217905560079092527f9a21b22712a4dd89801df12474a5ba7cc307ed8349f9e5ee62a63dd0e81095c78390557360781c2586d68229fde47564546784ab3faca9829092527f17c412d5a5d311fb5a35c337269e27923fad767330e3e39b1d18aae100257d0f556012805495831695821695909517909455600f805495821695851695909517909455506013805491909316911617905550620006d992505050565b610bc980620035ca83390190565b828054828255906000526020600020908101928215620005c2579160200282015b82811115620005c257825182546001600160a01b0319166001600160a01b039091161782556020909201916001909101906200058b565b50620005d0929150620005d4565b5090565b5b80821115620005d05760008155600101620005d5565b80516001600160a01b03811681146200060357600080fd5b919050565b600080600080600080600060e0888a0312156200062457600080fd5b6200062f88620005eb565b96506200063f60208901620005eb565b95506200064f60408901620005eb565b94506200065f60608901620005eb565b93506200066f60808901620005eb565b92506200067f60a08901620005eb565b91506200068f60c08901620005eb565b905092959891949750929550565b600082821015620006be57634e487b7160e01b600052601160045260246000fd5b500390565b634e487b7160e01b600052603260045260246000fd5b60805160601c612ecb620006ff600039600081816108cb0152610fbe0152612ecb6000f3fe608060405260043610620002165760003560e01c80638273905a1162000123578063ab2b25d811620000ad578063cb3f0dcb1162000078578063cb3f0dcb1462000673578063d7aa077c1462000748578063d7b74771146200076d578063e0860fe21462000792578063fd72764614620007a957600080fd5b8063ab2b25d814620005d9578063ad2acf1714620005fb578063b114d3141462000620578063c24ade89146200065157600080fd5b8063936099df11620000ee578063936099df1462000547578063944b76de14620005695780639cec6319146200059d578063aace155914620005b457600080fd5b80638273905a14620004c45780638351976014620004e95780638536cecd146200050b5780639007c39b146200053057600080fd5b806359a01fb411620001a55780636b8a420611620001705780636b8a4206146200041b5780636d0e8b31146200044057806371ff7b00146200047d5780638052f77914620004a257600080fd5b806359a01fb4146200037e5780635d2135b714620003c75780635d56bca314620003df578063645bb13414620003f657600080fd5b80632d6b3a6b11620001e65780632d6b3a6b14620003035780633882dbda146200031b578063422c29a41462000334578063457e0943146200035957600080fd5b8062bceaa8146200021b5780631378f1a9146200025d5780632b41cb1e14620002915780632d274b3e14620002b6575b600080fd5b3480156200022857600080fd5b50620002406200023a36600462001631565b620007c1565b6040516001600160a01b0390911681526020015b60405180910390f35b3480156200026a57600080fd5b50620002826200027c366004620015a4565b6200080a565b60405162000254919062001f32565b3480156200029e57600080fd5b5062000240620002b036600462001d67565b62000882565b348015620002c357600080fd5b50620002f2620002d5366004620015a4565b6001600160a01b0316600090815260036020526040902054151590565b604051901515815260200162000254565b3480156200031057600080fd5b5062000240620008ad565b620003326200032c366004620015a4565b620008ed565b005b3480156200034157600080fd5b506200028262000353366004620015a4565b62000bd0565b3480156200036657600080fd5b50620002406200037836600462001d67565b62000c44565b3480156200038b57600080fd5b50620003b86200039d366004620015a4565b6001600160a01b031660009081526003602052604090205490565b60405190815260200162000254565b348015620003d457600080fd5b506200028262000c55565b348015620003ec57600080fd5b50600d54620003b8565b3480156200040357600080fd5b506200024062000415366004620015eb565b62000cb9565b3480156200042857600080fd5b50620002406200043a36600462001d67565b62000cff565b3480156200044d57600080fd5b50620002f26200045f366004620015a4565b6001600160a01b031660009081526006602052604090205460ff1690565b3480156200048a57600080fd5b50620003326200049c36600462001d81565b62000d10565b348015620004af57600080fd5b5060115462000240906001600160a01b031681565b348015620004d157600080fd5b5062000240620004e336600462001631565b62000e28565b348015620004f657600080fd5b5060135462000240906001600160a01b031681565b3480156200051857600080fd5b50620002406200052a36600462001d67565b62000e61565b3480156200053d57600080fd5b50600c54620003b8565b3480156200055457600080fd5b5060105462000240906001600160a01b031681565b3480156200057657600080fd5b506200058e62000588366004620015a4565b62000e72565b60405162000254919062002036565b62000332620005ae36600462001684565b62000edf565b348015620005c157600080fd5b5062000332620005d3366004620016bd565b6200112f565b348015620005e657600080fd5b50600f5462000240906001600160a01b031681565b3480156200060857600080fd5b50620002826200061a366004620015a4565b620011f6565b3480156200062d57600080fd5b50620003b86200063f366004620015a4565b60076020526000908152604090205481565b3480156200065e57600080fd5b5060125462000240906001600160a01b031681565b3480156200068057600080fd5b50620006f362000692366004620015a4565b600860205260009081526040902080546001820154600283015460038401546005850154600690950154939492939192909160ff808316926101008104821692620100008204909216916001600160a01b0363010000009092048216911689565b60408051998a5260208a01989098529688019590955260608701939093529015156080860152151560a0850152151560c08401526001600160a01b0390811660e0840152166101008201526101200162000254565b3480156200075557600080fd5b50620003326200076736600462001a01565b6200126c565b3480156200077a57600080fd5b50620002406200078c36600462001d67565b6200134c565b3480156200079f57600080fd5b50620003b8600181565b348015620007b657600080fd5b50620002826200137f565b6001600160a01b0382166000908152600360205260408120805483908110620007ee57620007ee62002499565b6000918252602090912001546001600160a01b03169392505050565b6001600160a01b0381166000908152600260209081526040918290208054835181840281018401909452808452606093928301828280156200087657602002820191906000526020600020905b81546001600160a01b0316815260019091019060200180831162000857575b50505050509050919050565b600a81815481106200089357600080fd5b6000918252602090912001546001600160a01b0316905081565b600e546000906001600160a01b03163314620008c857600080fd5b507f000000000000000000000000000000000000000000000000000000000000000090565b6040516301df87a160e31b81523360048201526001600160a01b03821690630efc3d089060240160206040518083038186803b1580156200092d57600080fd5b505afa15801562000942573d6000803e3d6000fd5b505050506040513d601f19601f8201168201806040525081019062000968919062001660565b15801562000a045750336001600160a01b0316816001600160a01b031663b544d75e6040518163ffffffff1660e01b815260040160006040518083038186803b158015620009b557600080fd5b505afa158015620009ca573d6000803e3d6000fd5b505050506040513d6000823e601f3d908101601f19168201604052620009f4919081019062001c49565b602001516001600160a01b031614155b62000a675760405162461bcd60e51b815260206004820152602860248201527f416c7265616479206120747261696c6572206f7220616c726561647920746865604482015267103632b0b232b91760c11b60648201526084015b60405180910390fd5b336000818152602081815260408083208054600180820183559185528385200180546001600160a01b0319166001600160a01b03881690811790915585855281845282852080549283018155855292842001929092559051633e3ee12960e11b8152600481019290925290637c7dc25290602401600060405180830381600087803b15801562000af657600080fd5b505af115801562000b0b573d6000803e3d6000fd5b505050506001600160a01b0381166000818152600260209081526040808320805460018082018355918552838520018054336001600160a01b0319918216811790925586865260038552838620805493840181558652848620909201805483168217905584526004909252909120805490911690911790557fe5d328f33d4d4bd370c07dd1ffea41dc43130f6fa8cc4b83f4982e3fc6d04c126006604080519182523360208301526001600160a01b038416908201526060015b60405180910390a150565b6001600160a01b0381166000908152602081815260409182902080548351818402810184019094528084526060939283018282801562000876576020028201919060005260206000209081546001600160a01b03168152600190910190602001808311620008575750505050509050919050565b600b81815481106200089357600080fd5b6060600a80548060200260200160405190810160405280929190818152602001828054801562000caf57602002820191906000526020600020905b81546001600160a01b0316815260019091019060200180831162000c90575b5050505050905090565b6009602052826000526040600020602052816000526040600020818154811062000ce257600080fd5b6000918252602090912001546001600160a01b0316925083915050565b600d81815481106200089357600080fd5b3360009081526003602052604090205462000d6e5760405162461bcd60e51b815260206004820152601c60248201527f4f6e6c79206c65616465722077616c6c65742063616e2063616c6c2e00000000604482015260640162000a5e565b6013546001600160a01b0316632d7179898583868662000d9060018262002440565b81811062000da25762000da262002499565b905060200201602081019062000db99190620015a4565b6040516001600160e01b031960e086901b16815260048101939093526001600160a01b039182166024840152166044820152606401600060405180830381600087803b15801562000e0957600080fd5b505af115801562000e1e573d6000803e3d6000fd5b5050505050505050565b6003602052816000526040600020818154811062000e4557600080fd5b6000918252602090912001546001600160a01b03169150829050565b600c81815481106200089357600080fd5b6001600160a01b0381166000908152600160209081526040918290208054835181840281018401909452808452606093928301828280156200087657602002820191906000526020600020905b81548152602001906001019080831162000ebf5750505050509050919050565b6012546040805163243a0f7160e21b81529051600092636cf1dbed60e01b92339286926001600160a01b03169182916390e83dc491600480820192602092909190829003018186803b15801562000f3557600080fd5b505afa15801562000f4a573d6000803e3d6000fd5b505050506040513d601f19601f8201168201806040525081019062000f709190620015cb565b60405160240162000f85949392919062001ee6565b604051602081830303815290604052906001600160e01b0319166020820180516001600160e01b038381831617835250505050905060007f00000000000000000000000000000000000000000000000000000000000000008260405162000fec90620013e1565b62000ff992919062001ec0565b604051809103906000f08015801562001016573d6000803e3d6000fd5b50336000818152602081815260408083208054600180820183559185528385200180546001600160a01b03199081166001600160a01b0389169081179092558686528285528386208054808501825590875285872001839055868652600580865284872080548086018255908852868820018054831684179055600a80548086019091557fc65a7bb8d6351c1cf70c95a316cc6a92839c986682d98bc35f958f4883f9d2a801805483168417905582875260038652848720805494850181558752958590209092018054909216861790915581519384529183019390935281830152905191925082917fe5d328f33d4d4bd370c07dd1ffea41dc43130f6fa8cc4b83f4982e3fc6d04c129181900360600190a150505050565b336000908152600360205260409020546200118d5760405162461bcd60e51b815260206004820152601c60248201527f4f6e6c79206c65616465722077616c6c65742063616e2063616c6c2e00000000604482015260640162000a5e565b600f5460405163079b849360e41b81526001600160a01b03909116906379b8493090620011bf9084906004016200204b565b600060405180830381600087803b158015620011da57600080fd5b505af1158015620011ef573d6000803e3d6000fd5b5050505050565b6001600160a01b03811660009081526003602090815260409182902080548351818402810184019094528084526060939283018282801562000876576020028201919060005260206000209081546001600160a01b03168152600190910190602001808311620008575750505050509050919050565b33600090815260036020526040902054620012dc5760405162461bcd60e51b815260206004820152602960248201527f43616e206f6e6c7920656d697420696620796f75206172652061206c6561646560448201526839103bb0b63632ba1760b91b606482015260840162000a5e565b7ffcc1ac24138baaae26d388b0e9d98827ad38032f185d736a49c185304e687656816000015182602001518361010001518460c001518560e001518661012001518760400151886101400151896101e001518a610200015160405162000bc59a9998979695949392919062001f47565b6000600c828154811062001364576200136462002499565b6000918252602090912001546001600160a01b031692915050565b6060600c80548060200260200160405190810160405280929190818152602001828054801562000caf576020028201919060005260206000209081546001600160a01b0316815260019091019060200180831162000c90575050505050905090565b6109b780620024df83390190565b8035620013fc81620024c5565b919050565b8051620013fc81620024c5565b600082601f8301126200142057600080fd5b81356020620014396200143383620023ee565b620023ba565b80838252828201915082860187848660051b89010111156200145a57600080fd5b60005b85811015620014865781356200147381620024c5565b845292840192908401906001016200145d565b5090979650505050505050565b600082601f830112620014a557600080fd5b81356020620014b86200143383620023ee565b80838252828201915082860187848660051b8901011115620014d957600080fd5b60005b858110156200148657813584529284019290840190600101620014dc565b600082601f8301126200150c57600080fd5b81356200151d620014338262002415565b8181528460208386010111156200153357600080fd5b816020850160208301376000918101602001919091529392505050565b600082601f8301126200156257600080fd5b815162001573620014338262002415565b8181528460208386010111156200158957600080fd5b6200159c82602083016020870162002466565b949350505050565b600060208284031215620015b757600080fd5b8135620015c481620024c5565b9392505050565b600060208284031215620015de57600080fd5b8151620015c481620024c5565b6000806000606084860312156200160157600080fd5b83356200160e81620024c5565b925060208401356200162081620024c5565b929592945050506040919091013590565b600080604083850312156200164557600080fd5b82356200165281620024c5565b946020939093013593505050565b6000602082840312156200167357600080fd5b81518015158114620015c457600080fd5b6000602082840312156200169757600080fd5b813567ffffffffffffffff811115620016af57600080fd5b6200159c84828501620014fa565b600060208284031215620016d057600080fd5b813567ffffffffffffffff80821115620016e957600080fd5b908301906103a08286031215620016ff57600080fd5b620017096200233f565b6200171483620013ef565b81526200172460208401620013ef565b60208201526200173760408401620013ef565b60408201526200174a60608401620013ef565b60608201526080830135608082015260a083013560a082015260c083013560c082015260e0830135828111156200178057600080fd5b6200178e878286016200140e565b60e0830152506101008084013583811115620017a957600080fd5b620017b78882870162001493565b8284015250506101208084013583811115620017d257600080fd5b620017e08882870162001493565b8284015250506101408084013583811115620017fb57600080fd5b620018098882870162001493565b82840152505061016080840135838111156200182457600080fd5b620018328882870162001493565b82840152505061018080840135838111156200184d57600080fd5b6200185b8882870162001493565b8284015250506101a080840135838111156200187657600080fd5b620018848882870162001493565b8284015250506101c080840135838111156200189f57600080fd5b620018ad888287016200140e565b8284015250506101e08084013583811115620018c857600080fd5b620018d68882870162001493565b8284015250506102008084013583811115620018f157600080fd5b620018ff8882870162001493565b82840152505061022080840135838111156200191a57600080fd5b62001928888287016200140e565b828401525050610240915062001940828401620013ef565b82820152610260915062001956828401620013ef565b8282015261028091506200196c828401620013ef565b828201526102a0915062001982828401620013ef565b828201526102c0915062001998828401620013ef565b828201526102e09150620019ae828401620013ef565b828201526103009150620019c4828401620013ef565b9181019190915261032082810135908201526103408083013590820152610360808301359082015261038091820135918101919091529392505050565b60006020828403121562001a1457600080fd5b813567ffffffffffffffff8082111562001a2d57600080fd5b90830190610220828603121562001a4357600080fd5b62001a4d6200236c565b82358281111562001a5d57600080fd5b62001a6b878286016200140e565b82525060208301358281111562001a8157600080fd5b62001a8f878286016200140e565b60208301525060408301358281111562001aa857600080fd5b62001ab6878286016200140e565b60408301525062001aca60608401620013ef565b606082015262001add60808401620013ef565b608082015262001af060a08401620013ef565b60a082015260c08301358281111562001b0857600080fd5b62001b168782860162001493565b60c08301525060e08301358281111562001b2f57600080fd5b62001b3d8782860162001493565b60e083015250610100808401358381111562001b5857600080fd5b62001b668882870162001493565b828401525050610120808401358381111562001b8157600080fd5b62001b8f8882870162001493565b828401525050610140808401358381111562001baa57600080fd5b62001bb88882870162001493565b9183019190915250610160838101359082015261018080840135908201526101a080840135908201526101c080840135908201526101e0808401358381111562001c0157600080fd5b62001c0f88828701620014fa565b828401525050610200808401358381111562001c2a57600080fd5b62001c3888828701620014fa565b918301919091525095945050505050565b60006020828403121562001c5c57600080fd5b815167ffffffffffffffff8082111562001c7557600080fd5b90830190610140828603121562001c8b57600080fd5b62001c9562002393565b62001ca08362001401565b815262001cb06020840162001401565b602082015262001cc36040840162001401565b604082015262001cd66060840162001401565b606082015262001ce96080840162001401565b608082015260a08301518281111562001d0157600080fd5b62001d0f8782860162001550565b60a08301525060c08301518281111562001d2857600080fd5b62001d368782860162001550565b60c08301525060e0838101519082015261010080840151908201526101209283015192810192909252509392505050565b60006020828403121562001d7a57600080fd5b5035919050565b6000806000806060858703121562001d9857600080fd5b84359350602085013567ffffffffffffffff8082111562001db857600080fd5b818701915087601f83011262001dcd57600080fd5b81358181111562001ddd57600080fd5b8860208260051b850101111562001df357600080fd5b602083019550809450505050604085013562001e0f81620024c5565b939692955090935050565b600081518084526020808501945080840160005b8381101562001e555781516001600160a01b03168752958201959082019060010162001e2e565b509495945050505050565b600081518084526020808501945080840160005b8381101562001e555781518752958201959082019060010162001e74565b6000815180845262001eac81602086016020860162002466565b601f01601f19169290920160200192915050565b6001600160a01b03831681526040602082018190526000906200159c9083018462001e92565b600060018060a01b03808716835260a0602084015262001f0a60a084018762001e92565b8381036040850152600081529481166060840152929092166080909101525060200192915050565b602081526000620015c4602083018462001e1a565b600061014080835262001f5d8184018e62001e1a565b9050828103602084015262001f73818d62001e1a565b9050828103604084015262001f89818c62001e60565b9050828103606084015262001f9f818b62001e60565b9050828103608084015262001fb5818a62001e60565b905082810360a084015262001fcb818962001e60565b905082810360c084015262001fe1818862001e1a565b905082810360e084015262001ff7818762001e60565b90508281036101008401526200200e818662001e92565b905082810361012084015262002025818562001e92565b9d9c50505050505050505050505050565b602081526000620015c4602083018462001e60565b60208152620020666020820183516001600160a01b03169052565b600060208301516200208360408401826001600160a01b03169052565b5060408301516001600160a01b03811660608401525060608301516001600160a01b038116608084015250608083015160a083015260a083015160c083015260c083015160e083015260e08301516103a06101008181860152620020ec6103c086018462001e1a565b9250808601519050601f196101208187860301818801526200210f858462001e60565b94508088015192505061014081878603018188015262002130858462001e60565b94508088015192505061016081878603018188015262002151858462001e60565b94508088015192505061018081878603018188015262002172858462001e60565b9450808801519250506101a081878603018188015262002193858462001e60565b9450808801519250506101c0818786030181880152620021b4858462001e60565b9450808801519250506101e0818786030181880152620021d5858462001e1a565b945080880151925050610200818786030181880152620021f6858462001e60565b94508088015192505061022081878603018188015262002217858462001e60565b94508088015192505061024081878603018188015262002238858462001e1a565b945080880151925050506102606200225a818701836001600160a01b03169052565b860151905061028062002277868201836001600160a01b03169052565b86015190506102a062002294868201836001600160a01b03169052565b86015190506102c0620022b1868201836001600160a01b03169052565b86015190506102e0620022ce868201836001600160a01b03169052565b8601519050610300620022eb868201836001600160a01b03169052565b860151905061032062002308868201836001600160a01b03169052565b8601516103408681019190915286015161036080870191909152860151610380808701919091529095015193019290925250919050565b6040516103a0810167ffffffffffffffff81118282101715620023665762002366620024af565b60405290565b604051610220810167ffffffffffffffff81118282101715620023665762002366620024af565b604051610140810167ffffffffffffffff81118282101715620023665762002366620024af565b604051601f8201601f1916810167ffffffffffffffff81118282101715620023e657620023e6620024af565b604052919050565b600067ffffffffffffffff8211156200240b576200240b620024af565b5060051b60200190565b600067ffffffffffffffff821115620024325762002432620024af565b50601f01601f191660200190565b6000828210156200246157634e487b7160e01b600052601160045260246000fd5b500390565b60005b838110156200248357818101518382015260200162002469565b8381111562002493576000848401525b50505050565b634e487b7160e01b600052603260045260246000fd5b634e487b7160e01b600052604160045260246000fd5b6001600160a01b0381168114620024db57600080fd5b5056fe60806040526040516109b73803806109b783398101604081905261002291610482565b61004d60017fa3f0ad74e5423aebfd80d3ef4346578335a9a72aeaee59ff6cb3582b35133d51610591565b60008051602061097083398151915214610069576100696105e2565b6100758282600061007c565b505061060e565b61008583610156565b6040516001600160a01b038416907f1cf3b03a6cf19fa2baba4df148e9dcabedea7f8a5c07840e207e5c089be95d3e90600090a26000825111806100c65750805b156101515761014f836001600160a01b0316635c60da1b6040518163ffffffff1660e01b815260040160206040518083038186803b15801561010757600080fd5b505afa15801561011b573d6000803e3d6000fd5b505050506040513d601f19601f8201168201806040525081019061013f9190610467565b836102f660201b6100291760201c565b505b505050565b6101698161032260201b6100551760201c565b6101c85760405162461bcd60e51b815260206004820152602560248201527f455243313936373a206e657720626561636f6e206973206e6f74206120636f6e6044820152641d1c9858dd60da1b60648201526084015b60405180910390fd5b61024b816001600160a01b0316635c60da1b6040518163ffffffff1660e01b815260040160206040518083038186803b15801561020457600080fd5b505afa158015610218573d6000803e3d6000fd5b505050506040513d601f19601f8201168201806040525081019061023c9190610467565b61032260201b6100551760201c565b6102b05760405162461bcd60e51b815260206004820152603060248201527f455243313936373a20626561636f6e20696d706c656d656e746174696f6e206960448201526f1cc81b9bdd08184818dbdb9d1c9858dd60821b60648201526084016101bf565b806102d560008051602061097083398151915260001b61033160201b6100641760201c565b80546001600160a01b0319166001600160a01b039290921691909117905550565b606061031b838360405180606001604052806027815260200161099060279139610334565b9392505050565b6001600160a01b03163b151590565b90565b60606001600160a01b0384163b61039c5760405162461bcd60e51b815260206004820152602660248201527f416464726573733a2064656c65676174652063616c6c20746f206e6f6e2d636f6044820152651b9d1c9858dd60d21b60648201526084016101bf565b600080856001600160a01b0316856040516103b79190610542565b600060405180830381855af49150503d80600081146103f2576040519150601f19603f3d011682016040523d82523d6000602084013e6103f7565b606091505b509092509050610408828286610412565b9695505050505050565b6060831561042157508161031b565b8251156104315782518084602001fd5b8160405162461bcd60e51b81526004016101bf919061055e565b80516001600160a01b038116811461046257600080fd5b919050565b60006020828403121561047957600080fd5b61031b8261044b565b6000806040838503121561049557600080fd5b61049e8361044b565b60208401519092506001600160401b03808211156104bb57600080fd5b818501915085601f8301126104cf57600080fd5b8151818111156104e1576104e16105f8565b604051601f8201601f19908116603f01168101908382118183101715610509576105096105f8565b8160405282815288602084870101111561052257600080fd5b6105338360208301602088016105b6565b80955050505050509250929050565b600082516105548184602087016105b6565b9190910192915050565b602081526000825180602084015261057d8160408501602087016105b6565b601f01601f19169190910160400192915050565b6000828210156105b157634e487b7160e01b600052601160045260246000fd5b500390565b60005b838110156105d15781810151838201526020016105b9565b8381111561014f5750506000910152565b634e487b7160e01b600052600160045260246000fd5b634e487b7160e01b600052604160045260246000fd5b6103538061061d6000396000f3fe60806040523661001357610011610017565b005b6100115b610027610022610067565b61010f565b565b606061004e83836040518060600160405280602781526020016102f760279139610133565b9392505050565b6001600160a01b03163b151590565b90565b600061009a7fa3f0ad74e5423aebfd80d3ef4346578335a9a72aeaee59ff6cb3582b35133d50546001600160a01b031690565b6001600160a01b0316635c60da1b6040518163ffffffff1660e01b815260040160206040518083038186803b1580156100d257600080fd5b505afa1580156100e6573d6000803e3d6000fd5b505050506040513d601f19601f8201168201806040525081019061010a919061024e565b905090565b3660008037600080366000845af43d6000803e80801561012e573d6000f35b3d6000fd5b60606001600160a01b0384163b6101a05760405162461bcd60e51b815260206004820152602660248201527f416464726573733a2064656c65676174652063616c6c20746f206e6f6e2d636f6044820152651b9d1c9858dd60d21b60648201526084015b60405180910390fd5b600080856001600160a01b0316856040516101bb9190610277565b600060405180830381855af49150503d80600081146101f6576040519150601f19603f3d011682016040523d82523d6000602084013e6101fb565b606091505b509150915061020b828286610215565b9695505050505050565b6060831561022457508161004e565b8251156102345782518084602001fd5b8160405162461bcd60e51b81526004016101979190610293565b60006020828403121561026057600080fd5b81516001600160a01b038116811461004e57600080fd5b600082516102898184602087016102c6565b9190910192915050565b60208152600082518060208401526102b28160408501602087016102c6565b601f01601f19169190910160400192915050565b60005b838110156102e15781810151838201526020016102c9565b838111156102f0576000848401525b5050505056fe416464726573733a206c6f772d6c6576656c2064656c65676174652063616c6c206661696c6564a264697066735822122046f29d642626f402562691e7b7523d24fafec1556e84891945547a562179bfa164736f6c63430008070033a3f0ad74e5423aebfd80d3ef4346578335a9a72aeaee59ff6cb3582b35133d50416464726573733a206c6f772d6c6576656c2064656c65676174652063616c6c206661696c6564a2646970667358221220d2ab21534e2fed9209784667983841784d4d42857bfc41bac2419bae54b36cee64736f6c6343000807003360a060405234801561001057600080fd5b50604051610bc9380380610bc983398101604081905261002f9161020e565b610038336100c5565b82604051610045906101e5565b6001600160a01b039091168152602001604051809103906000f080158015610071573d6000803e3d6000fd5b5060601b6001600160601b031916608052600180546001600160a01b03199081166001600160a01b0386811691909117909255600380549091169183169190911790556100bd82610115565b505050610251565b600080546001600160a01b038381166001600160a01b0319831681178455604051919092169283917f8be0079c531659141344cd1fd0a4f28419497f9722a3daafe3b4186f6b6457e09190a35050565b6000546001600160a01b031633146101745760405162461bcd60e51b815260206004820181905260248201527f4f776e61626c653a2063616c6c6572206973206e6f7420746865206f776e657260448201526064015b60405180910390fd5b6001600160a01b0381166101d95760405162461bcd60e51b815260206004820152602660248201527f4f776e61626c653a206e6577206f776e657220697320746865207a65726f206160448201526564647265737360d01b606482015260840161016b565b6101e2816100c5565b50565b610529806106a083390190565b80516001600160a01b038116811461020957600080fd5b919050565b60008060006060848603121561022357600080fd5b61022c846101f2565b925061023a602085016101f2565b9150610248604085016101f2565b90509250925092565b60805160601c61042a6102766000396000818161013101526101b4015261042a6000f3fe608060405234801561001057600080fd5b50600436106100625760003560e01c80631c1b8772146100675780635c60da1b1461007c578063715018a6146100a05780637ab04e17146100a85780638da5cb5b146100bb578063f2fde38b146100cc575b600080fd5b61007a610075366004610369565b6100df565b005b6100846101b0565b6040516001600160a01b03909116815260200160405180910390f35b61007a610248565b600154610084906001600160a01b031681565b6000546001600160a01b0316610084565b61007a6100da366004610369565b61027e565b6000546001600160a01b031633146101125760405162461bcd60e51b8152600401610109906103aa565b60405180910390fd5b604051631b2ce7f360e11b81526001600160a01b0382811660048301527f00000000000000000000000000000000000000000000000000000000000000001690633659cfe690602401600060405180830381600087803b15801561017557600080fd5b505af1158015610189573d6000803e3d6000fd5b5050600180546001600160a01b0319166001600160a01b0394909416939093179092555050565b60007f00000000000000000000000000000000000000000000000000000000000000006001600160a01b0316635c60da1b6040518163ffffffff1660e01b815260040160206040518083038186803b15801561020b57600080fd5b505afa15801561021f573d6000803e3d6000fd5b505050506040513d601f19601f82011682018060405250810190610243919061038d565b905090565b6000546001600160a01b031633146102725760405162461bcd60e51b8152600401610109906103aa565b61027c6000610319565b565b6000546001600160a01b031633146102a85760405162461bcd60e51b8152600401610109906103aa565b6001600160a01b03811661030d5760405162461bcd60e51b815260206004820152602660248201527f4f776e61626c653a206e6577206f776e657220697320746865207a65726f206160448201526564647265737360d01b6064820152608401610109565b61031681610319565b50565b600080546001600160a01b038381166001600160a01b0319831681178455604051919092169283917f8be0079c531659141344cd1fd0a4f28419497f9722a3daafe3b4186f6b6457e09190a35050565b60006020828403121561037b57600080fd5b8135610386816103df565b9392505050565b60006020828403121561039f57600080fd5b8151610386816103df565b6020808252818101527f4f776e61626c653a2063616c6c6572206973206e6f7420746865206f776e6572604082015260600190565b6001600160a01b038116811461031657600080fdfea26469706673582212200c8566c21a62d998f596f2cd30e9570ae146fd24debbf9c65d94ae7c59f5ffec64736f6c63430008070033608060405234801561001057600080fd5b5060405161052938038061052983398101604081905261002f91610151565b61003833610047565b61004181610097565b50610181565b600080546001600160a01b038381166001600160a01b0319831681178455604051919092169283917f8be0079c531659141344cd1fd0a4f28419497f9722a3daafe3b4186f6b6457e09190a35050565b6100aa8161014260201b61020a1760201c565b6101205760405162461bcd60e51b815260206004820152603360248201527f5570677261646561626c65426561636f6e3a20696d706c656d656e746174696f60448201527f6e206973206e6f74206120636f6e747261637400000000000000000000000000606482015260840160405180910390fd5b600180546001600160a01b0319166001600160a01b0392909216919091179055565b6001600160a01b03163b151590565b60006020828403121561016357600080fd5b81516001600160a01b038116811461017a57600080fd5b9392505050565b610399806101906000396000f3fe608060405234801561001057600080fd5b50600436106100575760003560e01c80633659cfe61461005c5780635c60da1b14610071578063715018a61461009a5780638da5cb5b146100a2578063f2fde38b146100b3575b600080fd5b61006f61006a3660046102fe565b6100c6565b005b6001546001600160a01b03165b6040516001600160a01b03909116815260200160405180910390f35b61006f610139565b6000546001600160a01b031661007e565b61006f6100c13660046102fe565b61016f565b6000546001600160a01b031633146100f95760405162461bcd60e51b81526004016100f09061032e565b60405180910390fd5b61010281610219565b6040516001600160a01b038216907fbc7cd75a20ee27fd9adebab32041f755214dbc6bffa90cc0225b39da2e5c2d3b90600090a250565b6000546001600160a01b031633146101635760405162461bcd60e51b81526004016100f09061032e565b61016d60006102ae565b565b6000546001600160a01b031633146101995760405162461bcd60e51b81526004016100f09061032e565b6001600160a01b0381166101fe5760405162461bcd60e51b815260206004820152602660248201527f4f776e61626c653a206e6577206f776e657220697320746865207a65726f206160448201526564647265737360d01b60648201526084016100f0565b610207816102ae565b50565b6001600160a01b03163b151590565b6001600160a01b0381163b61028c5760405162461bcd60e51b815260206004820152603360248201527f5570677261646561626c65426561636f6e3a20696d706c656d656e746174696f6044820152721b881a5cc81b9bdd08184818dbdb9d1c9858dd606a1b60648201526084016100f0565b600180546001600160a01b0319166001600160a01b0392909216919091179055565b600080546001600160a01b038381166001600160a01b0319831681178455604051919092169283917f8be0079c531659141344cd1fd0a4f28419497f9722a3daafe3b4186f6b6457e09190a35050565b60006020828403121561031057600080fd5b81356001600160a01b038116811461032757600080fd5b9392505050565b6020808252818101527f4f776e61626c653a2063616c6c6572206973206e6f7420746865206f776e657260408201526060019056fea2646970667358221220f906f4d6455c73c39372d666c2e0339f12784c6dc1bbff27c1f2baa8889ddf2464736f6c63430008070033",
  "linkReferences": {},
  "deployedLinkReferences": {}
}