{
  "_format": "hh-sol-artifact-1",
  "contractName": "ProsperoWallet",
  "sourceName": "contracts/ProsperoWallet.sol",
  "abi": [
    {
      "anonymous": false,
      "inputs": [
        {
          "indexed": false,
          "internalType": "uint256",
          "name": "methodType",
          "type": "uint256"
        },
        {
          "indexed": false,
          "internalType": "address",
          "name": "eoaAddressLeaderTrailer",
          "type": "address"
        }
      ],
      "name": "FinishedMethod",
      "type": "event"
    },
    {
      "anonymous": false,
      "inputs": [
        {
          "indexed": false,
          "internalType": "uint8",
          "name": "version",
          "type": "uint8"
        }
      ],
      "name": "Initialized",
      "type": "event"
    },
    {
      "inputs": [
        {
          "internalType": "address payable",
          "name": "_trailerAddress",
          "type": "address"
        }
      ],
      "name": "addTrailer",
      "outputs": [],
      "stateMutability": "nonpayable",
      "type": "function"
    },
    {
      "inputs": [
        {
          "internalType": "address[]",
          "name": "_tokensDepositing",
          "type": "address[]"
        },
        {
          "internalType": "uint256[]",
          "name": "_amountsDepositing",
          "type": "uint256[]"
        },
        {
          "internalType": "uint256",
          "name": "_methodType",
          "type": "uint256"
        }
      ],
      "name": "deposit",
      "outputs": [],
      "stateMutability": "payable",
      "type": "function"
    },
    {
      "inputs": [
        {
          "internalType": "address",
          "name": "token",
          "type": "address"
        }
      ],
      "name": "getBalanceOfTokenInPortfolio",
      "outputs": [
        {
          "internalType": "uint256",
          "name": "",
          "type": "uint256"
        }
      ],
      "stateMutability": "view",
      "type": "function"
    },
    {
      "inputs": [
        {
          "internalType": "address",
          "name": "user",
          "type": "address"
        },
        {
          "internalType": "address",
          "name": "token",
          "type": "address"
        }
      ],
      "name": "getBalanceOfTokenInPortfolioForUser",
      "outputs": [
        {
          "internalType": "uint256",
          "name": "",
          "type": "uint256"
        }
      ],
      "stateMutability": "view",
      "type": "function"
    },
    {
      "inputs": [
        {
          "internalType": "address",
          "name": "user",
          "type": "address"
        }
      ],
      "name": "getPercentageOwnership",
      "outputs": [
        {
          "internalType": "uint256",
          "name": "",
          "type": "uint256"
        }
      ],
      "stateMutability": "view",
      "type": "function"
    },
    {
      "inputs": [],
      "name": "getPortfolioTokensSize",
      "outputs": [
        {
          "internalType": "uint256",
          "name": "",
          "type": "uint256"
        }
      ],
      "stateMutability": "view",
      "type": "function"
    },
    {
      "inputs": [
        {
          "internalType": "address",
          "name": "user",
          "type": "address"
        }
      ],
      "name": "getTotalUsdInvestedPerUser",
      "outputs": [
        {
          "internalType": "uint256",
          "name": "",
          "type": "uint256"
        }
      ],
      "stateMutability": "view",
      "type": "function"
    },
    {
      "inputs": [
        {
          "internalType": "address",
          "name": "user",
          "type": "address"
        },
        {
          "internalType": "uint256",
          "name": "totalValueOfPortfolio",
          "type": "uint256"
        }
      ],
      "name": "getUsersValue",
      "outputs": [
        {
          "internalType": "uint256",
          "name": "",
          "type": "uint256"
        }
      ],
      "stateMutability": "view",
      "type": "function"
    },
    {
      "inputs": [
        {
          "internalType": "address",
          "name": "user",
          "type": "address"
        }
      ],
      "name": "getUsersValueNew",
      "outputs": [
        {
          "internalType": "uint256",
          "name": "",
          "type": "uint256"
        }
      ],
      "stateMutability": "view",
      "type": "function"
    },
    {
      "inputs": [],
      "name": "getWalletValues",
      "outputs": [
        {
          "components": [
            {
              "internalType": "address",
              "name": "ProsperoBeaconFactoryAddress",
              "type": "address"
            },
            {
              "internalType": "address",
              "name": "leader",
              "type": "address"
            },
            {
              "internalType": "address",
              "name": "prosperoPricesAddress",
              "type": "address"
            },
            {
              "internalType": "address",
              "name": "prosperoDataAddress",
              "type": "address"
            },
            {
              "internalType": "address payable",
              "name": "ProsperoWalletAddress",
              "type": "address"
            },
            {
              "internalType": "string",
              "name": "walletName",
              "type": "string"
            },
            {
              "internalType": "string",
              "name": "profilePictureUrl",
              "type": "string"
            },
            {
              "internalType": "uint256",
              "name": "totalSupply_percentageOwnership",
              "type": "uint256"
            },
            {
              "internalType": "uint256",
              "name": "leaderPercentageFee",
              "type": "uint256"
            },
            {
              "internalType": "uint256",
              "name": "prosperoPercentageFeeOfLeader",
              "type": "uint256"
            },
            {
              "internalType": "bool",
              "name": "allowNewInvestors",
              "type": "bool"
            }
          ],
          "internalType": "struct ProsperoWalletStructs.WalletValuesStruct",
          "name": "",
          "type": "tuple"
        }
      ],
      "stateMutability": "view",
      "type": "function"
    },
    {
      "inputs": [
        {
          "internalType": "address",
          "name": "",
          "type": "address"
        }
      ],
      "name": "indexOfAddressInPortfolioTokens",
      "outputs": [
        {
          "internalType": "uint256",
          "name": "",
          "type": "uint256"
        }
      ],
      "stateMutability": "view",
      "type": "function"
    },
    {
      "inputs": [
        {
          "internalType": "address",
          "name": "_leader",
          "type": "address"
        },
        {
          "internalType": "string",
          "name": "walletName",
          "type": "string"
        },
        {
          "internalType": "string",
          "name": "_profilePictureUrl",
          "type": "string"
        },
        {
          "internalType": "address",
          "name": "_prosperoDataAddress",
          "type": "address"
        },
        {
          "internalType": "address",
          "name": "_prosperoPricesAddress",
          "type": "address"
        },
        {
          "internalType": "uint256",
          "name": "_leaderPercentageFee",
          "type": "uint256"
        }
      ],
      "name": "initialize",
      "outputs": [],
      "stateMutability": "nonpayable",
      "type": "function"
    },
    {
      "inputs": [
        {
          "internalType": "uint256",
          "name": "",
          "type": "uint256"
        }
      ],
      "name": "last_remixGoalPercentages",
      "outputs": [
        {
          "internalType": "uint256",
          "name": "",
          "type": "uint256"
        }
      ],
      "stateMutability": "view",
      "type": "function"
    },
    {
      "inputs": [
        {
          "internalType": "uint256",
          "name": "",
          "type": "uint256"
        }
      ],
      "name": "last_remixGoalTokens",
      "outputs": [
        {
          "internalType": "address",
          "name": "",
          "type": "address"
        }
      ],
      "stateMutability": "view",
      "type": "function"
    },
    {
      "inputs": [
        {
          "internalType": "address",
          "name": "",
          "type": "address"
        }
      ],
      "name": "percentageOwnership",
      "outputs": [
        {
          "internalType": "uint256",
          "name": "",
          "type": "uint256"
        }
      ],
      "stateMutability": "view",
      "type": "function"
    },
    {
      "inputs": [
        {
          "internalType": "uint256",
          "name": "",
          "type": "uint256"
        }
      ],
      "name": "portfolioTokens",
      "outputs": [
        {
          "internalType": "address",
          "name": "",
          "type": "address"
        }
      ],
      "stateMutability": "view",
      "type": "function"
    },
    {
      "inputs": [
        {
          "internalType": "address[]",
          "name": "_remixGoalTokens",
          "type": "address[]"
        },
        {
          "internalType": "uint256[]",
          "name": "_remixGoalPercentages",
          "type": "uint256[]"
        }
      ],
      "name": "rebalancePortfolio",
      "outputs": [],
      "stateMutability": "nonpayable",
      "type": "function"
    },
    {
      "inputs": [
        {
          "internalType": "address",
          "name": "",
          "type": "address"
        }
      ],
      "name": "tokenBalances",
      "outputs": [
        {
          "internalType": "uint256",
          "name": "",
          "type": "uint256"
        }
      ],
      "stateMutability": "view",
      "type": "function"
    },
    {
      "inputs": [
        {
          "internalType": "address",
          "name": "",
          "type": "address"
        }
      ],
      "name": "totalUsdInvestedPerUser",
      "outputs": [
        {
          "internalType": "uint256",
          "name": "",
          "type": "uint256"
        }
      ],
      "stateMutability": "view",
      "type": "function"
    },
    {
      "inputs": [
        {
          "internalType": "address",
          "name": "",
          "type": "address"
        }
      ],
      "name": "trailers",
      "outputs": [
        {
          "internalType": "bool",
          "name": "",
          "type": "bool"
        }
      ],
      "stateMutability": "view",
      "type": "function"
    },
    {
      "inputs": [
        {
          "internalType": "bool",
          "name": "_allowNewInvestors",
          "type": "bool"
        }
      ],
      "name": "updateAllowNewInvestors",
      "outputs": [],
      "stateMutability": "nonpayable",
      "type": "function"
    },
    {
      "inputs": [
        {
          "internalType": "uint256",
          "name": "_newPercentageFee",
          "type": "uint256"
        }
      ],
      "name": "updatePercentageFee",
      "outputs": [],
      "stateMutability": "nonpayable",
      "type": "function"
    },
    {
      "inputs": [
        {
          "internalType": "uint256",
          "name": "_usdWithdrawing",
          "type": "uint256"
        },
        {
          "internalType": "address[]",
          "name": "_tokensSwappingInto",
          "type": "address[]"
        }
      ],
      "name": "withdraw",
      "outputs": [],
      "stateMutability": "nonpayable",
      "type": "function"
    },
    {
      "stateMutability": "payable",
      "type": "receive"
    }
  ],
  "bytecode": "0x608060405234801561001057600080fd5b50615e7080620000216000396000f3fe6080604052600436106101445760003560e01c806382233c99116100b6578063b544d75e1161006f578063b544d75e146103ef578063c51077c314610411578063cdb77de514610447578063d2ce52d214610467578063e8f5c00a1461047a578063ee14c87b146104a757600080fd5b806382233c991461030a5780638c228eb01461032a5780638d26ce811461034a57806399eca69f1461036a578063b048be0e1461038a578063b11fa9ee146103c257600080fd5b806353f5aa331161010857806353f5aa33146102325780635b5b6f56146102525780635d3f38211461027257806369d1c1011461029f57806370756083146102b45780637c7dc252146102ea57600080fd5b80630a140609146101505780630efc3d08146101725780631094f13c146101b75780631908b2e5146101d7578063523fba7f1461020557600080fd5b3661014b57005b600080fd5b34801561015c57600080fd5b5061017061016b366004614660565b6104c7565b005b34801561017e57600080fd5b506101a261018d36600461451c565b600c6020526000908152604090205460ff1681565b60405190151581526020015b60405180910390f35b3480156101c357600080fd5b506101706101d23660046147c4565b61066f565b3480156101e357600080fd5b506101f76101f2366004614634565b6106de565b6040519081526020016101ae565b34801561021157600080fd5b506101f761022036600461451c565b60116020526000908152604090205481565b34801561023e57600080fd5b506101f761024d366004614556565b610772565b34801561025e57600080fd5b5061017061026d366004614b2b565b610824565b34801561027e57600080fd5b506101f761028d36600461451c565b600d6020526000908152604090205481565b3480156102ab57600080fd5b50600f546101f7565b3480156102c057600080fd5b506101f76102cf36600461451c565b6001600160a01b03166000908152600e602052604090205490565b3480156102f657600080fd5b5061017061030536600461451c565b610863565b34801561031657600080fd5b506101f7610325366004614b2b565b6108be565b34801561033657600080fd5b506101f761034536600461451c565b6108df565b34801561035657600080fd5b5061017061036536600461458f565b610a0f565b34801561037657600080fd5b50610170610385366004614b5d565b610ca6565b34801561039657600080fd5b506103aa6103a5366004614b2b565b611384565b6040516001600160a01b0390911681526020016101ae565b3480156103ce57600080fd5b506101f76103dd36600461451c565b600e6020526000908152604090205481565b3480156103fb57600080fd5b506104046113ae565b6040516101ae9190615928565b34801561041d57600080fd5b506101f761042c36600461451c565b6001600160a01b031660009081526011602052604090205490565b34801561045357600080fd5b506103aa610462366004614b2b565b6115aa565b61017061047536600461471c565b6115ba565b34801561048657600080fd5b506101f761049536600461451c565b60106020526000908152604090205481565b3480156104b357600080fd5b506101f76104c236600461451c565b611d65565b6002546001600160a01b0316331480156104ef5750336000908152600d602052604090205415155b6105745760405162461bcd60e51b8152602060048201526044602482018190527f4f6e6c7920706f7274666c696f206d616e616765722f6c65616465722063616e908201527f2063616c6c20616e64206d757374206861766520736f6d65202420696e7665736064820152633a32b21760e11b608482015260a4015b60405180910390fd5b61057c613754565b6003546001600160a01b03168152604051600162230f8160e21b0319815260009073__$7f589f9ba993b48eab17aec71d81b78e51$__9063ff73c1fc906105ce9087908790600f9088906004016153f5565b60206040518083038186803b1580156105e657600080fd5b505af41580156105fa573d6000803e3d6000fd5b505050506040513d601f19601f8201168201806040525081019061061e91906147e1565b90508061065c5760405162461bcd60e51b815260206004820152600c60248201526b12901e9031bab93932b73a1760a11b604482015260640161056b565b610669848460035b611db0565b50505050565b604051631c02f40b60e01b815281151560048201526001602482015273__$d86b9c30bfd55b3165d64d5ecc75b04e1d$__90631c02f40b906044015b60006040518083038186803b1580156106c357600080fd5b505af41580156106d7573d6000803e3d6000fd5b5050505050565b6001600160a01b0382166000908152600d60205260408120541580610701575081155b8061070c5750600854155b156107195750600061076c565b6008546001600160a01b0384166000908152600d6020526040902054670de0b6b3a7640000919061074b908390615d30565b6107559190615c20565b61075f9084615d30565b6107699190615c20565b90505b92915050565b6001600160a01b0382166000908152600d602052604081205415806107ad57506001600160a01b038216600090815260116020526040902054155b806107b85750600854155b156107c55750600061076c565b6008546001600160a01b0384166000908152600d6020526040902054670de0b6b3a764000091906107f7908390615d30565b6108019190615c20565b6001600160a01b03841660009081526011602052604090205461075f9190615d30565b604051636fe519a560e11b8152600481018290526001602482015273__$d86b9c30bfd55b3165d64d5ecc75b04e1d$__9063dfca334a906044016106ab565b604051630d89cfd560e41b81523360048201526001600160a01b0382166024820152600d6044820152600c60648201526001608482015273__$d86b9c30bfd55b3165d64d5ecc75b04e1d$__9063d89cfd509060a4016106ab565b601281815481106108ce57600080fd5b600091825260209091200154905081565b6003546040516309687f0d60e01b81523060048201526001600160a01b039091166024820152600090819073__$275b760113b12808065d8bf3b162eb679a$__906309687f0d9060440160206040518083038186803b15801561094157600080fd5b505af4158015610955573d6000803e3d6000fd5b505050506040513d601f19601f820116820180604052508101906109799190614b44565b6001600160a01b0384166000908152600d6020526040902054909150158061099f575080155b806109aa5750600854155b156109b85750600092915050565b6008546001600160a01b0384166000908152600d6020526040902054670de0b6b3a764000091906109ea908390615d30565b6109f49190615c20565b6109fe9083615d30565b610a089190615c20565b9392505050565b6000610a1b6001612082565b90508015610a33576000805461ff0019166101001790555b601580546001600160a01b03199081167360ae616a2155ee3d9a68541ba4544862310933d4179091556014805490911673e54ca86531e17ef3616d22ca28b0d458b6c89106179055336001600160a01b031663936099df6040518163ffffffff1660e01b8152600401602060405180830381600087803b158015610ab657600080fd5b505af1158015610aca573d6000803e3d6000fd5b505050506040513d601f19601f82011682018060405250810190610aee9190614539565b601680546001600160a01b0319166001600160a01b039283161790556040805161016081018252338152898316602082015285831691810191909152908516606082015230608082015260a0810187905260c08101869052600060e082015261010081018390526101208101610b6d6005670de0b6b3a7640000615c20565b815260016020918201819052825181546001600160a01b03199081166001600160a01b039283161783558484015160028054831691841691909117905560408501516003805483169184169190911790556060850151600480548316918416919091179055608085015160058054909216921691909117905560a083015180519192610bff92600692909101906138cc565b5060c08201518051610c1b9160068401916020909101906138cc565b5060e082015160078201556101008201516008820155610120820151600982015561014090910151600a909101805460ff19169115159190911790558015610c9d576000805461ff0019169055604051600181527f7f26b83ff96e1f2b6a682f133852f6798a09c465da95921460cefb38474024989060200160405180910390a15b50505050505050565b336000908152600d6020526040902054610d285760405162461bcd60e51b815260206004820152603b60248201527f596f752068617665206e6f206f7765726e7368697020696e207468697320776160448201527f6c6c65742c20796f752063616e206e6f742077697468647261772e0000000000606482015260840161056b565b610d30613950565b6003546040516309687f0d60e01b81523060048201526001600160a01b03909116602482015273__$275b760113b12808065d8bf3b162eb679a$__906309687f0d9060440160206040518083038186803b158015610d8d57600080fd5b505af4158015610da1573d6000803e3d6000fd5b505050506040513d601f19601f82011682018060405250810190610dc59190614b44565b60208201819052610dd79033906106de565b6060820152815160011015610e2e5760405162461bcd60e51b815260206004820152601d60248201527f43616e206f6e6c79207377617020696e746f206f6e6520746f6b656e2e000000604482015260640161056b565b80606001518310610e455760608101518152610e49565b8281525b815115610e5d576002610100820152610e66565b60016101008201525b3361012082015260006101a08201523061014082015260405163422d2ce360e01b815273__$07eedf1b0a4d4a77e2aaa4d95c5dabe8ce$__9063422d2ce390610ebc908490600d90600e906001906004016155bb565b60006040518083038186803b158015610ed457600080fd5b505af4158015610ee8573d6000803e3d6000fd5b505050506040513d6000823e601f3d908101601f19168201604052610f1091908101906147fe565b9050600073__$ed2462eab3ff9c975c68b79aa37f92f25b$__63702c530d30846040518363ffffffff1660e01b8152600401610f4d929190615325565b60006040518083038186803b158015610f6557600080fd5b505af4158015610f79573d6000803e3d6000fd5b505050506040513d6000823e601f3d908101601f19168201604052610fa19190810190614af7565b33610120820152905060018261010001511415610fd057610fc18161210f565b60c083015260a082015261105e565b60006011600085600081518110610fe957610fe9615de8565b60200260200101516001600160a01b03166001600160a01b03168152602001908152602001600020541180156110215750600f546001145b1561102f57610fc18161210f565b6110538360008151811061104557611045615de8565b602002602001015182612635565b60c083015260a08201525b606081015151156112055761119760405180610380016040528060006001600160a01b0316815260200160006001600160a01b0316815260200160006001600160a01b03168152602001600081526020016000815260200160008152602001606081526020016060815260200160608152602001606081526020016060815260200160608152602001606081526020016060815260200160608152602001606081526020016060815260200160006001600160a01b0316815260200160006001600160a01b0316815260200160006001600160a01b0316815260200160006001600160a01b0316815260200160006001600160a01b0316815260200160006001600160a01b0316815260200160006001600160a01b03168152602001600081526020016000815260200160008152602001600081525090565b6040516001623ed0b160e11b0319815273__$d86b9c30bfd55b3165d64d5ecc75b04e1d$__9063ff825e9e906111d390859085906004016156c9565b60006040518083038186803b1580156111eb57600080fd5b505af41580156111ff573d6000803e3d6000fd5b50505050505b6040516323faad4560e21b815273__$d86b9c30bfd55b3165d64d5ecc75b04e1d$__90638feab5149061123e90859085906004016155ea565b60006040518083038186803b15801561125657600080fd5b505af415801561126a573d6000803e3d6000fd5b50506003546040516309687f0d60e01b815230600482018190526001600160a01b03909216602482015273__$9135b0e836906f7830df806ed7f5f5e8eb$__935063815e56dc925073__$275b760113b12808065d8bf3b162eb679a$__906309687f0d9060440160206040518083038186803b1580156112e957600080fd5b505af41580156112fd573d6000803e3d6000fd5b505050506040513d601f19601f820116820180604052508101906113219190614b44565b85610100015133876101c001516040518663ffffffff1660e01b815260040161134e959493929190615349565b60006040518083038186803b15801561136657600080fd5b505af415801561137a573d6000803e3d6000fd5b5050505050505050565b6013818154811061139457600080fd5b6000918252602090912001546001600160a01b0316905081565b604080516101608101825260008082526020820181905291810182905260608082018390526080820183905260a0820181905260c082015260e08101829052610100810182905261012081018290526101408101919091526040805161016081018252600180546001600160a01b039081168352600254811660208401526003548116938301939093526004548316606083015260055490921660808201526006805491929160a08401919061146390615d66565b80601f016020809104026020016040519081016040528092919081815260200182805461148f90615d66565b80156114dc5780601f106114b1576101008083540402835291602001916114dc565b820191906000526020600020905b8154815290600101906020018083116114bf57829003601f168201915b505050505081526020016006820180546114f590615d66565b80601f016020809104026020016040519081016040528092919081815260200182805461152190615d66565b801561156e5780601f106115435761010080835404028352916020019161156e565b820191906000526020600020905b81548152906001019060200180831161155157829003601f168201915b5050509183525050600782015460208201526008820154604082015260098201546060820152600a9091015460ff161515608090910152919050565b600f818154811061139457600080fd5b606034156116d6576001546040805163cc093ec160e01b8152905173__$b2694b95fc2cf7d26c605f103d8fd6a536$__92637e66511392889288926001600160a01b03169163cc093ec19160048083019260209291908290030181600087803b15801561162657600080fd5b505af115801561163a573d6000803e3d6000fd5b505050506040513d601f19601f8201168201806040525081019061165e9190614539565b6040518463ffffffff1660e01b815260040161167c939291906153b7565b60006040518083038186803b15801561169457600080fd5b505af41580156116a8573d6000803e3d6000fd5b505050506040513d6000823e601f3d908101601f191682016040526116d091908101906146c3565b90945092505b6117506040518061016001604052806060815260200160608152602001606081526020016060815260200160008152602001600081526020016000815260200160006001600160a01b0316815260200160001515815260200160006001600160a01b0316815260200160006001600160a01b031681525090565b611758613754565b611760613950565b3361012084015260405163288e09b760e01b815273__$07eedf1b0a4d4a77e2aaa4d95c5dabe8ce$__9063288e09b7906117ab908a908a908a90600d90600e906001906004016154a8565b60006040518083038186803b1580156117c357600080fd5b505af41580156117d7573d6000803e3d6000fd5b505050506040513d6000823e601f3d908101601f191682016040526117ff9190810190614832565b6003546001600160a01b0316835261010084015198509096509450925090506118278361210f565b60c085015260a0840152600085611add57604051600162230f8160e21b0319815273__$7f589f9ba993b48eab17aec71d81b78e51$__9063ff73c1fc9061187b90601390601290600f9089906004016154f3565b60206040518083038186803b15801561189357600080fd5b505af41580156118a7573d6000803e3d6000fd5b505050506040513d601f19601f820116820180604052508101906118cb91906147e1565b905080156119905761198b601380548060200260200160405190810160405280929190818152602001828054801561192c57602002820191906000526020600020905b81546001600160a01b0316815260019091019060200180831161190e575b5050505050601280548060200260200160405190810160405280929190818152602001828054801561197d57602002820191906000526020600020905b815481526020019060010190808311611969575b506000935061066492505050565b611cf2565b6119986139f9565b6003546040516309687f0d60e01b815230600482018190526001600160a01b03909216602482015273__$9135b0e836906f7830df806ed7f5f5e8eb$__9163815e56dc9173__$275b760113b12808065d8bf3b162eb679a$__906309687f0d9060440160206040518083038186803b158015611a1357600080fd5b505af4158015611a27573d6000803e3d6000fd5b505050506040513d601f19601f82011682018060405250810190611a4b9190614b44565b8a33866040518663ffffffff1660e01b8152600401611a6e959493929190615349565b60006040518083038186803b158015611a8657600080fd5b505af4158015611a9a573d6000803e3d6000fd5b5050604080518a81523360208201527f6629a3f1a10fbe8759a14f0ed4803cbf066386b20ce4a24fe56c5de03c12aac5935001905060405180910390a150611cf2565b6040516303c7ffab60e61b815273__$b2694b95fc2cf7d26c605f103d8fd6a536$__9063f1ffeac090611b16908690899060040161562b565b60006040518083038186803b158015611b2e57600080fd5b505af4158015611b42573d6000803e3d6000fd5b505050506040513d6000823e601f3d908101601f19168201604052611b6a9190810190614a9e565b600f54604051635e2bb6a760e01b815291975091945073__$b2694b95fc2cf7d26c605f103d8fd6a536$__91635e2bb6a791611bb29187918a90601290601390600401615689565b60006040518083038186803b158015611bca57600080fd5b505af4158015611bde573d6000803e3d6000fd5b50505050611bea6139f9565b6003546040516309687f0d60e01b815230600482018190526001600160a01b03909216602482015273__$9135b0e836906f7830df806ed7f5f5e8eb$__9163815e56dc9173__$275b760113b12808065d8bf3b162eb679a$__906309687f0d9060440160206040518083038186803b158015611c6557600080fd5b505af4158015611c79573d6000803e3d6000fd5b505050506040513d601f19601f82011682018060405250810190611c9d9190614b44565b8a33866040518663ffffffff1660e01b8152600401611cc0959493929190615349565b60006040518083038186803b158015611cd857600080fd5b505af4158015611cec573d6000803e3d6000fd5b50505050505b6040516323faad4560e21b815273__$d86b9c30bfd55b3165d64d5ecc75b04e1d$__90638feab51490611d2b90859088906004016155ea565b60006040518083038186803b158015611d4357600080fd5b505af4158015611d57573d6000803e3d6000fd5b505050505050505050505050565b600854600090611d7757506000919050565b6008546001600160a01b0383166000908152600d6020526040902054611da690670de0b6b3a764000090615d30565b61076c9190615c20565b60005a9050611dbd613754565b306104c08201526003546001600160a01b03168152604051632671818960e21b815273__$7f589f9ba993b48eab17aec71d81b78e51$__906399c6062490611e1590889088908890600f906011908990600401615442565b60006040518083038186803b158015611e2d57600080fd5b505af4158015611e41573d6000803e3d6000fd5b505050506040513d6000823e601f3d908101601f19168201604052611e6991908101906148de565b9050606073__$034600238d76b39751b6ccefa2eaeee90c$__633be0b2ec836040518263ffffffff1660e01b8152600401611ea49190615618565b60006040518083038186803b158015611ebc57600080fd5b505af4158015611ed0573d6000803e3d6000fd5b505050506040513d6000823e601f3d908101601f19168201604052611ef89190810190614912565b9092509050611f078282612e0f565b6003546040516309687f0d60e01b81523060048201526001600160a01b03909116602482015260009073__$275b760113b12808065d8bf3b162eb679a$__906309687f0d9060440160206040518083038186803b158015611f6757600080fd5b505af4158015611f7b573d6000803e3d6000fd5b505050506040513d601f19601f82011682018060405250810190611f9f9190614b44565b604051632c159dcb60e01b815290915073__$7f589f9ba993b48eab17aec71d81b78e51$__90632c159dcb90611fdf9084908a908c903090600401615a58565b60206040518083038186803b158015611ff757600080fd5b505af415801561200b573d6000803e3d6000fd5b505050506040513d601f19601f8201168201806040525081019061202f91906147e1565b5061203b838789613394565b6120436139f9565b60405163205795b760e21b815273__$9135b0e836906f7830df806ed7f5f5e8eb$__9063815e56dc90611d2b90309086908b9033908890600401615349565b60008054610100900460ff16156120c9578160ff1660011480156120a55750303b155b6120c15760405162461bcd60e51b815260040161056b9061556d565b506000919050565b60005460ff8084169116106120f05760405162461bcd60e51b815260040161056b9061556d565b506000805460ff191660ff92909216919091179055600190565b919050565b336101208201526000808080600385608001511461262b5760005b8551518110156124d25760008660000151828151811061214c5761214c615de8565b602002602001015190506000600881111561216957612169615dd2565b8760800151148061217e575060048760800151145b156122c65773__$d86b9c30bfd55b3165d64d5ecc75b04e1d$__634626f70f886000015184815181106121b3576121b3615de8565b6020026020010151896040015185815181106121d1576121d1615de8565b60209081029190910101516101208b01516040516001600160e01b031960e086901b1681526001600160a01b039384166004820152602481019290925282166044820152306064820152908416608482015260a40160006040518083038186803b15801561223e57600080fd5b505af4158015612252573d6000803e3d6000fd5b505050506122b58760000151838151811061226f5761226f615de8565b60200260200101518860400151848151811061228d5761228d615de8565b6020908102919091010151600354601190601090600f906001906001600160a01b031661359d565b6122bf9085615c08565b93506124bf565b6001876080015114156124bf57806001600160a01b031663a9059cbb886101200151896040015185815181106122fe576122fe615de8565b60200260200101516040518363ffffffff1660e01b81526004016123379291906001600160a01b03929092168252602082015260400190565b602060405180830381600087803b15801561235157600080fd5b505af1158015612365573d6000803e3d6000fd5b505050506040513d601f19601f8201168201806040525081019061238991906147e1565b5073__$9ab69f829bb734b874240665e4eacfd1ab$__63af277235601060008a6000015186815181106123be576123be615de8565b60200260200101516001600160a01b03166001600160a01b0316815260200190815260200160002054896000015185815181106123fd576123fd615de8565b60200260200101518a60400151868151811061241b5761241b615de8565b60209081029190910101516003546040516001600160e01b031960e087901b16815261246294939291601191601091600f916001916001600160a01b031690600401615a14565b60206040518083038186803b15801561247a57600080fd5b505af415801561248e573d6000803e3d6000fd5b505050506040513d601f19601f820116820180604052508101906124b29190614b44565b6124bc9085615c08565b93505b50806124ca81615da1565b91505061212a565b5060005b8560200151518110156126295773__$9ab69f829bb734b874240665e4eacfd1ab$__63af277235601060008960200151858151811061251757612517615de8565b60200260200101516001600160a01b03166001600160a01b03168152602001908152602001600020548860200151848151811061255657612556615de8565b60200260200101518960600151858151811061257457612574615de8565b60209081029190910101516003546040516001600160e01b031960e087901b1681526125bb94939291601191601091600f916001916001600160a01b031690600401615a14565b60206040518083038186803b1580156125d357600080fd5b505af41580156125e7573d6000803e3d6000fd5b505050506040513d601f19601f8201168201806040525081019061260b9190614b44565b6126159083615c08565b91508061262181615da1565b9150506124d6565b505b9094909350915050565b600080612640613754565b6003546001600160a01b0316815260405163fe11a73960e01b81526060906000908190839073__$ed2462eab3ff9c975c68b79aa37f92f25b$__9063fe11a73990612695908c90309033908e90600401615383565b60006040518083038186803b1580156126ad57600080fd5b505af41580156126c1573d6000803e3d6000fd5b505050506040513d6000823e601f3d908101601f191682016040526126e99190810190614912565b61018082015191965091501561286e576104a085015161048086015161018087015160405163a9059cbb60e01b81526001600160a01b0384169263a9059cbb92612749926004016001600160a01b03929092168252602082015260400190565b602060405180830381600087803b15801561276357600080fd5b505af1158015612777573d6000803e3d6000fd5b505050506040513d601f19601f8201168201806040525081019061279b91906147e1565b506104a0860180516001600160a01b039081166000908152601060208190526040918290205493516101808b0151600354935163af27723560e01b815273__$9ab69f829bb734b874240665e4eacfd1ab$__9663af277235966128109691956011939092600f92600192911690600401615a14565b60206040518083038186803b15801561282857600080fd5b505af415801561283c573d6000803e3d6000fd5b505050506040513d601f19601f820116820180604052508101906128609190614b44565b61286a9085615c08565b9350505b876101000151156129d55760005b856104600151518110156129d35773__$9ab69f829bb734b874240665e4eacfd1ab$__63af2772356010600089610460015185815181106128bf576128bf615de8565b60200260200101516001600160a01b03166001600160a01b031681526020019081526020016000205488610460015184815181106128ff576128ff615de8565b6020026020010151896103600151858151811061291e5761291e615de8565b60209081029190910101516003546040516001600160e01b031960e087901b16815261296594939291601191601091600f916001916001600160a01b031690600401615a14565b60206040518083038186803b15801561297d57600080fd5b505af4158015612991573d6000803e3d6000fd5b505050506040513d601f19601f820116820180604052508101906129b59190614b44565b6129bf9084615c08565b9250806129cb81615da1565b91505061287c565b505b60008060005b8760400151821015612dfd5760008483815181106129fb576129fb615de8565b6020026020010151905073__$d86b9c30bfd55b3165d64d5ecc75b04e1d$__6340b4e2ce8260800151600081518110612a3657612a36615de8565b602002602001015173__$d86b9c30bfd55b3165d64d5ecc75b04e1d$__6312e366aa85606001516040518263ffffffff1660e01b8152600401612a7b91815260200190565b60206040518083038186803b158015612a9357600080fd5b505af4158015612aa7573d6000803e3d6000fd5b505050506040513d601f19601f82011682018060405250810190612acb9190614539565b308d6102e001518981518110612ae357612ae3615de8565b60209081029190910101516040516001600160e01b031960e087901b1681526001600160a01b039485166004820152928416602484015292166044820152606481019190915260840160006040518083038186803b158015612b4457600080fd5b505af4158015612b58573d6000803e3d6000fd5b50505050600073__$034600238d76b39751b6ccefa2eaeee90c$__63113eb64b83606001518c6102e001518881518110612b9457612b94615de8565b60200260200101518d6102e00151896001612baf9190615c08565b81518110612bbf57612bbf615de8565b602002602001015186608001518f6104800151306040518060400160405280601460009054906101000a90046001600160a01b03166001600160a01b03168152602001601560009054906101000a90046001600160a01b03166001600160a01b03168152506040518863ffffffff1660e01b8152600401612c469796959493929190615a9d565b60006040518083038186803b158015612c5e57600080fd5b505af4158015612c72573d6000803e3d6000fd5b505050506040513d6000823e601f3d908101601f19168201604052612c9a9190810190614788565b905073__$9ab69f829bb734b874240665e4eacfd1ab$__63af277235601060008560800151600081518110612cd157612cd1615de8565b60200260200101516001600160a01b03166001600160a01b03168152602001908152602001600020548460800151600081518110612d1157612d11615de8565b602002602001015184600081518110612d2c57612d2c615de8565b60209081029190910101516003546040516001600160e01b031960e087901b168152612d7394939291601191601091600f916001916001600160a01b031690600401615a14565b60206040518083038186803b158015612d8b57600080fd5b505af4158015612d9f573d6000803e3d6000fd5b505050506040513d601f19601f82011682018060405250810190612dc39190614b44565b612dcd9089615c08565b9750612dda856002615c08565b9450612de7836001615c08565b9250612df4846001615c08565b935050506129db565b50939a92995091975050505050505050565b60008060008060005a90505b8660400151841015610c9d576000868581518110612e3b57612e3b615de8565b6020026020010151905060003090506000896103600151511115612f805773__$9ab69f829bb734b874240665e4eacfd1ab$__63af277235601060008560800151600081518110612e8e57612e8e615de8565b60200260200101516001600160a01b03166001600160a01b03168152602001908152602001600020548460800151600081518110612ece57612ece615de8565b60200260200101518c61036001518881518110612eed57612eed615de8565b602002602001015160116010600f6000806040518963ffffffff1660e01b8152600401612f21989796959493929190615a14565b60206040518083038186803b158015612f3957600080fd5b505af4158015612f4d573d6000803e3d6000fd5b505050506040513d601f19601f82011682018060405250810190612f719190614b44565b50612f7d846001615c08565b93505b73__$d86b9c30bfd55b3165d64d5ecc75b04e1d$__6340b4e2ce8360800151600081518110612fb157612fb1615de8565b602002602001015173__$d86b9c30bfd55b3165d64d5ecc75b04e1d$__6312e366aa86606001516040518263ffffffff1660e01b8152600401612ff691815260200190565b60206040518083038186803b15801561300e57600080fd5b505af4158015613022573d6000803e3d6000fd5b505050506040513d601f19601f820116820180604052508101906130469190614539565b308d6102e001518c8151811061305e5761305e615de8565b60209081029190910101516040516001600160e01b031960e087901b1681526001600160a01b039485166004820152928416602484015292166044820152606481019190915260840160006040518083038186803b1580156130bf57600080fd5b505af41580156130d3573d6000803e3d6000fd5b50505050600073__$034600238d76b39751b6ccefa2eaeee90c$__63113eb64b84606001518c6102e001518b8151811061310f5761310f615de8565b60200260200101518d6102e001518c600161312a9190615c08565b8151811061313a5761313a615de8565b60209081029190910181015160808901516040805180820182526014546001600160a01b0390811682526015541694810194909452516001600160e01b031960e088901b1681526131949594938a91309190600401615a9d565b60006040518083038186803b1580156131ac57600080fd5b505af41580156131c0573d6000803e3d6000fd5b505050506040513d6000823e601f3d908101601f191682016040526131e89190810190614788565b905073__$9ab69f829bb734b874240665e4eacfd1ab$__63af27723560106000866080015160008151811061321f5761321f615de8565b60200260200101516001600160a01b03166001600160a01b0316815260200190815260200160002054856080015160008151811061325f5761325f615de8565b60200260200101518460008151811061327a5761327a615de8565b602002602001015160116010600f6000806040518963ffffffff1660e01b81526004016132ae989796959493929190615a14565b60206040518083038186803b1580156132c657600080fd5b505af41580156132da573d6000803e3d6000fd5b505050506040513d601f19601f820116820180604052508101906132fe9190614b44565b5060808301518051613364919061331790600190615d4f565b8151811061332757613327615de8565b6020026020010151826001845161333e9190615d4f565b8151811061334e5761334e615de8565b602002602001015160116010600f60008061359d565b50613370876001615c08565b965061337d886002615c08565b975061338a866001615c08565b9550505050612e1b565b604051632d2acfc960e01b815273__$7f589f9ba993b48eab17aec71d81b78e51$__90632d2acfc9906133cf90869086908690600401615650565b60006040518083038186803b1580156133e757600080fd5b505af41580156133fb573d6000803e3d6000fd5b505050506040513d6000823e601f3d908101601f1916820160405261342391908101906148de565b9250826103800151516001600160401b0381111561344357613443615dfe565b60405190808252806020026020018201604052801561346c578160200160208202803683370190505b50805161348191601291602090910190613a5e565b50826104200151516001600160401b038111156134a0576134a0615dfe565b6040519080825280602002602001820160405280156134c9578160200160208202803683370190505b5080516134de91601391602090910190613a98565b5060005b8361038001515181101561066957836103800151818151811061350757613507615de8565b60200260200101516012828154811061352257613522615de8565b9060005260206000200181905550836104200151818151811061354757613547615de8565b60200260200101516013828154811061356257613562615de8565b600091825260209091200180546001600160a01b0319166001600160a01b03929092169190911790558061359581615da1565b9150506134e2565b6001600160a01b0387166000908152602086905260408120546135f75783546001600160a01b0389166000818152602088815260408220849055600184018855878252902090910180546001600160a01b03191690911790555b6001600160a01b03881660009081526020879052604090205461361b908890615c08565b6001600160a01b038916600090815260208890526040902055821561374957876001600160a01b031663313ce5676040518163ffffffff1660e01b815260040160206040518083038186803b15801561367357600080fd5b505afa158015613687573d6000803e3d6000fd5b505050506040513d601f19601f820116820180604052508101906136ab9190614b99565b6136b690600a615c85565b6040516341976e0960e01b81526001600160a01b038a811660048301528991908516906341976e099060240160206040518083038186803b1580156136fa57600080fd5b505afa15801561370e573d6000803e3d6000fd5b505050506040513d601f19601f820116820180604052508101906137329190614b44565b61373c9190615d30565b6137469190615c20565b90505b979650505050505050565b60405180610580016040528060006001600160a01b03168152602001600081526020016000815260200160001515815260200160001515815260200160001515815260200160008152602001600081526020016000815260200160008152602001600081526020016000815260200160008152602001600081526020016000815260200160008152602001600081526020016000815260200160008152602001600081526020016000815260200160008152602001600081526020016060815260200160608152602001606081526020016060815260200160608152602001606081526020016060815260200160608152602001606081526020016060815260200160608152602001606081526020016060815260200160006001600160a01b0316815260200160006001600160a01b0316815260200160006001600160a01b03168152602001606081526020016000151581526020016060815260200160006001600160a01b031681526020016000151581525090565b8280546138d890615d66565b90600052602060002090601f0160209004810192826138fa5760008555613940565b82601f1061391357805160ff1916838001178555613940565b82800160010185558215613940579182015b82811115613940578251825591602001919060010190613925565b5061394c929150613aed565b5090565b60405180610200016040528060008152602001600081526020016000815260200160008152602001600081526020016000815260200160008152602001600081526020016000815260200160006001600160a01b0316815260200160006001600160a01b0316815260200160006001600160a01b0316815260200160006001600160a01b031681526020016000151581526020016139ec6139f9565b8152602001606081525090565b604051806101800160405280600081526020016000815260200160008152602001600081526020016000815260200160008152602001600081526020016000815260200160008152602001600015158152602001600015158152602001606081525090565b8280548282559060005260206000209081019282156139405791602002820182811115613940578251825591602001919060010190613925565b828054828255906000526020600020908101928215613940579160200282015b8281111561394057825182546001600160a01b0319166001600160a01b03909116178255602090920191600190910190613ab8565b5b8082111561394c5760008155600101613aee565b805161210a81615e14565b600082601f830112613b1e57600080fd5b81356020613b33613b2e83615be5565b615bb5565b80838252828201915082860187848660051b8901011115613b5357600080fd5b60005b85811015613b7b578135613b6981615e14565b84529284019290840190600101613b56565b5090979650505050505050565b600082601f830112613b9957600080fd5b81516020613ba9613b2e83615be5565b80838252828201915082860187848660051b8901011115613bc957600080fd5b60005b85811015613b7b578151613bdf81615e14565b84529284019290840190600101613bcc565b600082601f830112613c0257600080fd5b81516020613c12613b2e83615be5565b8281528181019085830161016080860288018501891015613c3257600080fd5b6000805b87811015613cd65782848c031215613c4c578182fd5b613c54615b00565b613c5d85613b02565b8152848801518882015260408086015190820152606080860151908201526080808601519082015260a0808601519082015260c0808601519082015260e0808601519082015261010080860151908201526101208086015190820152610140808601519082015286529486019492820192600101613c36565b50929998505050505050505050565b600082601f830112613cf657600080fd5b81356020613d06613b2e83615be5565b80838252828201915082860187848660051b8901011115613d2657600080fd5b60005b85811015613b7b57813584529284019290840190600101613d29565b600082601f830112613d5657600080fd5b81516020613d66613b2e83615be5565b80838252828201915082860187848660051b8901011115613d8657600080fd5b60005b85811015613b7b57815184529284019290840190600101613d89565b805161210a81615e2c565b600082601f830112613dc157600080fd5b81356001600160401b03811115613dda57613dda615dfe565b613ded601f8201601f1916602001615bb5565b818152846020838601011115613e0257600080fd5b816020850160208301376000918101602001919091529392505050565b60006101808284031215613e3257600080fd5b613e3a615b29565b9050815181526020820151602082015260408201516040820152606082015160608201526080820151608082015260a082015160a082015260c082015160c082015260e082015160e0820152610100808301518183015250610120613ea0818401613da5565b90820152610140613eb2838201613da5565b90820152610160828101516001600160401b03811115613ed157600080fd5b613edd85828601613d45565b82840152505092915050565b60006102008284031215613efc57600080fd5b613f04615b4c565b9050815181526020820151602082015260408201516040820152606082015160608201526080820151608082015260a082015160a082015260c082015160c082015260e082015160e0820152610100808301518183015250610120613f6a818401613b02565b90820152610140613f7c838201613b02565b90820152610160613f8e838201613b02565b90820152610180613fa0838201613b02565b908201526101a0613fb2838201613da5565b908201526101c0828101516001600160401b0380821115613fd257600080fd5b613fde86838701613e1f565b838501526101e0925082850151915080821115613ffa57600080fd5b50613edd85828601613b88565b6000610580828403121561401a57600080fd5b614022615b6f565b905061402d82613b02565b8152602082015160208201526040820151604082015261404f60608301613da5565b606082015261406060808301613da5565b608082015261407160a08301613da5565b60a082015260c0828101519082015260e08083015190820152610100808301519082015261012080830151908201526101408083015190820152610160808301519082015261018080830151908201526101a080830151908201526101c080830151908201526101e08083015190820152610200808301519082015261022080830151908201526102408083015190820152610260808301519082015261028080830151908201526102a080830151908201526102c080830151908201526102e0808301516001600160401b038082111561414b57600080fd5b61415786838701613d45565b8385015261030092508285015191508082111561417357600080fd5b61417f86838701613d45565b8385015261032092508285015191508082111561419b57600080fd5b6141a786838701613d45565b838501526103409250828501519150808211156141c357600080fd5b6141cf86838701613d45565b838501526103609250828501519150808211156141eb57600080fd5b6141f786838701613d45565b8385015261038092508285015191508082111561421357600080fd5b61421f86838701613d45565b838501526103a092508285015191508082111561423b57600080fd5b61424786838701613b88565b838501526103c092508285015191508082111561426357600080fd5b61426f86838701613b88565b838501526103e092508285015191508082111561428b57600080fd5b61429786838701613b88565b838501526104009250828501519150808211156142b357600080fd5b6142bf86838701613b88565b838501526104209250828501519150808211156142db57600080fd5b6142e786838701613b88565b8385015261044092508285015191508082111561430357600080fd5b61430f86838701613b88565b8385015261046092508285015191508082111561432b57600080fd5b61433786838701613b88565b83850152610480925061434b838601613b02565b838501526104a0925061435f838601613b02565b838501526104c09250614373838601613b02565b838501526104e092508285015191508082111561438f57600080fd5b61439b86838701613d45565b8385015261050092506143af838601613da5565b838501526105209250828501519150808211156143cb57600080fd5b506143d885828601613b88565b8284015250506105406143ec818401613b02565b908201526105606143fe838201613da5565b9082015292915050565b6000610160828403121561441b57600080fd5b614423615b00565b905081516001600160401b038082111561443c57600080fd5b61444885838601613b88565b8352602084015191508082111561445e57600080fd5b61446a85838601613b88565b6020840152604084015191508082111561448357600080fd5b61448f85838601613d45565b604084015260608401519150808211156144a857600080fd5b506144b584828501613d45565b6060830152506080820151608082015260a082015160a082015260c082015160c08201526144e560e08301613b02565b60e08201526101006144f8818401613da5565b9082015261012061450a838201613b02565b908201526101406143fe838201613b02565b60006020828403121561452e57600080fd5b8135610a0881615e14565b60006020828403121561454b57600080fd5b8151610a0881615e14565b6000806040838503121561456957600080fd5b823561457481615e14565b9150602083013561458481615e14565b809150509250929050565b60008060008060008060c087890312156145a857600080fd5b86356145b381615e14565b955060208701356001600160401b03808211156145cf57600080fd5b6145db8a838b01613db0565b965060408901359150808211156145f157600080fd5b506145fe89828a01613db0565b945050606087013561460f81615e14565b9250608087013561461f81615e14565b8092505060a087013590509295509295509295565b6000806040838503121561464757600080fd5b823561465281615e14565b946020939093013593505050565b6000806040838503121561467357600080fd5b82356001600160401b038082111561468a57600080fd5b61469686838701613b0d565b935060208501359150808211156146ac57600080fd5b506146b985828601613ce5565b9150509250929050565b600080604083850312156146d657600080fd5b82516001600160401b03808211156146ed57600080fd5b6146f986838701613b88565b9350602085015191508082111561470f57600080fd5b506146b985828601613d45565b60008060006060848603121561473157600080fd5b83356001600160401b038082111561474857600080fd5b61475487838801613b0d565b9450602086013591508082111561476a57600080fd5b5061477786828701613ce5565b925050604084013590509250925092565b60006020828403121561479a57600080fd5b81516001600160401b038111156147b057600080fd5b6147bc84828501613d45565b949350505050565b6000602082840312156147d657600080fd5b8135610a0881615e2c565b6000602082840312156147f357600080fd5b8151610a0881615e2c565b60006020828403121561481057600080fd5b81516001600160401b0381111561482657600080fd5b6147bc84828501613ee9565b6000806000806080858703121561484857600080fd5b84516001600160401b038082111561485f57600080fd5b61486b88838901613ee9565b9550602087015191508082111561488157600080fd5b61488d88838901614007565b945060408701519150808211156148a357600080fd5b6148af88838901613bf1565b935060608701519150808211156148c557600080fd5b506148d287828801614408565b91505092959194509250565b6000602082840312156148f057600080fd5b81516001600160401b0381111561490657600080fd5b6147bc84828501614007565b6000806040838503121561492557600080fd5b82516001600160401b038082111561493c57600080fd5b61494886838701614007565b935060209150818501518181111561495f57600080fd5b8501601f8101871361497057600080fd5b805161497e613b2e82615be5565b8082825285820191508584018a878560051b870101111561499e57600080fd5b60005b84811015614a8d578151878111156149b857600080fd5b8601610140818e03601f190112156149cf57600080fd5b6149d7615b92565b89820151815260408201518a820152606082015160408201526080820151606082015260a082015189811115614a0c57600080fd5b614a1a8f8c83860101613b88565b608083015250614a2c60c08301613da5565b60a0820152614a3d60e08301613da5565b60c0820152614a4f6101008301613da5565b60e0820152614a616101208301613b02565b610100820152614a746101408301613b02565b61012082015285525092870192908701906001016149a1565b50979a909950975050505050505050565b60008060408385031215614ab157600080fd5b82516001600160401b0380821115614ac857600080fd5b614ad486838701614007565b93506020850151915080821115614aea57600080fd5b506146b985828601613bf1565b600060208284031215614b0957600080fd5b81516001600160401b03811115614b1f57600080fd5b6147bc84828501614408565b600060208284031215614b3d57600080fd5b5035919050565b600060208284031215614b5657600080fd5b5051919050565b60008060408385031215614b7057600080fd5b8235915060208301356001600160401b03811115614b8d57600080fd5b6146b985828601613b0d565b600060208284031215614bab57600080fd5b815160ff81168114610a0857600080fd5b600081518084526020808501945080840160005b83811015614bf55781516001600160a01b031687529582019590820190600101614bd0565b509495945050505050565b6000815480845260208085019450836000528060002060005b83811015614bf55781546001600160a01b031687529582019560019182019101614c19565b600081518084526020808501945080840160005b83811015614bf557815180516001600160a01b03168852808401518885015260408082015190890152606080820151908901526080808201519089015260a0808201519089015260c0808201519089015260e080820151908901526101008082015190890152610120808201519089015261014090810151908801526101609096019590820190600101614c52565b600081518084526020808501945080840160005b83811015614bf557815187529582019590820190600101614cf5565b6000815180845260005b81811015614d3757602081850181015186830182015201614d1b565b81811115614d49576000602083870101525b50601f01601f19169290920160200192915050565b6000610180825184526020830151602085015260408301516040850152606083015160608501526080830151608085015260a083015160a085015260c083015160c085015260e083015160e085015261010080840151818601525061012080840151614dcd8287018215159052565b50506101408381015115159085015261016080840151818601839052614df583870182614ce1565b9695505050505050565b6000610200825184526020830151602085015260408301516040850152606083015160608501526080830151608085015260a083015160a085015260c083015160c085015260e083015160e085015261010080840151818601525061012080840151614e75828701826001600160a01b03169052565b5050610140838101516001600160a01b03908116918601919091526101608085015182169086015261018080850151909116908501526101a0808401511515908501526101c080840151818601839052614ed183870182614d5e565b925050506101e08084015185830382870152614df58382614bbc565b80516001600160a01b03168252600061058060208301516020850152604083015160408501526060830151614f26606086018215159052565b506080830151614f3a608086018215159052565b5060a0830151614f4e60a086018215159052565b5060c0838101519085015260e08084015190850152610100808401519085015261012080840151908501526101408084015190850152610160808401519085015261018080840151908501526101a080840151908501526101c080840151908501526101e08084015190850152610200808401519085015261022080840151908501526102408084015190850152610260808401519085015261028080840151908501526102a080840151908501526102c080840151908501526102e08084015181860183905261502183870182614ce1565b92505050610300808401518583038287015261503d8382614ce1565b9250505061032080840151858303828701526150598382614ce1565b9250505061034080840151858303828701526150758382614ce1565b9250505061036080840151858303828701526150918382614ce1565b9250505061038080840151858303828701526150ad8382614ce1565b925050506103a080840151858303828701526150c98382614bbc565b925050506103c080840151858303828701526150e58382614bbc565b925050506103e080840151858303828701526151018382614bbc565b92505050610400808401518583038287015261511d8382614bbc565b9250505061042080840151858303828701526151398382614bbc565b9250505061044080840151858303828701526151558382614bbc565b9250505061046080840151858303828701526151718382614bbc565b9250505061048080840151615190828701826001600160a01b03169052565b50506104a0838101516001600160a01b0381168683015250506104c0838101516001600160a01b0381168683015250506104e080840151858303828701526151d88382614ce1565b92505050610500808401516151f08287018215159052565b5050610520808401518583038287015261520a8382614bbc565b9250505061054080840151615229828701826001600160a01b03169052565b505061056083810151801515868301525b5090949350505050565b6000610160825181855261525a82860182614bbc565b915050602083015184820360208601526152748282614bbc565b9150506040830151848203604086015261528e8282614ce1565b915050606083015184820360608601526152a88282614ce1565b9150506080830151608085015260a083015160a085015260c083015160c085015260e08301516152e360e08601826001600160a01b03169052565b5061010083810151801515868301525050610120838101516001600160a01b038116868301525050610140838101516001600160a01b0381168683015261523a565b6001600160a01b03831681526040602082018190526000906147bc90830184614dff565b6001600160a01b03868116825260208201869052604082018590528316606082015260a06080820181905260009061374990830184614d5e565b6001600160a01b038581168252848116602083015283166040820152608060608201819052600090614df590830184615244565b6060815260006153ca6060830186614bbc565b82810360208401526153dc8186614ce1565b91505060018060a01b0383166040830152949350505050565b6080815260006154086080830187614bbc565b828103602084015261541a8187614ce1565b9050828103604084015261542e8186614c00565b905082810360608401526137498185614eed565b60c08152600061545560c0830189614bbc565b82810360208401526154678189614ce1565b905086604084015282810360608401526154818187614c00565b905084608084015282810360a084015261549b8185614eed565b9998505050505050505050565b60c0815260006154bb60c0830189614bbc565b82810360208401526154cd8189614ce1565b9150508560408301528460608301528360808301528260a0830152979650505050505050565b6080815260006155066080830187614c00565b60208382038185015281875480845282840191508860005282600020935060005b8181101561554357845483526001948501949284019201615527565b505084810360408601526155578188614c00565b9250505082810360608401526137498185614eed565b6020808252602e908201527f496e697469616c697a61626c653a20636f6e747261637420697320616c72656160408201526d191e481a5b9a5d1a585b1a5e995960921b606082015260800190565b6080815260006155ce6080830187614dff565b6020830195909552506040810192909252606090910152919050565b6040815260006155fd6040830185614dff565b828103602084015261560f8185615244565b95945050505050565b6020815260006107696020830184614eed565b60408152600061563e6040830185614eed565b828103602084015261560f8185614c3e565b6060815260006156636060830186614eed565b82810360208401526156758186614ce1565b90508281036040840152614df58185614bbc565b60a08152600061569c60a0830188614eed565b86602084015282810360408401526156b48187614c3e565b60608401959095525050608001529392505050565b6040815260006156dc6040830185615244565b828103602084015283516001600160a01b03168152610380602085015161570e60208401826001600160a01b03169052565b50604085015161572960408401826001600160a01b03169052565b50606085015160608301526080850151608083015260a085015160a083015260c08501518160c084015261575f82840182614bbc565b91505060e085015182820360e08401526157798282614ce1565b91505061010080860151838303828501526157948382614ce1565b9250505061012080860151838303828501526157b08382614ce1565b9250505061014080860151838303828501526157cc8382614ce1565b9250505061016080860151838303828501526157e88382614ce1565b9250505061018080860151838303828501526158048382614ce1565b925050506101a080860151838303828501526158208382614bbc565b925050506101c0808601518383038285015261583c8382614ce1565b925050506101e080860151838303828501526158588382614ce1565b9250505061020080860151838303828501526158748382614bbc565b9250505061022080860151615893828501826001600160a01b03169052565b5050610240858101516001600160a01b039081169184019190915261026080870151821690840152610280808701518216908401526102a0808701518216908401526102c0808701518216908401526102e08087015190911690830152610300808601519083015261032080860151908301526103408086015190830152610360948501519490910193909352509092915050565b602081526159426020820183516001600160a01b03169052565b6000602083015161595e60408401826001600160a01b03169052565b5060408301516001600160a01b03811660608401525060608301516001600160a01b03811660808401525060808301516001600160a01b03811660a08401525060a08301516101608060c08501526159ba610180850183614d11565b915060c0850151601f198584030160e08601526159d78382614d11565b60e087015161010087810191909152870151610120808801919091528701516101408088019190915287015180151584880152909350905061523a565b9788526001600160a01b03968716602089015260408801959095526060870193909352608086019190915260a0850152151560c08401521660e08201526101000190565b848152608060208201526000615a716080830186614ce1565b8281036040840152615a838186614bbc565b91505060018060a01b038316606083015295945050505050565b6000610100898352886020840152876040840152806060840152615ac381840188614bbc565b6001600160a01b03968716608085015294861660a084015250508151841660c082015260209091015190921660e090920191909152949350505050565b60405161016081016001600160401b0381118282101715615b2357615b23615dfe565b60405290565b60405161018081016001600160401b0381118282101715615b2357615b23615dfe565b60405161020081016001600160401b0381118282101715615b2357615b23615dfe565b60405161058081016001600160401b0381118282101715615b2357615b23615dfe565b60405161014081016001600160401b0381118282101715615b2357615b23615dfe565b604051601f8201601f191681016001600160401b0381118282101715615bdd57615bdd615dfe565b604052919050565b60006001600160401b03821115615bfe57615bfe615dfe565b5060051b60200190565b60008219821115615c1b57615c1b615dbc565b500190565b600082615c3d57634e487b7160e01b600052601260045260246000fd5b500490565b600181815b80851115615c7d578160001904821115615c6357615c63615dbc565b80851615615c7057918102915b93841c9390800290615c47565b509250929050565b600061076960ff841683600082615c9e5750600161076c565b81615cab5750600061076c565b8160018114615cc15760028114615ccb57615ce7565b600191505061076c565b60ff841115615cdc57615cdc615dbc565b50506001821b61076c565b5060208310610133831016604e8410600b8410161715615d0a575081810a61076c565b615d148383615c42565b8060001904821115615d2857615d28615dbc565b029392505050565b6000816000190483118215151615615d4a57615d4a615dbc565b500290565b600082821015615d6157615d61615dbc565b500390565b600181811c90821680615d7a57607f821691505b60208210811415615d9b57634e487b7160e01b600052602260045260246000fd5b50919050565b6000600019821415615db557615db5615dbc565b5060010190565b634e487b7160e01b600052601160045260246000fd5b634e487b7160e01b600052602160045260246000fd5b634e487b7160e01b600052603260045260246000fd5b634e487b7160e01b600052604160045260246000fd5b6001600160a01b0381168114615e2957600080fd5b50565b8015158114615e2957600080fdfea264697066735822122045087c85aaa777597ceafad7bcbe7c85b4e06a13cca9624db78d832ebf99dbc864736f6c63430008070033",
  "linkReferences": {
    "contracts/DepositWithdrawLibraries/DepositLibrary.sol": {
      "DepositLibrary": [
        {
          "length": 20,
          "start": 5624
        },
        {
          "length": 20,
          "start": 6925
        },
        {
          "length": 20,
          "start": 7075
        }
      ]
    },
    "contracts/DepositWithdrawLibraries/WithdrawLibrary.sol": {
      "WithdrawLibrary": [
        {
          "length": 20,
          "start": 3895
        },
        {
          "length": 20,
          "start": 9864
        }
      ]
    },
    "contracts/Pricing/PricesLibrary.sol": {
      "PricesLibrary": [
        {
          "length": 20,
          "start": 2349
        },
        {
          "length": 20,
          "start": 3449
        },
        {
          "length": 20,
          "start": 4821
        },
        {
          "length": 20,
          "start": 6655
        },
        {
          "length": 20,
          "start": 7249
        },
        {
          "length": 20,
          "start": 8019
        }
      ]
    },
    "contracts/ProsperoWalletLibraries/EventsLibrary.sol": {
      "EventsLibrary": [
        {
          "length": 20,
          "start": 4791
        },
        {
          "length": 20,
          "start": 6627
        },
        {
          "length": 20,
          "start": 7221
        },
        {
          "length": 20,
          "start": 8307
        }
      ]
    },
    "contracts/ProsperoWalletLibraries/PercentageOwnershipLibrary.sol": {
      "PercentageOwnershipLibrary": [
        {
          "length": 20,
          "start": 3756
        },
        {
          "length": 20,
          "start": 6039
        }
      ]
    },
    "contracts/ProsperoWalletLibraries/ProsperoWalletLibrary.sol": {
      "ProsperoWalletLibrary": [
        {
          "length": 20,
          "start": 1710
        },
        {
          "length": 20,
          "start": 2146
        },
        {
          "length": 20,
          "start": 2237
        },
        {
          "length": 20,
          "start": 4554
        },
        {
          "length": 20,
          "start": 4661
        },
        {
          "length": 20,
          "start": 7458
        },
        {
          "length": 20,
          "start": 8614
        },
        {
          "length": 20,
          "start": 10792
        },
        {
          "length": 20,
          "start": 10849
        },
        {
          "length": 20,
          "start": 12195
        },
        {
          "length": 20,
          "start": 12252
        }
      ]
    },
    "contracts/ProsperoWalletLibraries/TokenBalancesLibrary.sol": {
      "TokenBalancesLibrary": [
        {
          "length": 20,
          "start": 9133
        },
        {
          "length": 20,
          "start": 9478
        },
        {
          "length": 20,
          "start": 10235
        },
        {
          "length": 20,
          "start": 10413
        },
        {
          "length": 20,
          "start": 11455
        },
        {
          "length": 20,
          "start": 11900
        },
        {
          "length": 20,
          "start": 12813
        }
      ]
    },
    "contracts/RebalanceLibraries/RebalanceHelperLibrary.sol": {
      "RebalanceHelperLibrary": [
        {
          "length": 20,
          "start": 1472
        },
        {
          "length": 20,
          "start": 6251
        },
        {
          "length": 20,
          "start": 7682
        },
        {
          "length": 20,
          "start": 8146
        },
        {
          "length": 20,
          "start": 13252
        }
      ]
    },
    "contracts/RebalanceLibraries/RouteOptimizerLibrary.sol": {
      "RouteOptimizerLibrary": [
        {
          "length": 20,
          "start": 7824
        },
        {
          "length": 20,
          "start": 11137
        },
        {
          "length": 20,
          "start": 12540
        }
      ]
    }
  },
  "deployedLinkReferences": {
    "contracts/DepositWithdrawLibraries/DepositLibrary.sol": {
      "DepositLibrary": [
        {
          "length": 20,
          "start": 5591
        },
        {
          "length": 20,
          "start": 6892
        },
        {
          "length": 20,
          "start": 7042
        }
      ]
    },
    "contracts/DepositWithdrawLibraries/WithdrawLibrary.sol": {
      "WithdrawLibrary": [
        {
          "length": 20,
          "start": 3862
        },
        {
          "length": 20,
          "start": 9831
        }
      ]
    },
    "contracts/Pricing/PricesLibrary.sol": {
      "PricesLibrary": [
        {
          "length": 20,
          "start": 2316
        },
        {
          "length": 20,
          "start": 3416
        },
        {
          "length": 20,
          "start": 4788
        },
        {
          "length": 20,
          "start": 6622
        },
        {
          "length": 20,
          "start": 7216
        },
        {
          "length": 20,
          "start": 7986
        }
      ]
    },
    "contracts/ProsperoWalletLibraries/EventsLibrary.sol": {
      "EventsLibrary": [
        {
          "length": 20,
          "start": 4758
        },
        {
          "length": 20,
          "start": 6594
        },
        {
          "length": 20,
          "start": 7188
        },
        {
          "length": 20,
          "start": 8274
        }
      ]
    },
    "contracts/ProsperoWalletLibraries/PercentageOwnershipLibrary.sol": {
      "PercentageOwnershipLibrary": [
        {
          "length": 20,
          "start": 3723
        },
        {
          "length": 20,
          "start": 6006
        }
      ]
    },
    "contracts/ProsperoWalletLibraries/ProsperoWalletLibrary.sol": {
      "ProsperoWalletLibrary": [
        {
          "length": 20,
          "start": 1677
        },
        {
          "length": 20,
          "start": 2113
        },
        {
          "length": 20,
          "start": 2204
        },
        {
          "length": 20,
          "start": 4521
        },
        {
          "length": 20,
          "start": 4628
        },
        {
          "length": 20,
          "start": 7425
        },
        {
          "length": 20,
          "start": 8581
        },
        {
          "length": 20,
          "start": 10759
        },
        {
          "length": 20,
          "start": 10816
        },
        {
          "length": 20,
          "start": 12162
        },
        {
          "length": 20,
          "start": 12219
        }
      ]
    },
    "contracts/ProsperoWalletLibraries/TokenBalancesLibrary.sol": {
      "TokenBalancesLibrary": [
        {
          "length": 20,
          "start": 9100
        },
        {
          "length": 20,
          "start": 9445
        },
        {
          "length": 20,
          "start": 10202
        },
        {
          "length": 20,
          "start": 10380
        },
        {
          "length": 20,
          "start": 11422
        },
        {
          "length": 20,
          "start": 11867
        },
        {
          "length": 20,
          "start": 12780
        }
      ]
    },
    "contracts/RebalanceLibraries/RebalanceHelperLibrary.sol": {
      "RebalanceHelperLibrary": [
        {
          "length": 20,
          "start": 1439
        },
        {
          "length": 20,
          "start": 6218
        },
        {
          "length": 20,
          "start": 7649
        },
        {
          "length": 20,
          "start": 8113
        },
        {
          "length": 20,
          "start": 13219
        }
      ]
    },
    "contracts/RebalanceLibraries/RouteOptimizerLibrary.sol": {
      "RouteOptimizerLibrary": [
        {
          "length": 20,
          "start": 7791
        },
        {
          "length": 20,
          "start": 11104
        },
        {
          "length": 20,
          "start": 12507
        }
      ]
    }
  }
}