{
  "_format": "hh-sol-artifact-1",
  "contractName": "SubnetHelperContract",
  "sourceName": "contracts/Subnets/SubnetHelperContract.sol",
  "abi": [
    {
      "inputs": [],
      "stateMutability": "nonpayable",
      "type": "constructor"
    },
    {
      "inputs": [
        {
          "internalType": "address",
          "name": "newDeployer",
          "type": "address"
        }
      ],
      "name": "addDeployerAndFundWithStartingTokens",
      "outputs": [],
      "stateMutability": "nonpayable",
      "type": "function"
    },
    {
      "inputs": [
        {
          "internalType": "address",
          "name": "tokenSubnetAddress",
          "type": "address"
        },
        {
          "internalType": "address",
          "name": "cChainAddress",
          "type": "address"
        },
        {
          "internalType": "string",
          "name": "tokenSymbol",
          "type": "string"
        },
        {
          "internalType": "string",
          "name": "tokenName",
          "type": "string"
        }
      ],
      "name": "addFakeToken",
      "outputs": [],
      "stateMutability": "nonpayable",
      "type": "function"
    },
    {
      "inputs": [
        {
          "internalType": "address",
          "name": "",
          "type": "address"
        }
      ],
      "name": "cChainAddressToSubnetAddress",
      "outputs": [
        {
          "internalType": "address",
          "name": "",
          "type": "address"
        }
      ],
      "stateMutability": "view",
      "type": "function"
    },
    {
      "inputs": [
        {
          "internalType": "string[]",
          "name": "_tokenNames",
          "type": "string[]"
        },
        {
          "internalType": "string[]",
          "name": "_tokenSymbols",
          "type": "string[]"
        },
        {
          "internalType": "address[]",
          "name": "cChainAddresses",
          "type": "address[]"
        }
      ],
      "name": "deployFakeSubnetTokens",
      "outputs": [],
      "stateMutability": "nonpayable",
      "type": "function"
    },
    {
      "inputs": [
        {
          "internalType": "uint256",
          "name": "amountSendingOut",
          "type": "uint256"
        },
        {
          "internalType": "address",
          "name": "addressToSendTo",
          "type": "address"
        },
        {
          "internalType": "address",
          "name": "addressOfErc20TokenGoingOut",
          "type": "address"
        }
      ],
      "name": "fakeSwapSendTo",
      "outputs": [],
      "stateMutability": "nonpayable",
      "type": "function"
    },
    {
      "inputs": [],
      "name": "getAllTokensOnSubnet",
      "outputs": [
        {
          "internalType": "address[]",
          "name": "",
          "type": "address[]"
        }
      ],
      "stateMutability": "view",
      "type": "function"
    },
    {
      "inputs": [],
      "name": "getBlockNumber",
      "outputs": [
        {
          "internalType": "uint256",
          "name": "",
          "type": "uint256"
        }
      ],
      "stateMutability": "view",
      "type": "function"
    },
    {
      "inputs": [
        {
          "internalType": "address",
          "name": "cChainAddress",
          "type": "address"
        }
      ],
      "name": "getSubnetAddressForCChainAddress",
      "outputs": [
        {
          "internalType": "address",
          "name": "",
          "type": "address"
        }
      ],
      "stateMutability": "view",
      "type": "function"
    },
    {
      "inputs": [
        {
          "internalType": "string",
          "name": "tokenSymbol",
          "type": "string"
        }
      ],
      "name": "getSubnetAddressForSymbol",
      "outputs": [
        {
          "internalType": "address",
          "name": "",
          "type": "address"
        }
      ],
      "stateMutability": "view",
      "type": "function"
    },
    {
      "inputs": [
        {
          "internalType": "string",
          "name": "tokenName",
          "type": "string"
        },
        {
          "internalType": "string",
          "name": "tokenSymbol",
          "type": "string"
        },
        {
          "internalType": "address",
          "name": "cChainAddress",
          "type": "address"
        }
      ],
      "name": "makeFakeToken",
      "outputs": [],
      "stateMutability": "nonpayable",
      "type": "function"
    },
    {
      "inputs": [
        {
          "internalType": "address",
          "name": "anAd",
          "type": "address"
        }
      ],
      "name": "testMultiPrecompil",
      "outputs": [
        {
          "internalType": "uint256",
          "name": "",
          "type": "uint256"
        }
      ],
      "stateMutability": "view",
      "type": "function"
    },
    {
      "inputs": [
        {
          "internalType": "address",
          "name": "prosperoPricesAddress",
          "type": "address"
        },
        {
          "internalType": "address",
          "name": "anAd",
          "type": "address"
        }
      ],
      "name": "testP",
      "outputs": [
        {
          "internalType": "uint256",
          "name": "",
          "type": "uint256"
        }
      ],
      "stateMutability": "view",
      "type": "function"
    },
    {
      "inputs": [
        {
          "internalType": "string",
          "name": "",
          "type": "string"
        }
      ],
      "name": "tokenNameToSubnetAddress",
      "outputs": [
        {
          "internalType": "address",
          "name": "",
          "type": "address"
        }
      ],
      "stateMutability": "view",
      "type": "function"
    },
    {
      "inputs": [
        {
          "internalType": "address",
          "name": "",
          "type": "address"
        }
      ],
      "name": "tokenSubnetAddressToActualCChainAddress",
      "outputs": [
        {
          "internalType": "address",
          "name": "",
          "type": "address"
        }
      ],
      "stateMutability": "view",
      "type": "function"
    },
    {
      "inputs": [
        {
          "internalType": "address",
          "name": "",
          "type": "address"
        }
      ],
      "name": "tokenSubnetAddressToSymbol",
      "outputs": [
        {
          "internalType": "string",
          "name": "",
          "type": "string"
        }
      ],
      "stateMutability": "view",
      "type": "function"
    },
    {
      "inputs": [
        {
          "internalType": "string",
          "name": "",
          "type": "string"
        }
      ],
      "name": "tokenSymbolToSubnetAddress",
      "outputs": [
        {
          "internalType": "address",
          "name": "",
          "type": "address"
        }
      ],
      "stateMutability": "view",
      "type": "function"
    },
    {
      "inputs": [
        {
          "internalType": "address",
          "name": "_allowedAddress",
          "type": "address"
        }
      ],
      "name": "updateAllowedAddress",
      "outputs": [],
      "stateMutability": "nonpayable",
      "type": "function"
    }
  ],
  "bytecode": "0x608060405234801561001057600080fd5b5060008054336001600160a01b03199182168117835560018054909216179055612f8690819061004090396000f3fe60806040523480156200001157600080fd5b5060043610620001215760003560e01c80634bedf42a11620000af5780639790b69a116200007a5780639790b69a14620002cb57806398e789a51462000302578063d25c63081462000319578063d6f3c6e51462000330578063f801decf146200034757600080fd5b80634bedf42a14620002455780635f17c412146200025c5780636d332f9a146200028857806387ea0854146200029f57600080fd5b80632a1e744111620000f05780632a1e744114620001e65780632d71798914620001ff57806342cbb15c14620002185780634a17a58e146200021f57600080fd5b80630a7131a7146200012657806310d637ee146200015057806316b5112614620001a05780631f09765d14620001b7575b600080fd5b6200013d62000137366004620019c6565b6200035e565b6040519081526020015b60405180910390f35b620001876200016136600462001c20565b80516020818301810180516003825292820191909301209152546001600160a01b031681565b6040516001600160a01b03909116815260200162000147565b6200013d620001b1366004620019a1565b6200040b565b62000187620001c8366004620019a1565b6001600160a01b039081166000908152600660205260409020541690565b620001f0620004bf565b60405162000147919062001dfc565b620002166200021036600462001cf5565b62000523565b005b436200013d565b6200023662000230366004620019a1565b62000a15565b60405162000147919062001e91565b6200021662000256366004620019a1565b62000ab7565b620001876200026d366004620019a1565b6005602052600090815260409020546001600160a01b031681565b620001876200029936600462001b50565b62000c56565b62000187620002b0366004620019a1565b6006602052600090815260409020546001600160a01b031681565b62000187620002dc36600462001c20565b80516020818301810180516002825292820191909301209152546001600160a01b031681565b6200021662000313366004620019fe565b62000c8d565b620002166200032a36600462001b96565b62000dec565b6200021662000341366004620019a1565b62001115565b620002166200035836600462001a9a565b6200121b565b6000805b601e811015620003ff576040516341976e0960e01b81526001600160a01b0384811660048301528516906341976e099060240160206040518083038186803b158015620003ae57600080fd5b505afa158015620003c3573d6000803e3d6000fd5b505050506040513d601f19601f82011682018060405250810190620003e9919062001cdb565b5080620003f681620020ff565b91505062000362565b50600090505b92915050565b6000805b6005811015620004b657604051636b4e368160e01b81526001600160a01b03841660048201526000906003600160991b0190636b4e36819060240160206040518083038186803b1580156200046357600080fd5b505afa15801562000478573d6000803e3d6000fd5b505050506040513d601f19601f820116820180604052508101906200049e919062001cdb565b50819050620004ad81620020ff565b9150506200040f565b50600092915050565b606060078054806020026020016040519081016040528092919081815260200182805480156200051957602002820191906000526020600020905b81546001600160a01b03168152600190910190602001808311620004fa575b5050505050905090565b620005526040518060400160405280600b81526020016a36b9b39739b2b73232b91d60a91b81525033620016b4565b60408051808201909152600f81526e30b63637bbb2b220b2323932b9b99d60891b60208201526001546200059091906001600160a01b0316620016b4565b60408051808201909152600d81526c37bbb732b920b2323932b9b99d60991b6020820152600054620005cc91906001600160a01b0316620016b4565b6000546001600160a01b0316331480620005f057506001546001600160a01b031633145b620006565760405162461bcd60e51b815260206004820152602b60248201527f66616b655377617053656e64546f202d20446f206e6f7420686176652072696760448201526a343a103a379039b2b7321760a91b60648201526084015b60405180910390fd5b60006200066384620016fd565b60405160200162000675919062001d9d565b60408051808303601f19018152908290526370a0823160e01b8252306004830152915084906001600160a01b038416906370a082319060240160206040518083038186803b158015620006c757600080fd5b505afa158015620006dc573d6000803e3d6000fd5b505050506040513d601f19601f8201168201806040525081019062000702919062001cdb565b118190620007255760405162461bcd60e51b81526004016200064d919062001e91565b506040516370a0823160e01b81526001600160a01b038481166004830152600091908416906370a082319060240160206040518083038186803b1580156200076c57600080fd5b505afa15801562000781573d6000803e3d6000fd5b505050506040513d601f19601f82011682018060405250810190620007a7919062001cdb565b60405163a9059cbb60e01b81526001600160a01b038681166004830152602482018890529192509084169063a9059cbb90604401602060405180830381600087803b158015620007f657600080fd5b505af11580156200080b573d6000803e3d6000fd5b505050506040513d601f19601f8201168201806040525081019062000831919062001b2c565b506040516370a0823160e01b81526001600160a01b0385811660048301528691908516906370a082319060240160206040518083038186803b1580156200087757600080fd5b505afa1580156200088c573d6000803e3d6000fd5b505050506040513d601f19601f82011682018060405250810190620008b2919062001cdb565b1015620009165760405162461bcd60e51b815260206004820152602b60248201527f42616c616e636520646964206e6f742075706461746520666f7220616464726560448201526a39b9aa37a9b2b7322a379760a91b60648201526084016200064d565b6040516370a0823160e01b81526001600160a01b038581166004830152869183918616906370a082319060240160206040518083038186803b1580156200095c57600080fd5b505afa15801562000971573d6000803e3d6000fd5b505050506040513d601f19601f8201168201806040525081019062000997919062001cdb565b620009a3919062002075565b1462000a0e5760405162461bcd60e51b815260206004820152603360248201527f42616c616e636520646964206e6f7420696e63726561736520627920616d6f75604482015272373a103337b91039bbb0b83834b733903a379760691b60648201526084016200064d565b5050505050565b6004602052600090815260409020805462000a3090620020c2565b80601f016020809104026020016040519081016040528092919081815260200182805462000a5e90620020c2565b801562000aaf5780601f1062000a835761010080835404028352916020019162000aaf565b820191906000526020600020905b81548152906001019060200180831162000a9157829003601f168201915b505050505081565b6000546001600160a01b0316331462000b2f5760405162461bcd60e51b815260206004820152603360248201527f757064617465416c6c6f77656441646472657373202d20446f206e6f742068616044820152723b32903934b3b43a103a37903ab83230ba329760691b60648201526084016200064d565b600180546001600160a01b0319166001600160a01b03831617905560005b60075481101562000c52576007818154811062000b6e5762000b6e62002160565b6000918252602090912001546001546001600160a01b039182169163095ea7b3911662000b9e6012600a62001f97565b62000bba906f4b3b4ca85a86c47a098a22400000000062002053565b6040516001600160e01b031960e085901b1681526001600160a01b0390921660048301526024820152604401602060405180830381600087803b15801562000c0157600080fd5b505af115801562000c16573d6000803e3d6000fd5b505050506040513d601f19601f8201168201806040525081019062000c3c919062001b2c565b508062000c4981620020ff565b91505062000b4d565b5050565b60006002838360405162000c6c92919062001d8d565b908152604051908190036020019020546001600160a01b0316905092915050565b6000546001600160a01b0316331462000cfa5760405162461bcd60e51b815260206004820152602860248201527f61646446616b65546f6b656e202d20446f206e6f742068617665207269676874604482015267103a379030b2321760c11b60648201526084016200064d565b846002858560405162000d0f92919062001d8d565b908152602001604051809103902060006101000a8154816001600160a01b0302191690836001600160a01b03160217905550846003838360405162000d5692919062001d8d565b908152604080516020928190038301902080546001600160a01b0319166001600160a01b03948516179055918816600090815260049091522062000d9c9085856200183c565b5050506001600160a01b0393841660008181526005602090815260408083208054989097166001600160a01b03199889168117909755958252600690529390932080549094169092179092555050565b6000546001600160a01b0316331462000e345760405162461bcd60e51b81526020600482015260096024820152683737ba1037bbb732b960b91b60448201526064016200064d565b6000858585853060405162000e4990620018cb565b62000e5995949392919062001e4b565b604051809103906000f08015801562000e76573d6000803e3d6000fd5b5090506001600160a01b03811663095ea7b33062000e976012600a62001f97565b62000ead9069d3c21bcecceda100000062002053565b6040516001600160e01b031960e085901b1681526001600160a01b0390921660048301526024820152604401602060405180830381600087803b15801562000ef457600080fd5b505af115801562000f09573d6000803e3d6000fd5b505050506040513d601f19601f8201168201806040525081019062000f2f919062001b2c565b506000546001600160a01b038083169163095ea7b3911662000f546012600a62001f97565b62000f6a9069d3c21bcecceda100000062002053565b6040516001600160e01b031960e085901b1681526001600160a01b0390921660048301526024820152604401602060405180830381600087803b15801562000fb157600080fd5b505af115801562000fc6573d6000803e3d6000fd5b505050506040513d601f19601f8201168201806040525081019062000fec919062001b2c565b5080600285856040516200100292919062001d8d565b908152602001604051809103902060006101000a8154816001600160a01b0302191690836001600160a01b0316021790555080600387876040516200104992919062001d8d565b908152604080516020928190038301902080546001600160a01b0319166001600160a01b0394851617905591831660009081526004909152206200108f9085856200183c565b506001600160a01b0390811660008181526005602090815260408083208054959096166001600160a01b031995861681179096559482526006905292832080548316821790556007805460018101825593527fa66cc928b5edb82af9bd49922954155ab7b0942694bea4ce44661d9a8736c6889092018054909116909117905550505050565b6000546001600160a01b03163314806200113957506001546001600160a01b031633145b620011875760405162461bcd60e51b815260206004820181905260248201527f6f6e6c7920616c6c6f776564206164647265737365732063616e2063616c6c2e60448201526064016200064d565b6000546001600160a01b03828116911614801590620011b757506001546000546001600160a01b03908116911614155b156200121857604051630aaf704360e01b81526001600160a01b0382166004820152600160991b90630aaf704390602401600060405180830381600087803b1580156200120357600080fd5b505af115801562000a0e573d6000803e3d6000fd5b50565b6000546001600160a01b03163314620012635760405162461bcd60e51b81526020600482015260096024820152683737ba1037bbb732b960b91b60448201526064016200064d565b60005b83811015620016ab57600087878381811062001286576200128662002160565b90506020028101906200129a919062001ed2565b878785818110620012af57620012af62002160565b9050602002810190620012c3919062001ed2565b30604051620012d290620018cb565b620012e295949392919062001e4b565b604051809103906000f080158015620012ff573d6000803e3d6000fd5b5090506001600160a01b03811663095ea7b330620013206012600a62001f97565b620013369069d3c21bcecceda100000062002053565b6040516001600160e01b031960e085901b1681526001600160a01b0390921660048301526024820152604401602060405180830381600087803b1580156200137d57600080fd5b505af115801562001392573d6000803e3d6000fd5b505050506040513d601f19601f82011682018060405250810190620013b8919062001b2c565b506000546001600160a01b038083169163095ea7b39116620013dd6012600a62001f97565b620013f39069d3c21bcecceda100000062002053565b6040516001600160e01b031960e085901b1681526001600160a01b0390921660048301526024820152604401602060405180830381600087803b1580156200143a57600080fd5b505af11580156200144f573d6000803e3d6000fd5b505050506040513d601f19601f8201168201806040525081019062001475919062001b2c565b508060028787858181106200148e576200148e62002160565b9050602002810190620014a2919062001ed2565b604051620014b292919062001d8d565b90815260405190819003602001902080546001600160a01b03929092166001600160a01b0319909216919091179055806003898985818110620014f957620014f962002160565b90506020028101906200150d919062001ed2565b6040516200151d92919062001d8d565b90815260405190819003602001902080546001600160a01b03929092166001600160a01b031990921691909117905585858381811062001561576200156162002160565b905060200281019062001575919062001ed2565b6001600160a01b03831660009081526004602052604090206200159a9290916200183c565b50838383818110620015b057620015b062002160565b9050602002016020810190620015c79190620019a1565b6001600160a01b03828116600090815260056020526040812080546001600160a01b03191693909216929092179055819060069086868681811062001610576200161062002160565b9050602002016020810190620016279190620019a1565b6001600160a01b0390811682526020820192909252604001600090812080549383166001600160a01b03199485161790556007805460018101825591527fa66cc928b5edb82af9bd49922954155ab7b0942694bea4ce44661d9a8736c688018054939091169290911691909117905580620016a281620020ff565b91505062001266565b50505050505050565b62000c528282604051602401620016cd92919062001ea6565b60408051601f198184030181529190526020810180516001600160e01b031663319af33360e01b1790526200181b565b606081620017225750506040805180820190915260018152600360fc1b602082015290565b8160005b81156200175257806200173981620020ff565b91506200174a9050600a8362001f37565b915062001726565b60008167ffffffffffffffff81111562001770576200177062002176565b6040519080825280601f01601f1916602001820160405280156200179b576020820181803683370190505b5090505b84156200181357620017b360018362002075565b9150620017c2600a866200211d565b620017cf90603062001f1c565b60f81b818381518110620017e757620017e762002160565b60200101906001600160f81b031916908160001a9053506200180b600a8662001f37565b94506200179f565b949350505050565b80516a636f6e736f6c652e6c6f67602083016000808483855afa5050505050565b8280546200184a90620020c2565b90600052602060002090601f0160209004810192826200186e5760008555620018b9565b82601f10620018895782800160ff19823516178555620018b9565b82800160010185558215620018b9579182015b82811115620018b95782358255916020019190600101906200189c565b50620018c7929150620018d9565b5090565b610dc4806200218d83390190565b5b80821115620018c75760008155600101620018da565b80356001600160a01b03811681146200190857600080fd5b919050565b60008083601f8401126200192057600080fd5b50813567ffffffffffffffff8111156200193957600080fd5b6020830191508360208260051b85010111156200195557600080fd5b9250929050565b60008083601f8401126200196f57600080fd5b50813567ffffffffffffffff8111156200198857600080fd5b6020830191508360208285010111156200195557600080fd5b600060208284031215620019b457600080fd5b620019bf82620018f0565b9392505050565b60008060408385031215620019da57600080fd5b620019e583620018f0565b9150620019f560208401620018f0565b90509250929050565b6000806000806000806080878903121562001a1857600080fd5b62001a2387620018f0565b955062001a3360208801620018f0565b9450604087013567ffffffffffffffff8082111562001a5157600080fd5b62001a5f8a838b016200195c565b9096509450606089013591508082111562001a7957600080fd5b5062001a8889828a016200195c565b979a9699509497509295939492505050565b6000806000806000806060878903121562001ab457600080fd5b863567ffffffffffffffff8082111562001acd57600080fd5b62001adb8a838b016200190d565b9098509650602089013591508082111562001af557600080fd5b62001b038a838b016200190d565b9096509450604089013591508082111562001b1d57600080fd5b5062001a8889828a016200190d565b60006020828403121562001b3f57600080fd5b81518015158114620019bf57600080fd5b6000806020838503121562001b6457600080fd5b823567ffffffffffffffff81111562001b7c57600080fd5b62001b8a858286016200195c565b90969095509350505050565b60008060008060006060868803121562001baf57600080fd5b853567ffffffffffffffff8082111562001bc857600080fd5b62001bd689838a016200195c565b9097509550602088013591508082111562001bf057600080fd5b5062001bff888289016200195c565b909450925062001c14905060408701620018f0565b90509295509295909350565b60006020828403121562001c3357600080fd5b813567ffffffffffffffff8082111562001c4c57600080fd5b818401915084601f83011262001c6157600080fd5b81358181111562001c765762001c7662002176565b604051601f8201601f19908116603f0116810190838211818310171562001ca15762001ca162002176565b8160405282815287602084870101111562001cbb57600080fd5b826020860160208301376000928101602001929092525095945050505050565b60006020828403121562001cee57600080fd5b5051919050565b60008060006060848603121562001d0b57600080fd5b8335925062001d1d60208501620018f0565b915062001d2d60408501620018f0565b90509250925092565b81835281816020850137506000828201602090810191909152601f909101601f19169091010190565b6000815180845262001d798160208601602086016200208f565b601f01601f19169290920160200192915050565b8183823760009101908152919050565b7f42616c616e636520696e2068656c70657220636f6e7472616374203c3d20616d81526e37bab73a29b2b73234b733a7baba1d60891b60208201526000825162001def81602f8501602087016200208f565b91909101602f0192915050565b6020808252825182820181905260009190848201906040850190845b8181101562001e3f5783516001600160a01b03168352928401929184019160010162001e18565b50909695505050505050565b60608152600062001e6160608301878962001d36565b828103602084015262001e7681868862001d36565b91505060018060a01b03831660408301529695505050505050565b602081526000620019bf602083018462001d5f565b60408152600062001ebb604083018562001d5f565b905060018060a01b03831660208301529392505050565b6000808335601e1984360301811262001eea57600080fd5b83018035915067ffffffffffffffff82111562001f0657600080fd5b6020019150368190038213156200195557600080fd5b6000821982111562001f325762001f3262002134565b500190565b60008262001f495762001f496200214a565b500490565b600181815b8085111562001f8f57816000190482111562001f735762001f7362002134565b8085161562001f8157918102915b93841c939080029062001f53565b509250929050565b6000620019bf838360008262001fb05750600162000405565b8162001fbf5750600062000405565b816001811462001fd8576002811462001fe35762002003565b600191505062000405565b60ff84111562001ff75762001ff762002134565b50506001821b62000405565b5060208310610133831016604e8410600b841016171562002028575081810a62000405565b62002034838362001f4e565b80600019048211156200204b576200204b62002134565b029392505050565b600081600019048311821515161562002070576200207062002134565b500290565b6000828210156200208a576200208a62002134565b500390565b60005b83811015620020ac57818101518382015260200162002092565b83811115620020bc576000848401525b50505050565b600181811c90821680620020d757607f821691505b60208210811415620020f957634e487b7160e01b600052602260045260246000fd5b50919050565b600060001982141562002116576200211662002134565b5060010190565b6000826200212f576200212f6200214a565b500690565b634e487b7160e01b600052601160045260246000fd5b634e487b7160e01b600052601260045260246000fd5b634e487b7160e01b600052603260045260246000fd5b634e487b7160e01b600052604160045260246000fdfe60806040523480156200001157600080fd5b5060405162000dc438038062000dc48339810160408190526200003491620002e6565b8251839083906200004d90600390602085019062000189565b5080516200006390600490602084019062000189565b5068056bc75e2d63100000915062000097905082620000856012600a620003d7565b620000919084620004a2565b620000a1565b505050506200052d565b6001600160a01b038216620000fc5760405162461bcd60e51b815260206004820152601f60248201527f45524332303a206d696e7420746f20746865207a65726f206164647265737300604482015260640160405180910390fd5b806002600082825462000110919062000373565b90915550506001600160a01b038216600090815260208190526040812080548392906200013f90849062000373565b90915550506040518181526001600160a01b038316906000907fddf252ad1be2c89b69c2b068fc378daa952ba7f163c4a11628f55a4df523b3ef9060200160405180910390a35050565b8280546200019790620004c4565b90600052602060002090601f016020900481019282620001bb576000855562000206565b82601f10620001d657805160ff191683800117855562000206565b8280016001018555821562000206579182015b8281111562000206578251825591602001919060010190620001e9565b506200021492915062000218565b5090565b5b8082111562000214576000815560010162000219565b600082601f8301126200024157600080fd5b81516001600160401b03808211156200025e576200025e62000517565b604051601f8301601f19908116603f0116810190828211818310171562000289576200028962000517565b81604052838152602092508683858801011115620002a657600080fd5b600091505b83821015620002ca5785820183015181830184015290820190620002ab565b83821115620002dc5760008385830101525b9695505050505050565b600080600060608486031215620002fc57600080fd5b83516001600160401b03808211156200031457600080fd5b62000322878388016200022f565b945060208601519150808211156200033957600080fd5b5062000348868287016200022f565b604086015190935090506001600160a01b03811681146200036857600080fd5b809150509250925092565b6000821982111562000389576200038962000501565b500190565b600181815b80851115620003cf578160001904821115620003b357620003b362000501565b80851615620003c157918102915b93841c939080029062000393565b509250929050565b6000620003e58383620003ec565b9392505050565b600082620003fd575060016200049c565b816200040c575060006200049c565b8160018114620004255760028114620004305762000450565b60019150506200049c565b60ff84111562000444576200044462000501565b50506001821b6200049c565b5060208310610133831016604e8410600b841016171562000475575081810a6200049c565b6200048183836200038e565b806000190482111562000498576200049862000501565b0290505b92915050565b6000816000190483118215151615620004bf57620004bf62000501565b500290565b600181811c90821680620004d957607f821691505b60208210811415620004fb57634e487b7160e01b600052602260045260246000fd5b50919050565b634e487b7160e01b600052601160045260246000fd5b634e487b7160e01b600052604160045260246000fd5b610887806200053d6000396000f3fe608060405234801561001057600080fd5b50600436106100a95760003560e01c80633950935111610071578063395093511461012357806370a082311461013657806395d89b411461015f578063a457c2d714610167578063a9059cbb1461017a578063dd62ed3e1461018d57600080fd5b806306fdde03146100ae578063095ea7b3146100cc57806318160ddd146100ef57806323b872dd14610101578063313ce56714610114575b600080fd5b6100b66101a0565b6040516100c3919061079b565b60405180910390f35b6100df6100da366004610771565b610232565b60405190151581526020016100c3565b6002545b6040519081526020016100c3565b6100df61010f366004610735565b61024a565b604051601281526020016100c3565b6100df610131366004610771565b61026e565b6100f36101443660046106e0565b6001600160a01b031660009081526020819052604090205490565b6100b6610290565b6100df610175366004610771565b61029f565b6100df610188366004610771565b61031f565b6100f361019b366004610702565b61032d565b6060600380546101af90610816565b80601f01602080910402602001604051908101604052809291908181526020018280546101db90610816565b80156102285780601f106101fd57610100808354040283529160200191610228565b820191906000526020600020905b81548152906001019060200180831161020b57829003601f168201915b5050505050905090565b600033610240818585610358565b5060019392505050565b60003361025885828561047c565b6102638585856104f6565b506001949350505050565b600033610240818585610281838361032d565b61028b91906107f0565b610358565b6060600480546101af90610816565b600033816102ad828661032d565b9050838110156103125760405162461bcd60e51b815260206004820152602560248201527f45524332303a2064656372656173656420616c6c6f77616e63652062656c6f77604482015264207a65726f60d81b60648201526084015b60405180910390fd5b6102638286868403610358565b6000336102408185856104f6565b6001600160a01b03918216600090815260016020908152604080832093909416825291909152205490565b6001600160a01b0383166103ba5760405162461bcd60e51b8152602060048201526024808201527f45524332303a20617070726f76652066726f6d20746865207a65726f206164646044820152637265737360e01b6064820152608401610309565b6001600160a01b03821661041b5760405162461bcd60e51b815260206004820152602260248201527f45524332303a20617070726f766520746f20746865207a65726f206164647265604482015261737360f01b6064820152608401610309565b6001600160a01b0383811660008181526001602090815260408083209487168084529482529182902085905590518481527f8c5be1e5ebec7d5bd14f71427d1e84f3dd0314c0f7b2291e5b200ac8c7c3b925910160405180910390a3505050565b6000610488848461032d565b905060001981146104f057818110156104e35760405162461bcd60e51b815260206004820152601d60248201527f45524332303a20696e73756666696369656e7420616c6c6f77616e63650000006044820152606401610309565b6104f08484848403610358565b50505050565b6001600160a01b03831661055a5760405162461bcd60e51b815260206004820152602560248201527f45524332303a207472616e736665722066726f6d20746865207a65726f206164604482015264647265737360d81b6064820152608401610309565b6001600160a01b0382166105bc5760405162461bcd60e51b815260206004820152602360248201527f45524332303a207472616e7366657220746f20746865207a65726f206164647260448201526265737360e81b6064820152608401610309565b6001600160a01b038316600090815260208190526040902054818110156106345760405162461bcd60e51b815260206004820152602660248201527f45524332303a207472616e7366657220616d6f756e7420657863656564732062604482015265616c616e636560d01b6064820152608401610309565b6001600160a01b0380851660009081526020819052604080822085850390559185168152908120805484929061066b9084906107f0565b92505081905550826001600160a01b0316846001600160a01b03167fddf252ad1be2c89b69c2b068fc378daa952ba7f163c4a11628f55a4df523b3ef846040516106b791815260200190565b60405180910390a36104f0565b80356001600160a01b03811681146106db57600080fd5b919050565b6000602082840312156106f257600080fd5b6106fb826106c4565b9392505050565b6000806040838503121561071557600080fd5b61071e836106c4565b915061072c602084016106c4565b90509250929050565b60008060006060848603121561074a57600080fd5b610753846106c4565b9250610761602085016106c4565b9150604084013590509250925092565b6000806040838503121561078457600080fd5b61078d836106c4565b946020939093013593505050565b600060208083528351808285015260005b818110156107c8578581018301518582016040015282016107ac565b818111156107da576000604083870101525b50601f01601f1916929092016040019392505050565b6000821982111561081157634e487b7160e01b600052601160045260246000fd5b500190565b600181811c9082168061082a57607f821691505b6020821081141561084b57634e487b7160e01b600052602260045260246000fd5b5091905056fea2646970667358221220a425fc723b182f68c3bf78fe1e807ff3aeb85547f1ce8a5d971967cb2e784ff264736f6c63430008070033a264697066735822122075ba3f881da584b697aa482b9488c16b1aba553f48faf0f1bd482fad6aef37ed64736f6c63430008070033",
  "linkReferences": {},
  "deployedLinkReferences": {}
}